:100000000C9463000C948B000C948B000C943802BD
:100010000C9438020C9438020C948B000C948B00D6
:100020000C948B000C948B000C948B000C948B0024
:100030000C948B000C948B000C948B000C948B0014
:100040000C94EE010C948B000C948B000C948B00A0
:100050000C948B000C948B000C948B000C948B00F4
:100060000C948B000C948B000000000024002700EF
:100070002A0000000000250028002B0000000000DE
:1000800023002600290004040404040404040202DA
:100090000202020203030303030301020408102007
:1000A0004080010204081020010204081020000012
:1000B0000008000201000003040700000000000027
:1000C00000001B04880411241FBECFEFD8E0DEBF60
:1000D000CDBF11E0A0E0B1E0EEEBF9E002C0059089
:1000E0000D92AC33B107D9F721E0ACE3B1E001C028
:1000F0001D92AB3AB207E1F710E0C2E6D0E004C0CF
:100100002197FE010E94CC04C136D107C9F70E9495
:10011000DE020C94D2040C940000AF92BF92CF92F6
:10012000DF92EF92FF920F931F93CF93DF936C01B7
:100130007B018B01040F151FEB015E01AE18BF0898
:10014000C017D10759F06991D601ED91FC9101904A
:10015000F081E02DC6010995892B79F7C501DF9162
:10016000CF911F910F91FF90EF90DF90CF90BF90B4
:10017000AF900895833081F028F4813099F0823077
:10018000A9F008958730A9F08830C9F08430B1F41F
:10019000809180008F7D03C0809180008F77809355
:1001A0008000089584B58F7784BD089584B58F7DD0
:1001B000FBCF8091B0008F778093B000089580913D
:1001C000B0008F7DF9CFCF93DF93282F30E0F90176
:1001D000E255FF4F8491F901E656FF4FD491F901A2
:1001E000EA57FF4FC491CC23A1F081110E94BA00BD
:1001F000EC2FF0E0EE0FFF1FE458FF4FA591B491F4
:10020000EC91ED2381E090E009F480E0DF91CF9163
:10021000089580E090E0FACFCF93DF9390E0FC0167
:10022000E656FF4F24918A579F4FFC018491882303
:10023000D1F090E0880F991FFC01E859FF4FA5917C
:10024000B491FC01EE58FF4FC591D49161110EC0DD
:100250009FB7F8948C91E22FE0958E238C932881A0
:10026000E223E8839FBFDF91CF9108958FB7F89481
:10027000EC91E22BEC938FBFF6CF20917E01309171
:100280007F012817390771F490917C0180917D01DD
:10029000981741F0E0917C01F0E0E45CFE4F808132
:1002A00090E008958FEF9FEF08950895EF92FF92E9
:1002B0000F931F93CF93DF93DC015C96ED90FC903E
:1002C0005D97E114F10479F481E090E013969C933A
:1002D0008E93129790E080E0DF91CF911F910F9164
:1002E000FF90EF9008955196ED91FC9152975096A2
:1002F0008C915097982F90950FB75E962C915E97A2
:10030000122F127021FD6095F8942081112319F1AC
:10031000282B2083E7012197F1F728E0462F50E0B2
:10032000308160FF1AC0382B3083E7012197F1F745
:10033000BA0175956795215089F7112381F0808165
:10034000892380830FBF5C968D919C910197F1F773
:1003500081E090E0C1CF2923DCCF3923E5CF908124
:10036000892BEFCF20917E0130917F01281739072B
:1003700071F480917D0120917C0190E0805C9F4F21
:10038000821B910960E470E00E94A404089590E04B
:1003900080E0089520917E0130917F012817390770
:1003A000B9F490917C0180917D01981789F0E091DA
:1003B0007C01F0E0E45CFE4F808120917C0130E024
:1003C0002F5F3F4F2F73332720937C0190E00895D8
:1003D0008FEF9FEF089590E080E008951F920F92B5
:1003E0000FB60F9211242F933F938F939F93AF9348
:1003F000BF938091A7019091A801A091A901B0910C
:10040000AA013091A60123E0230F2D3758F501965C
:10041000A11DB11D2093A6018093A7019093A8016F
:10042000A093A901B093AA018091A2019091A30188
:10043000A091A401B091A5010196A11DB11D8093C9
:10044000A2019093A301A093A401B093A501BF9131
:10045000AF919F918F913F912F910F900FBE0F9071
:100460001F90189526E8230F0296A11DB11DD2CF2B
:100470001F920F920FB60F9211242F933F934F9319
:100480005F936F937F938F939F93AF93BF93EF93FC
:10049000FF93E0917E01F0917F01309749F0A685AE
:1004A000B7858585968D91FF14C09C918923A1F411
:1004B000FF91EF91BF91AF919F918F917F916F913C
:1004C0005F914F913F912F910F900FBE0F901F9012
:1004D00018959C91892361F7A389B4899C9185899A
:1004E000809589238C93868997890197F1F7608D90
:1004F000718DA685B785558538E020E0CB01019741
:10050000F1F7822F90E095958795282F4C91452300
:1005100009F02068315091F7868D81FD20958091FA
:100520007D0190E001968F73992730917C013817F7
:1005300099F0A0917D01B0E0A45CBE4F2C93809314
:100540007D01828D938D0197F1F7A389B4898C91F8
:100550009589892B8C93ACCF868D8160868FF1CF66
:100560001F93CF93DF93282F30E0F901E255FF4F1F
:100570008491F901E656FF4FD491F901EA57FF4FF4
:10058000C491CC23A9F0162F81110E94BA00EC2F40
:10059000F0E0EE0FFF1FEE58FF4FA591B4918FB71B
:1005A000F894EC91111108C0D095DE23DC938FBF35
:1005B000DF91CF911F910895DE2BF8CF789484B509
:1005C000826084BD84B5816084BD85B5826085BD4F
:1005D00085B5816085BD80916E00816080936E00DD
:1005E00010928100809181008260809381008091CF
:1005F0008100816080938100809180008160809380
:1006000080008091B10084608093B1008091B0003F
:1006100081608093B00080917A00846080937A003A
:1006200080917A00826080937A0080917A00816064
:1006300080937A0080917A00806880937A0010928B
:10064000C10010929B0110929A0110929901109290
:10065000980110929701109296018DE991E0909384
:100660009D0180939C0190918C01963108F047C0C8
:100670002DEB30E030939701209396012BE931E088
:1006800030939901209398012CE231E030939B0143
:1006900020939A012091680084E0983048F031E07E
:1006A0009E3008F430E081E001C0880F3A95EAF707
:1006B000822B809368002DE630E0983050F02BE6D6
:1006C00030E09E3030F02CE630E0963110F030E033
:1006D00020E03093940120939301292F30E098304B
:1006E00008F09CC081E001C0880F9A95EAF78093DA
:1006F000950180919C0190919D010197F1F7809166
:100700009A0190919B01892B49F1E0917E01F09132
:100710007F0181E0E038F80709F1309739F0A389CB
:10072000B4899C918589809589238C9380919E01C1
:100730008E7F80939E0110927D0110927C0180E853
:1007400091E090937F0180937E01E0919301F0917D
:100750009401808190919501892B808360E08AE0EB
:100760000E940C0160E08BE00E940C0160E08CE0D4
:100770000E940C0180E0A82E80E0B82E8AE00E9442
:10078000E3006C0199249394892B09F4912C8BE05C
:100790000E94E3007C01D1E0892B09F4D0E08CE0D9
:1007A0000E94E3008C01C1E0892B09F4C0E0CD2850
:1007B00061F08091A101811108C04EE050E06CE130
:1007C00071E080E891E00E948D00EF2861F0809157
:1007D000A001811108C04EE050E060E071E080E8C7
:1007E00091E00E948D00012B61F080919F018111A9
:1007F00008C04EE050E06EE071E080E891E00E94B9
:100800008D009092A101D093A001C0939F01A114EB
:10081000B10409F4B3CF0E940000B0CF9E3040F481
:100820002850310981E001C0880F2A95EAF75FCF8F
:100830002E503109F7CF109283011092820188EE79
:1008400093E0A0E0B0E08093840190938501A093B1
:100850008601B09387018EE291E0909381018093AD
:1008600080011092970110929601109299011092B6
:10087000980110929B0110929A0110929D01109282
:100880009C0160919E016E7F6D7F60939E016695D5
:10089000617081E0682783E00E94B00261E083E03C
:1008A0000E940C01EDE9F0E0E491E0939001E9E8A9
:1008B000F0E0E491F0E0EE0FFF1FEE58FF4F85915E
:1008C0009491909392018093910160E08FEF0E9448
:1008D0000C0180919E0181FD04C061E08FEF0E94B8
:1008E000B0028FEF80938C01E9E9F1E0E491E093AD
:1008F0008D01E5E8F1E0E491F0E0EE0FFF1FE45830
:10090000FF4F8591949190938F0180938E0108956C
:100910008EE291E0909381018093800180917E012D
:1009200090917F018058914071F4E0919301F09192
:100930009401908180919501809589238083109204
:100940007F0110927E01089597FB072E16F4009404
:1009500007D077FD09D00E94B80407FC05D03EF40B
:10096000909581959F4F0895709561957F4F08955B
:10097000AA1BBB1B51E107C0AA1FBB1FA617B707C5
:1009800010F0A61BB70B881F991F5A95A9F78095E1
:100990009095BC01CD010895EE0FFF1F0590F491D5
:1009A000E02D099410E0C2E6D0E004C0FE010E94F0
:0E09B000CC042196C336D107C9F7F894FFCFC7
:1009BE0002303032323232323232323030030230A2
:1009CE00303333333333333333303003023030315B
:1009DE0031313131313131303003000000005601F8
:0C09EE008D00EB015501B201CA013D0172
:00000001FF
