:100000000C9463000C948B000C948B000C94DD0614
:100010000C94DD060C94DD060C948B000C948B0084
:100020000C948B000C948B000C948B000C948B0024
:100030000C948B000C948B000C948B000C948B0014
:100040000C9493060C948B000C9461060C943B0664
:100050000C948B000C948B000C948B000C948B00F4
:100060000C948B000C948B000000000024002700EF
:100070002A0000000008000201000003040700003D
:1000800000000000000000000000230026002900FE
:1000900000000000250028002B00040404040404D0
:1000A0000404020202020202030303030303010227
:1000B00004081020408001020408102001020408F6
:1000C00010205507080C11241FBECFEFD8E0DEBF6B
:1000D000CDBF22E0A0E6B1E001C01D92A63AB20772
:1000E000E1F711E0A0E0B1E0E6E9F6E202C0059038
:1000F0000D92A036B107D9F710E0C2E6D0E004C0F7
:100100002197FE010E948F0EC136D107C9F70E94C8
:1001100039080C943E130C94000080917402909165
:100120007502892B59F1E091BB01F091BC0182E08D
:10013000EA35F80719F1309739F0A389B4899C9111
:100140008589809589238C93809178028E7F809316
:1001500078021092BA011092B9018AE592E0909368
:10016000BC018093BB01E0916D02F0916E02808131
:1001700090916F02892B808381E0089580E008953B
:10018000AF92BF92CF92DF92EF92FF920F931F93A5
:10019000CF93DF936C017B018B01040F151FEB01E3
:1001A0005E01AE18BF08C017D10759F06991D6019A
:1001B000ED91FC910190F081E02DC6010995892B0C
:1001C00079F7C501DF91CF911F910F91FF90EF90CB
:1001D000DF90CF90BF90AF900895FC01538D448D78
:1001E000252F30E0842F90E0821B930B541710F0E2
:1001F000CF96089501970895FC01918D828D9817EF
:1002000061F0A28DAE0FBF2FB11D5D968C91928DC6
:100210009F5F9F73928F90E008958FEF9FEF0895F7
:10022000FC01918D828D981731F0828DE80FF11DC0
:10023000858D90E008958FEF9FEF0895FC01918DDB
:10024000228D892F90E0805C9F4F821B91098F73D4
:10025000992708958DEB91E00E941E0121E0892BE2
:1002600009F420E0822F0895FC01A48DA80FB92F76
:10027000B11DA35ABF4F2C91848D90E001968F73CE
:100280009927848FA689B7892C93A089B1898C91ED
:10029000837080648C93938D848D981306C002883C
:1002A000F389E02D80818F7D80830895EF92FF9206
:1002B0000F931F93CF93DF93EC0181E0888F9B8D89
:1002C0008C8D98131AC0E889F989808185FF15C043
:1002D0009FB7F894EE89FF896083E889F989808166
:1002E0008370806480839FBF81E090E0DF91CF9135
:1002F0001F910F91FF90EF900895F62E0B8D10E057
:100300000F5F1F4F0F731127E02E8C8D8E110CC0C5
:100310000FB607FCFACFE889F989808185FFF5CF10
:10032000CE010E943401F1CFEB8DEC0FFD2FF11DBA
:10033000E35AFF4FF0829FB7F8940B8FEA89FB894D
:1003400080818062CFCFCF93DF93EC01888D8823AB
:10035000B9F0AA89BB89E889F9898C9185FD03C028
:10036000808186FD0DC00FB607FCF7CF8C9185FF0D
:10037000F2CF808185FFEDCFCE010E943401E9CF1D
:10038000DF91CF91089590E0FC01EE58FF4F24914A
:10039000FC01E255FF4F3491FC01E656FF4FE4911A
:1003A000EE23C9F0222339F0233001F1A8F42130E3
:1003B00019F1223029F1F0E0EE0FFF1FE057FF4F57
:1003C000A591B4918FB7F894EC91611126C0309546
:1003D0003E233C938FBF08952730A9F02830C9F001
:1003E000243049F7809180008F7D03C08091800088
:1003F0008F7780938000DFCF84B58F7784BDDBCF8C
:1004000084B58F7DFBCF8091B0008F778093B00053
:10041000D2CF8091B0008F7DF9CF3E2BDACFCF9332
:10042000DF9390E0FC01E255FF4F249186569F4FE9
:10043000FC0184918823D1F090E0880F991FFC0182
:10044000E859FF4FA591B491FC01E057FF4FC591CA
:10045000D49161110EC09FB7F8948C91E22FE09572
:100460008E238C932881E223E8839FBFDF91CF9175
:1004700008958FB7F894EC91E22BEC938FBFF6CFF1
:100480002091BB013091BC012817390771F490917C
:10049000B9018091BA01981741F0E091B901F0E0FB
:1004A000E05AFE4F808190E008958FEF9FEF08950E
:1004B0000895EF92FF920F931F93CF93DF93DC0188
:1004C0005C96ED90FC905D97E114F10479F481E085
:1004D00090E013969C938E93129790E080E0DF91CA
:1004E000CF911F910F91FF90EF9008955196ED914C
:1004F000FC91529750968C915097982F90950FB7EA
:100500005E962C915E97122F127021FD6095F894E3
:100510002081112319F1282B2083E7012197F1F77E
:1005200028E0462F50E0308160FF1AC0382B30831E
:10053000E7012197F1F7BA0175956795215089F781
:10054000112381F08081892380830FBF5C968D9178
:100550009C910197F1F781E090E0C1CF2923DCCF96
:100560003923E5CF9081892BEFCF2091BB013091CA
:10057000BC012817390771F48091BA012091B901A3
:1005800090E0805C9F4F821B910960E470E00E94C4
:10059000670E089590E080E008952091BB013091AE
:1005A000BC0128173907B9F49091B9018091BA01BB
:1005B000981789F0E091B901F0E0E05AFE4F808190
:1005C0002091B90130E02F5F3F4F2F7333272093E5
:1005D000B90190E008958FEF9FEF089590E080E0DB
:1005E0000895CF93DF93EC01A881B981EB01E881F5
:1005F000F9811097F1F03097B1F4EC018C819D8175
:10060000892BC9F08C9190E00BC0DB0114968D9181
:100610009C91892B81F0808190E091958195910941
:10062000DF91CF910895BF01CD01DF91CF910C945F
:100630008010309751F790E080E0F2CF0F931F9336
:10064000CF93DF93EC0188819981009759F02A813B
:100650003B812617370730F081E0DF91CF911F9162
:100660000F9108958B016F5F7F4F0E94BA0F009723
:1006700059F0998388831B830A832C813D81232B26
:1006800059F7FC011082E8CF80E0E7CFEF92FF92AC
:100690000F931F93CF93DF936115710541F480E0B1
:1006A000DF91CF911F910F91FF90EF900895411529
:1006B0005105B1F07B01EC010C811D81040F151F68
:1006C000B8010E941E03882351F3288139818C814F
:1006D0009D81B701820F931F0E9489101D830C8397
:1006E00081E0DECFCF93DF9300D0CDB7DEB7698353
:1006F0001A8241E050E0BE016F5F7F4F0E944603C7
:100700000F900F90DF91CF910895CF93DF93EC017D
:1007100088819981009711F00E94310F1982188207
:100720001D821C821B821A82DF91CF910895CF9384
:10073000DF93EC01FB0101900020E9F73197AF0155
:10074000461B570B0E944603811103C0CE010E9435
:100750008503CE01DF91CF910895CF93DF93EC0114
:10076000FB0144815581608171810E9446038111A2
:1007700003C0CE010E948503CE01DF91CF91089581
:10078000EF92FF920F931F93CF93DF93EC017B01C6
:100790008A01BA010E941E0381110BC0CE010E9482
:1007A0008503CE01DF91CF911F910F91FF90EF90C4
:1007B00008951D830C83B701888199810E94891057
:1007C000F0CFFB0101900020E9F73197AF01461B04
:1007D000570B0C94C003CF93DF93EC01FB018617FA
:1007E000970749F0608171816115710541F044817D
:1007F00055810E94C003CE01DF91CF9108950E94E0
:100800008503F9CFFC0111821082138212821582B6
:1008100014820C94EB03CF93DF93EC010E9402044B
:10082000CE01DF91CF910895EF92FF920F931F9326
:10083000CF93DF93EC017B01198218821B821A820D
:100840001D821C8288E090E00E94950E8C01B70109
:100850000E940204F70186819781F80197838683BD
:100860001D830C83DF91CF911F910F91FF90EF902B
:100870000895FC0111821082138212821582148263
:10088000FB0101900020E9F73197AF01461B570BA0
:100890000C94C003FC0180819181009711F00C94AD
:1008A000310F0895AF92BF92CF92DF92EF92FF92F5
:1008B0000F931F93CF93DF93CDB7DEB72E970FB66D
:1008C000F894DEBF0FBECDBF8C016B0180917A0220
:1008D00090917B02D80112969C938E931197D80128
:1008E0001196ED91FC9180917C0290917D028E1782
:1008F0009F0779F1A0908102B0908202E480F58098
:10090000B701CE0101960E940204F701868197810A
:1009100098878F83BE016F5F7F4FCE010996F501E7
:100920000995B601CE0109960E94F1027C01CE0123
:1009300009960E944A04CE0101960E944A04F7FEDD
:1009400008C0D8011196ED91FC9112978281938194
:10095000C2CFC8012E960FB6F894DEBF0FBECDBF32
:10096000DF91CF911F910F91FF90EF90DF90CF908B
:10097000BF90AF9008950F931F93CF93DF9300D054
:1009800000D000D0CDB7DEB78C0164E972E0CE01B3
:1009900001960E940204B801CE0101960E94AD03A7
:1009A0006AE271E00E949703BC0184E992E00E9430
:1009B000EB03CE0101960E944A0426960FB6F894E6
:1009C000DEBF0FBECDBFDF91CF911F910F91089574
:1009D000CF93DF9300D000D000D0CDB7DEB76CE26C
:1009E00071E0CE0101960E943904CE0101960E9469
:1009F000BB04CE0101960E944A0426960FB6F894D5
:100A0000DEBF0FBECDBFDF91CF910895CF93C1E080
:100A10008DEB91E00E941E01892B09F4F7C08091B3
:100A2000830290918402892B09F054C02FB7F89467
:100A30008091A5019091A601A091A701B091A80174
:100A40002FBF80939A0290939B02A0939C02B09335
:100A50009D026CE571E088E892E00E94E1038DEB75
:100A600091E00E94FC00682F8091830290918402A3
:100A70009C012F5F3F4F3093840220938302833089
:100A8000910508F0BDC051E0663609F450E024300D
:100A9000310519F441E0653609F440E0511103C015
:100AA000442309F45EC010928402109283021092D3
:100AB0008602109285026CE571E088E892E00E945F
:100AC000E1036CE571E08EE892E00E94E103109290
:100AD00087029ECF80919A0290919B02A0919C02E6
:100AE000B0919D02845D9E4FAF4FBF4F2FB7F894DA
:100AF0004091A5015091A6016091A7017091A801B4
:100B00002FBF84179507A607B70708F0A8CF6CE595
:100B100071E08EE892E00E94E1031092840210924C
:100B2000830210928602109285026CE571E088E8DB
:100B300092E00E94E103109287022FB7F89480910F
:100B4000A5019091A601A091A701B091A8012FBF86
:100B500080939A0290939B02A0939C02B0939D0273
:100B60007ECF0497029720F5109287028EE892E0DC
:100B70000E9472038091830290918402069709F08B
:100B800047CF40E150E070E060E080918E029091AC
:100B90008F020E94800C6A5F7F4F70938602609381
:100BA00085026CE571E08EE892E00E94E10330CFAF
:100BB0002730310508F42CCF809185029091860270
:100BC0002817390738F41092870288E892E00E94CB
:100BD00072031ECF9093840280938302892B09F4C1
:100BE00017CF88E892E00E9472031092840210925C
:100BF00083021092860210928502C093870208CF6A
:100C00002430310509F0ADCF50E044CFCF910895A5
:100C10000E942A0181110C9406050895CF92DF925B
:100C2000EF92FF920F931F93CF93DF937C01EB0121
:100C3000CB0101960E94950E8C01AE01B7010E9476
:100C40007710C00FD11F188240E150E070E060E0E3
:100C5000C8010E94800C6B017C01C8010E94310F09
:100C6000C701B601DF91CF911F910F91FF90EF90D7
:100C7000DF90CF9008951F920F920FB60F9211241C
:100C80002F933F934F935F936F937F938F939F9394
:100C9000AF93BF93EF93FF938DEB91E00E943401EC
:100CA000FF91EF91BF91AF919F918F917F916F9144
:100CB0005F914F913F912F910F900FBE0F901F901A
:100CC00018951F920F920FB60F9211242F938F93A6
:100CD0009F93EF93FF93E091CD01F091CE0180813E
:100CE000E091D301F091D40182FD1BC090818091ED
:100CF000D6018F5F8F732091D701821741F0E09169
:100D0000D601F0E0E354FE4F958F8093D601FF911A
:100D1000EF919F918F912F910F900FBE0F901F9089
:100D200018958081F4CF1F920F920FB60F92112465
:100D30002F933F938F939F93AF93BF938091A50180
:100D40009091A601A091A701B091A8013091A401B2
:100D500023E0230F2D3758F50196A11DB11D2093D7
:100D6000A4018093A5019093A601A093A701B0933D
:100D7000A8018091A0019091A101A091A201B09140
:100D8000A3010196A11DB11D8093A0019093A10123
:100D9000A093A201B093A301BF91AF919F918F91B6
:100DA0003F912F910F900FBE0F901F90189526E83E
:100DB000230F0296A11DB11DD2CF1F920F920FB625
:100DC0000F9211242F933F934F935F936F937F93D1
:100DD0008F939F93AF93BF93EF93FF93E091BB01EA
:100DE000F091BC01309749F0A685B7858585968D31
:100DF00091FF14C09C918923A1F4FF91EF91BF91C1
:100E0000AF919F918F917F916F915F914F913F91A2
:100E10002F910F900FBE0F901F9018959C918923D2
:100E200061F7A389B4899C918589809589238C93E6
:100E3000868997890197F1F7608D718DA685B785B1
:100E4000558538E020E0CB010197F1F7822F90E043
:100E500095958795282F4C91452309F020683150AE
:100E600091F7868D81FD20958091BA0190E00196E1
:100E70008F7399273091B901381799F0A091BA0171
:100E8000B0E0A05ABE4F2C938093BA01828D938D0F
:100E90000197F1F7A389B4898C919589892B8C935B
:100EA000ACCF868D8160868FF1CFCF92DF92EF92AB
:100EB000FF921092C0011092BF0198EEC92E93E0EC
:100EC000D92EE12CF12CC092C101D092C201E09246
:100ED000C301F092C4018AE091E09093BE01809337
:100EE000BD0185EC90E09093CA018093C90184EC28
:100EF00090E09093CC018093CB0180EC90E09093B4
:100F0000CE018093CD0181EC90E09093D00180934D
:100F1000CF0182EC90E09093D2018093D10186ECD6
:100F200090E09093D4018093D3011092D601109257
:100F3000D7011092D8011092D90110927F0210921D
:100F40007E0286E090E00E94950EFC0111821082E4
:100F5000138212821582148290937B0280937A020C
:100F600090937D0280937C028BE094E090938202C8
:100F7000809381026CE571E088E892E00E94390478
:100F80006CE571E08EE892E00E9439046CE571E056
:100F900084E992E00E94390410925D0210925C0292
:100FA000C0925E02D0925F02E0926002F092610213
:100FB0008CE191E090935B0280935A02109271024F
:100FC00010927002109273021092720210927502C7
:100FD0001092740210927702109276026091780259
:100FE0006E7F6D7F609378026695617081E06827FF
:100FF0008CE00E94C30161E08CE00E940F02EAEBEA
:10100000F0E0E491E0936A02E6EAF0E0E491F0E0D7
:10101000EE0FFF1FE057FF4F8591949190936C0264
:1010200080936B0260E08BE00E940F028091780257
:1010300081FD04C061E08BE00E94C3018BE08093DE
:101040006602E9EBF0E0E491E0936702E5EAF0E0A4
:10105000E491F0E0EE0FFF1FEA57FF4F8591949166
:101060009093690280936802FF90EF90DF90CF9099
:101070000895CF93DF93CDB7DEB7CA54D1090FB629
:10108000F894DEBF0FBECDBF789484B5826084BD76
:1010900084B5816084BD85B5826085BD85B581607C
:1010A00085BD80916E00816080936E0010928100FA
:1010B00080918100826080938100809181008160B5
:1010C0008093810080918000816080938000809176
:1010D000B10084608093B1008091B0008160809302
:1010E000B00080917A00846080937A0080917A00C9
:1010F000826080937A0080917A00816080937A0088
:1011000080917A00806880937A001092C10061E03B
:101110008DE00E940F0261E08CE00E940F0260E00F
:101120008CE00E94C301109275021092740210921A
:1011300073021092720210927102109270028DE985
:1011400091E09093770280937602909166029631B7
:1011500008F047C02DEB30E030937102209370020D
:101160002BE931E030937302209372022CE231E0DC
:1011700030937502209374022091680084E09830C7
:1011800048F031E09E3008F430E081E001C0880F83
:101190003A95EAF7822B809368002DE630E098308C
:1011A00050F02BE630E09E3030F02CE630E0963107
:1011B00010F030E020E030936E0220936D02292F72
:1011C00030E0983008F017C181E001C0880F9A958F
:1011D000EAF780936F0280917602909177020197EF
:1011E000F1F70E948D006FEF70E088E892E00E94B6
:1011F0001E036CE571E08EE892E00E94E1036CE56D
:1012000071E088E892E00E94E1036CE571E084E916
:1012100092E00E94E10310928702109286021092DF
:101220008502109284021092830210929A02109208
:101230009B0210929C0210929D02E091CD01F091D0
:10124000CE0182E08083E091C901F091CA01108251
:10125000E091CB01F091CC018FEC80831092D5010D
:10126000E091D101F091D20186E08083E091CF013D
:10127000F091D001808180618083E091CF01F09175
:10128000D001808188608083E091CF01F091D0010E
:10129000808180688083E091CF01F091D0018081CE
:1012A0008F7D808388EE94E090939F0280939E02CE
:1012B0008E010D5C1F4FAA24A394B12C9BE4C92E70
:1012C00091E0D92E23E0322E80918702109287027E
:1012D000882309F46CC068E872E0CE0101960E9490
:1012E00002048D819E81892B51F06FE371E0898129
:1012F0009A810E948010FF24F394892B09F0F12C2D
:10130000CE0101960E944A04FF2009F481C0E091B9
:101310009E02F0919F02099564E972E0CE018B96DE
:101320000E94020488A98F938FA58F93DF92CF929A
:101330001F923F921F930F930E949010B801CE010D
:1013400083960E94390460E571E0CE0101960E9407
:101350003904BE016D5D7F4FCE0101960E94AD0341
:10136000BE01655D7F4F0E94AD03DC0114964D9177
:101370005C9115976D917C918DEB91E00E94C0007E
:10138000CE0101960E944A04CE0183960E944A042F
:10139000CE018B960E944A046CE571E084E992E0EC
:1013A0000E94E1030FB6F894DEBF0FBECDBF0E94CE
:1013B0008D008AE592E00E94B502181619060CF01D
:1013C0007AC161E08DE00E94C30161E08CE00E947F
:1013D000C3018AE592E00E94CD028F3F980709F48D
:1013E0006AC18230910509F052C11092B801109281
:1013F000B70140E051C19E3040F42850310981E0EE
:1014000001C0880F2A95EAF7E4CE2E503109F7CFB4
:1014100068E872E0CE01CF960E940204BE01615CD2
:101420007F4FCE01885B9F4F0E9452042B96EEADFA
:10143000FFAD2B9780917C0290917D028E179F07C4
:1014400041F064817581CE01CF960E94F10297FF31
:101450006FC0BE01615C7F4FCE018B960E9402047B
:101460001AAA19AAE0908102F0908202BE01655D7D
:101470007F4FCE0101960E94020489A99AA99887FC
:101480008F83BE016F5F7F4FCE018396F701099571
:10149000BE016D5D7F4FCE018B5B9F4F0E9452045A
:1014A000CE0183960E944A04CE0101960E944A040E
:1014B0002896EEADFFAD289780917C0290917D0239
:1014C0008E179F0709F06EC080917E0290917F0277
:1014D000892BF1F586E090E00E94950E7C01BE011B
:1014E000655D7F4F0E941404F0927B02E0927A02C5
:1014F000E0917C02F0917D02F182E082D7011196A9
:101500001C921E921396FC93EE931297B0927F0258
:10151000A0927E02E0917C02F0917D028080918019
:101520002B969FAE8EAE2B97CE018B960E944A04CF
:101530002B96EEADFFAD2B970480F581E02D068054
:10154000F781E02D0995CE01CF960E944A042FCF56
:1015500086E090E00E94950E7C01BE01655D7F4FA4
:101560000E941404E0917C02F0917D0280819181BF
:10157000D70111969C938E931396FC93EE9312973A
:10158000A081B1811396FC92EE921297F182E082D3
:1015900080917E0290917F02019690937F028093CA
:1015A0007E02B8CF8090810290908202E480F58024
:1015B000B701CE0183960E940204F70186819781CC
:1015C0009AA789A7BE016D5D7F4FCE01C996F40130
:1015D0000995E0908102F0908202BE01655D7F4F27
:1015E000CE0101960E94020489A99AA998878F8347
:1015F000BE016F5F7F4FC801F7010995BE01675CAF
:101600007F4FC8010E94F1024C01C8010E944A04A8
:10161000CE0101960E944A04CE01C9960E944A0456
:10162000CE0183960E944A042896EEACFFAC289720
:1016300097FE2BC086E090E00E94950E4C01BE0103
:10164000655D7F4F0E941404D7018D919C91119785
:10165000F40191838083F382E282892B89F4909252
:101660007B0280927A02F7019182808280917E02D1
:1016700090917F02019690937F0280937E0250CFDB
:10168000ED91FC9193828282EECF470149CF41E0F8
:101690008330910509F0ADCE2091B7013091B801AA
:1016A0002E30310584F060E08DE00E94C30160E0DF
:1016B0008CE00E94C3010E942A01882309F404CE11
:1016C0000E940605F5CDB9016F5F7F4F7093B80199
:1016D0006093B70127553E4FD9018C93442359F3AA
:1016E0006E30710509F08FC0412C512C3201F12C64
:1016F000E12C62E070E0C70186559E4F0E940E0605
:101700004626572668267926B2E0EB0EF11CEAE061
:10171000EE16F10471F762E070E084EB91E00E9454
:101720000E06461657066806790609F068C068E096
:1017300070E08CEA91E00E940E061CA61BA61EA675
:101740001DA618AA1FA62AE0AE014F5F5F4F0E9498
:10175000A00DBE016F5F7F4FCE018B960E94E1030B
:101760002FB7F8946091A5017091A6018091A7010F
:101770009091A8012FBF1CA21BA21EA21DA218A6F9
:101780001FA22AE0AE014F5F5F4F0E94AF0DBE0166
:101790006F5F7F4FCE0183960E94E10365E571E0A4
:1017A000CE0101960E943904BE016D5D7F4FCE01CE
:1017B00001960E94AD036DE571E00E949703BE01A2
:1017C000655D7F4F0E94AD036DE371E00E9497035A
:1017D000BC01C8010E940204C8010E94BB04C801E8
:1017E0000E944A04CE0101960E944A04CE018396CB
:1017F0000E944A04CE018B960E944A0454CF60E0B6
:1018000070E0CB019ACF1092B8011092B70153CF7C
:10181000CF93DF938CE191E090935B0280935A0227
:101820008091BB019091BC018A55924071F4E09186
:101830006D02F0916E02908180916F0280958923F4
:1018400080831092BC011092BB0184E992E00E9457
:101850004A048EE892E00E944A0488E892E00E94DE
:101860004A04E0917A02F0917B0280917E0290918D
:101870007F02892B71F10280F381E02DF0937B02CE
:10188000E0937A020190F081E02DC481D581209708
:1018900031F0CE010E944A04CE010E94310FE09146
:1018A0007A02F0917B0280819181009711F00E9471
:1018B000310FE0917A02F0917B02118210828091C7
:1018C0007E0290917F02019790937F0280937E0227
:1018D000C8CFC481D581209731F0CE010E944A043F
:1018E000CE010E94310F80917A0290917B02009785
:1018F00021F0DF91CF910C94310FDF91CF910895BA
:10190000B0E0A0E0E6E8FCE00C94220E5C016B0184
:101910007A016115710519F0FB0191838083E1144F
:10192000F10451F0C7010297839730F040E030E0B6
:1019300020E090E072C05E01E5012196F501108182
:10194000812F90E00E94970D892BA9F71D3201F598
:101950002196F501118101E0E114F10409F4DAC0E6
:10196000F0E1EF16F10409F082C0103359F48881D8
:101970008F7D883509F076C0198122960260F0E1EA
:10198000EF2EF12C812C912CA12C88E0B82E8CC04C
:101990001B3221F4E5012296F501118100E0DCCF34
:1019A000EAE0EE16F10409F4BBC0F0E1EF16F10431
:1019B00009F06DC0E7CF78E0E72EF12C812C912C57
:1019C000A12C60E1B62E70C03FE9310F3A3128F406
:1019D00039EA332E80C021E09AC0302F3170C11413
:1019E000D10431F0222309F12197F601D183C0837C
:1019F00027FF21C060E070E080E090E8311104C072
:101A00006FEF7FEF8FEF9FE722E230E03093A1028C
:101A10002093A002462F372F282F642F732F822F59
:101A2000CDB7DEB7E1E10C943E0E01FF04C0229772
:101A3000F601D183C083332341F090958095709552
:101A400061957F4F8F4F9F4FE5CF97FFE3CF82E2A6
:101A500090E09093A1028093A0026FEF7FEF8FEF51
:101A60009FE7D8CF10E3E114F10409F4A4CF28E0F4
:101A7000E216F10409F4A2CF0CF092CF812C912C44
:101A8000A12CE0E4BE2E82E0E816F10469F060E0EB
:101A900070E080E090E897010F2C000C440B550B90
:101AA0000E94F40D49015A0120E060E070E0CB0192
:101AB00027010F2C000C66087708FE0150ED352E2B
:101AC000310E39E0331540F43FEB310F3A3108F075
:101AD0007BCF49EC342E310E3E141F040CF07DCF29
:101AE00027FD15C086169706A806B90678F0A3014B
:101AF00092010E94E40D630D711D811D911D6130E5
:101B00007105810520E8920708F465CF2FEF219633
:101B10001081D3CF103309F42ACF2AE0E22EF12C22
:101B20009CEC892E982CA82C9CE0B92EBDCF91114D
:101B30000C94D10D803219F089508550C8F7089562
:101B4000BB272A3051F4992342F4BDE29095809549
:101B5000709561957F4F8F4F9F4F0C94B00DBB27B1
:101B6000FA01A62F6217710581059105330B30FB31
:101B700066F0AA27660F771F881F991FAA1FA21752
:101B800010F0A21B63953850A9F7A05DAA3308F0A6
:101B9000A95DA19336F7B111B1931082CA010C94DB
:101BA000D40D992788270895DC01FC01672F7191D6
:101BB0007723E1F7329704C07C916D937083629133
:101BC000AE17BF07C8F30895DB018F939F930E9460
:101BD000160EBF91AF91A29F800D911DA39F900DF6
:101BE000B29F900D11240895A1E21A2EAA1BBB1BCF
:101BF000FD010DC0AA1FBB1FEE1FFF1FA217B307D9
:101C0000E407F50720F0A21BB30BE40BF50B661FEE
:101C1000771F881F991F1A9469F7609570958095B2
:101C200090959B01AC01BD01CF0108950E94580E13
:101C3000A59F900DB49F900DA49F800D911D112420
:101C400008952F923F924F925F926F927F928F9260
:101C50009F92AF92BF92CF92DF92EF92FF920F933B
:101C60001F93CF93DF93CDB7DEB7CA1BDB0B0FB645
:101C7000F894DEBF0FBECDBF09942A883988488802
:101C80005F846E847D848C849B84AA84B984C88498
:101C9000DF80EE80FD800C811B81AA81B981CE0F8F
:101CA000D11D0FB6F894DEBF0FBECDBFED01089574
:101CB000A29FB001B39FC001A39F700D811D11248D
:101CC000911DB29F700D811D1124911D089597FBE8
:101CD000072E16F4009407D077FD09D00E947B0EE2
:101CE00007FC05D03EF4909581959F4F089570951F
:101CF00061957F4F0895AA1BBB1B51E107C0AA1F26
:101D0000BB1FA617B70710F0A61BB70B881F991F9C
:101D10005A95A9F780959095BC01CD010895EE0FD5
:101D2000FF1F0590F491E02D09940F931F93CF931B
:101D3000DF938230910510F482E090E0E091A402FC
:101D4000F091A50230E020E0B0E0A0E0309799F4F7
:101D50002115310509F44AC0281B390B24303105FF
:101D6000D8F58A819B816115710589F1FB01938307
:101D70008283FE0111C04081518102811381481785
:101D80005907E0F04817590799F4109761F0129637
:101D90000C93129713961C933296CF01DF91CF913B
:101DA0001F910F9108950093A4021093A502F4CF00
:101DB0002115310551F04217530738F0A901DB0115
:101DC0009A01BD01DF01F801C1CFEF01F9CF909376
:101DD000A5028093A402CDCFFE01E20FF31F8193F1
:101DE00091932250310939832883D7CF2091A202C1
:101DF0003091A302232B41F4209102013091030181
:101E00003093A3022093A20220910001309101019E
:101E10002115310541F42DB73EB740910401509191
:101E20000501241B350BE091A202F091A302E217F9
:101E3000F307A0F42E1B3F0B2817390778F0AC01ED
:101E40004E5F5F4F2417350748F04E0F5F1F5093CA
:101E5000A3024093A202819391939FCFF0E0E0E030
:101E60009CCFCF93DF930097E9F0FC013297138268
:101E70001282A091A402B091A502ED0130E020E011
:101E80001097A1F420813181820F931F2091A2022B
:101E90003091A3022817390709F061C0F093A3021B
:101EA000E093A202DF91CF910895EA01CE17DF07F8
:101EB000E8F54A815B819E0141155105B1F7E901C1
:101EC000FB83EA8349915991C40FD51FEC17FD0795
:101ED00061F4808191810296840F951FE9019983B5
:101EE0008883828193819B838A83F0E0E0E012966D
:101EF0008D919C9113970097B9F52D913C91119775
:101F0000CD010296820F931F2091A2023091A3026D
:101F10002817390739F6309751F51092A50210921B
:101F2000A402B093A302A093A202BCCFD383C28326
:101F300040815181840F951FC817D90761F44E5F06
:101F40005F4F88819981480F591F518340838A814F
:101F50009B81938382832115310509F0B0CFF093E3
:101F6000A502E093A4029ECFFD01DC01C0CF138245
:101F70001282D7CFB0E0A0E0E0ECFFE00C94230E9B
:101F80008C01009751F4CB010E94950E8C01C80181
:101F9000CDB7DEB7E0E10C943F0EFC01E60FF71F72
:101FA0009C0122503109E217F30708F49DC0D901C2
:101FB000CD91DC911197C617D70798F0C530D105A0
:101FC00030F3CE0104978617970708F3C61BD70B8B
:101FD0002297C193D1936D937C93CF010E94310FCF
:101FE000D6CF5B01AC1ABD0A4C018C0E9D1EA09190
:101FF000A402B091A502512C412CF12CE12C109798
:1020000031F58091A2029091A3028815990509F0FB
:102010005CC04616570608F058C0809100019091A8
:102020000101009741F48DB79EB740910401509192
:102030000501841B950BE817F90708F055C0F093CC
:10204000A302E093A202F90171836083A0CF8D9176
:102050009C91119712966C90129713967C901397FF
:10206000A815B90559F56C0142E0C40ED11CCA147B
:10207000DB0420F1AC014A195B09DA0112961597CD
:1020800080F06282738251834083D9016D937C9387
:10209000E114F10471F0D7011396FC93EE931297BB
:1020A00076CF22968C0F9D1FF90191838083F301D7
:1020B000EFCFF093A502E093A40269CF481659062A
:1020C00008F42C017D01D3019ACFCB010E94950E1B
:1020D0007C01009749F0AE01B8010E947710C80159
:1020E0000E94310F870153CF10E000E050CFFB0179
:1020F000DC0102C001900D9241505040D8F7089584
:10210000FB01DC018D91019080190110D9F3990B2D
:102110000895FB01DC0101900D920020E1F7089584
:10212000AEE0B0E0E6E9F0E10C942F0E0D891E89D7
:102130008F89988D26E02C831A83098397FF02C02C
:1021400080E090E801979E838D83AE01455E5F4FEE
:10215000698D7A8DCE0101960E94C0104D815E81FD
:1021600057FD0AC02F813885421753070CF49A0196
:10217000020F131FF80110822E96E4E00C944B0E10
:10218000ABE0B0E0E6ECF0E10C94210E7C013B0109
:102190008A01FC0117821682838181FFC8C1CE01AA
:1021A00001965C01F7019381F30193FD859193FF03
:1021B00081913F01882309F453C1853239F493FD9D
:1021C000859193FF81913F01853229F4B70190E019
:1021D0000E94B012E7CF912C212C312CFFE1F31596
:1021E00038F08B3211F190F4803209F1833229F109
:1021F00037FC3CC020ED280F2A3050F536FE20C0B9
:102200008AE0989E200D1124922E06C08D3291F006
:10221000803371F7689430F8F30193FD859193FF53
:1022200081913F018111DACF21C0689431F868941F
:1022300032F8F2CF689433F8EFCF689434F8ECCFEB
:10224000EAE02E9E200D1124222E689435F8E4CF6A
:102250008E3229F436FC04C1689436F8DDCF8C3612
:1022600019F4689437F8D8CF8836B1F2982F9F7D4B
:1022700095549330E0F08336A1F18337C1F1833573
:1022800009F063C02801F2E04F0E511CF801C08034
:10229000D180692D70E036FC02C06FEF7FEFC60180
:1022A0000E949A124C01689437F882010AC00C5FB0
:1022B0001F4FFFE3F98388248394912C6501E894F0
:1022C00037F833FE2DC0522C8114910471F555203E
:1022D00009F468CFB70180E290E00E94B0125A94EE
:1022E000F6CFF801808189830E5F1F4FE4CF28016C
:1022F000F2E04F0E511CF801C080D180692D70E0D2
:1023000036FC02C06FEF7FEFC6010E94A5124C01A0
:102310008201D5CFB70180E290E00E94B0122A94EA
:102320002814190409F0B0F7CECFF60137FC8591D7
:1023300037FE81916F01B70190E00E94B0125110F9
:102340005A94F1E08F1A9108BFCF843619F089367C
:1023500009F077C0F80137FE6BC06081718182811E
:1023600093810C5F1F4FF32DFF763F2E97FF09C01F
:1023700090958095709561957F4F8F4F9F4F689492
:1023800037F82AE030E0A5010E94E012C82ECA18F2
:102390008C2C432C36FE0CC0E89440F8C91440F451
:1023A00034FE05C032FC03C0F32DFE7E4F2E892C77
:1023B00044FE95C0FE01EC0DF11D8081803309F0D3
:1023C00087C0242D297E422E842D8870582E43FCF0
:1023D00095C040FE8FC09C2C821418F42C0C922CBB
:1023E000981844FE91C0B70180E390E00E94B012BB
:1023F00042FE09C088E790E041FE02C088E590E017
:10240000B7010E94B012C91408F48AC0CA94D12C32
:102410009FEFC91AD90ACA0CDB1CF60182916F0121
:10242000B70190E00E94B012AC14BD04B1F74FCFD9
:1024300060817181072E000C880B990B0E5F1F4F76
:1024400092CFD32CE894D4F82AE030E0853739F1E4
:10245000232D297FD22E8F3601F148F48835A9F03B
:10246000F701868197812B96E2E10C943D0E80372F
:1024700049F08837A9F7D4FE02C06894D2F820E169
:1024800030E00DC06894D4F8F6CF34FE03C0822F3C
:102490008660D82E20E132E002C028E030E0F8016A
:1024A000D7FE0FC060817181828193810C5F1F4FC5
:1024B000A5010E94E012C82ECA183D2CE89437F8F6
:1024C00067CF6081718190E080E00E5F1F4FF0CF99
:1024D00042FC02C0839478CF8394839475CF842D7B
:1024E000867809F471CFF6CFB70180E290E00E94C0
:1024F000B01283948214C0F3512C73CF522C58180D
:10250000821408F46ECFF8CF842D867809F47BCF3F
:102510008BE241FE80E247FC8DE2B70190E071CF93
:10252000B70180E390E00E94B0129A946CCF8FEFD5
:102530009FEF99CFFC010590615070400110D8F7D2
:10254000809590958E0F9F1F0895FC0161507040FB
:1025500001900110D8F7809590958E0F9F1F0895D8
:102560000F931F93CF93DF93182F092FEB018B81CC
:1025700081FD09C01FEF0FEF812F902FDF91CF91C9
:102580001F910F91089582FF14C02E813F818C818D
:102590009D81281739073CF4E881F981CF01019624
:1025A0009983888310838E819F8101969F838E8378
:1025B000E3CFE885F985812F0995892BA1F3DACF3F
:1025C000FA01AA27283051F1203181F1E8946F9364
:1025D0006E7F6E5F7F4F8F4F9F4FAF4FB1E03ED00A
:1025E000B4E03CD0670F781F891F9A1FA11D680FA8
:1025F000791F8A1F911DA11D6A0F711D811D911DDB
:10260000A11D20D009F468943F912AE0269F11244F
:102610003019305D3193DEF6CF010895462F4770B3
:10262000405D4193B3E00FD0C9F7F6CF462F4F700E
:10263000405D4A3318F0495D31FD4052419302D06C
:10264000A9F7EACFB4E0A695979587957795679512
:10265000BA95C9F700976105710508959B01AC0112
:102660000A2E06945795479537952795BA95C9F739
:10267000620F731F841F951FA01D089510E0C2E60E
:10268000D0E004C0FE010E948F0E2196C336D10710
:06269000C9F7F894FFCF2A
:102696000000A6028000000000005601C000ED0008
:1026A600A3011E01FC001001000000005902C00039
:1026B600EE025802B502CD0240023B00646576691F
:1026C600636528726669645265616465722900678C
:1026D60065745065726365707473002530325800F6
:1026E60066666665006E657754616728002C000093
:00000001FF
