:100000000C9464000C948C000C948C000C948C0068
:100010000C948C000C948C000C948C000C94700844
:100020000C948C000C948C000C948C000C948C0020
:100030000C948C000C948C000C948C000C948C0010
:100040000C9424090C948C000C94F2080C94CC08A9
:100050000C948C000C948C000C948C000C948C00F0
:100060000C948C000C948C000000000024002700ED
:100070002A000000000023002600290000000008DC
:10008000000201000003040700000000000000005F
:10009000010204081020408001020408102001021F
:1000A0000408102000000000250028002B00040494
:1000B0000404040404040202020202020303030310
:1000C000030302006E09150C11241FBECFEFD8E008
:1000D000DEBFCDBF11E0A0E0B1E0E0E6F6E202C095
:1000E00005900D92A636B107D9F722E0A6E6B1E059
:1000F00001C01D92A335B207E1F710E0C3E6D0E0DE
:1001000004C02197FE010E94740EC236D107C9F7C0
:100110000E94C7090C9423130C94000080E4809380
:100120007C0080917A00806480937A0080917A00CC
:1001300086FDFCCF8091780090917900089581E050
:1001400090E090937401809373010895AF92BF92F1
:10015000CF92DF92EF92FF920F931F93CF93DF9393
:100160006C017B018B01040F151FEB015E01AE18C2
:10017000BF08C017D10759F06991D601ED91FC91E4
:100180000190F081E02DC6010995892B79F7C50111
:10019000DF91CF911F910F91FF90EF90DF90CF9063
:1001A000BF90AF900895FC01538D448D252F30E012
:1001B000842F90E0821B930B541710F0CF96089574
:1001C00001970895FC01918D828D981761F0A28DA1
:1001D000AE0FBF2FB11D5D968C91928D9F5F9F7367
:1001E000928F90E008958FEF9FEF0895FC01918D1D
:1001F000828D981731F0828DE80FF11D858D90E08A
:1002000008958FEF9FEF0895FC01918D228D892F26
:1002100090E0805C9F4F821B91098F73992708950E
:1002200089E891E00E94040121E0892B09F420E093
:10023000822F0895FC01A48DA80FB92FB11DA35AD8
:10024000BF4F2C91848D90E001968F739927848FF6
:10025000A689B7892C93A089B1898C918370806419
:100260008C93938D848D981306C00288F389E02DBA
:1002700080818F7D80830895EF92FF920F931F936B
:10028000CF93DF93EC0181E0888F9B8D8C8D981349
:100290001AC0E889F989808185FF15C09FB7F89455
:1002A000EE89FF896083E889F989808183708064A1
:1002B00080839FBF81E090E0DF91CF911F910F91EC
:1002C000FF90EF900895F62E0B8D10E00F5F1F4FFB
:1002D0000F731127E02E8C8D8E110CC00FB607FC0A
:1002E000FACFE889F989808185FFF5CFCE010E9498
:1002F0001A01F1CFEB8DEC0FFD2FF11DE35AFF4FEB
:10030000F0829FB7F8940B8FEA89FB898081806225
:10031000CFCFCF93DF93EC01888D8823B9F0AA89E2
:10032000BB89E889F9898C9185FD03C0808186FDB0
:100330000DC00FB607FCF7CF8C9185FFF2CF8081FF
:1003400085FFEDCFCE010E941A01E9CFDF91CF9159
:100350000895833081F028F4813099F08230A9F03B
:1003600008958730A9F08830C9F08430B1F48091C5
:1003700080008F7D03C0809180008F778093800004
:10038000089584B58F7784BD089584B58F7DFBCFA4
:100390008091B0008F778093B00008958091B00075
:1003A0008F7DF9CFCF93DF939091000189130BC01C
:1003B000E2ECF0E0E4919FEF90930001E13059F11D
:1003C00038F1E23071F1282F30E0F901E458FF4FA5
:1003D0008491F901E057FF4FD491F901E255FF4FA5
:1003E000C491CC2391F081110E94A901EC2FF0E07F
:1003F000EE0FFF1FEC55FF4FA591B4918FB7F89406
:10040000EC91D095DE23DC938FBFDF91CF910895DF
:1004100010926E00D8CF90916F009D7F90936F00E7
:10042000D2CF909170009D7F9093700091E0909357
:10043000B0009091B100987F94609093B1001092B9
:10044000B300C1CF10927401109273018BE00C9431
:10045000D201CF93DF9390E0FC01E057FF4F24914E
:1004600082559F4FFC0184918823D1F090E0880F42
:10047000991FFC01E859FF4FA591B491FC01EC557F
:10048000FF4FC591D49161110EC09FB7F8948C9124
:10049000E22FE0958E238C932881E223E8839FBF8F
:1004A000DF91CF9108958FB7F894EC91E22BEC9304
:1004B0008FBFF6CFCF92DF92EF92FF920F931F93F1
:1004C000CF938C01809100018B3051F08F3FC1F1AF
:1004D000CF911F910F91FF90EF90DF90CF900895F3
:1004E000E2ECF0E0C491C7FDF3CF61E08BE00E9445
:1004F0002902C1113BC0980150E040E068E478EE69
:1005000081E090E00E94FC0DBA01A901415051091F
:100510006109710985B5887F836085BD47BD8FEF0F
:100520009FEFDC018093850190938601A093870162
:10053000B093880180916E00826080936E00C8CF76
:100540008BE080930001E2ECF0E0C491CF3F09F42E
:10055000BFCFC13009F44EC0A0F1C23009F468C069
:10056000C7FDB6CF61E08BE00E942902980150E000
:1005700040E0C23009F07EC060E970ED83E090E0B9
:100580000E94FC0DBA01A90141505109610971098C
:100590008091B100887F83608093B1004093B30065
:1005A0008FEF9FEFDC0180937D0190937E01A093FC
:1005B0007F01B09380018091700082608093700011
:1005C00087CF14BC15BC84B5826084BD85B58160BD
:1005D00085BDE9EBF0E0E491F0E0EE0FFF1FEC5594
:1005E000FF4F85919491EBE9F0E0E491E0937C0179
:1005F000C0E07BCF1092800010928100809181003A
:100600008860809381008091810081608093810067
:10061000E9EBF0E0E491F0E0EE0FFF1FEC55FF4F47
:1006200085919491EBE9F0E0E491E0937B015DCF5B
:100630001092B0001092B1008091B000826080935F
:10064000B0008091B10081608093B100E9EBF0E0EF
:10065000E491F0E0EE0FFF1FEC55FF4F8591949170
:1006600090937A0180937901EBE9F0E0E491E093D3
:1006700078013BCF60E072E18AE790E00E94FC0DD8
:1006800069017A0181E0C81AD108E108F108A601E0
:10069000C130D9F480918100887F8160809381008E
:1006A000D0928900C09288008FEF9FEFDC01809389
:1006B000810190938201A0938301B0938401809182
:1006C0006F00826080936F0003CFC23009F466CF61
:1006D000C111FECE23CF3FB7F89480916B0190916A
:1006E0006C01A0916D01B0916E0126B5A89B05C06B
:1006F0002F3F19F00196A11DB11D3FBFBA2FA92FA1
:10070000982F8827BC01CD01620F711D811D911D9D
:1007100042E0660F771F881F991F4A95D1F7089509
:100720002FB7F89460916701709168018091690119
:1007300090916A012FBF08958F929F92AF92BF92BE
:10074000CF92DF92EF92FF92CF93DF9382E090E01F
:100750009093740180937301C8EED3E0CE010E94A0
:100760005A020E946B034B015C018AE0C82ED12C17
:10077000E12CF12C0E946B03681979098A099B0905
:10078000683E734081059105A8F321E0C21AD108A3
:10079000E108F10888EE880E83E0981EA11CB11CC8
:1007A000C114D104E104F10429F7E296C23088E0D3
:1007B000D807A1F68BE0DF91CF91FF90EF90DF900B
:1007C000CF90BF90AF909F908F900C94D201CF9319
:1007D000DF93EC01A881B981EB01E881F9811097E1
:1007E000F1F03097B1F4EC018C819D81892BC9F037
:1007F0008C9190E00BC0DB0114968D919C91892B1C
:1008000081F0808190E0919581959109DF91CF9160
:100810000895BF01CD01DF91CF910C946510309701
:1008200051F790E080E0F2CF0F931F93CF93DF93C7
:10083000EC0188819981009759F02A813B81261724
:10084000370730F081E0DF91CF911F910F9108952C
:100850008B016F5F7F4F0E949F0F009759F0998324
:1008600088831B830A832C813D81232B59F7FC014C
:100870001082E8CF80E0E7CFEF92FF920F931F93B3
:10088000CF93DF936115710541F480E0DF91CF9143
:100890001F910F91FF90EF90089541155105B1F010
:1008A0007B01EC010C811D81040F151FB8010E9412
:1008B0001404882351F3288139818C819D81B701EB
:1008C000820F931F0E946E101D830C8381E0DECF88
:1008D000CF93DF9300D0CDB7DEB769831A8241E0B2
:1008E00050E0BE016F5F7F4F0E943C040F900F905D
:1008F000DF91CF910895CF93DF93EC0188819981A7
:10090000009711F00E94160F198218821D821C8216
:100910001B821A82DF91CF910895CF93DF93EC0170
:10092000FB0144815581608171810E943C048111E9
:1009300003C0CE010E947B04CE01DF91CF910895C8
:10094000EF92FF920F931F93CF93DF93EC017B0104
:100950008A01BA010E94140481110BC0CE010E94C9
:100960007B04CE01DF91CF911F910F91FF90EF900B
:1009700008951D830C83B701888199810E946E10B0
:10098000F0CFFB0101900020E9F73197AF01461B42
:10099000570B0C94A004CF93DF93EC01FB01861757
:1009A000970749F0608171816115710541F04481BB
:1009B00055810E94A004CE01DF91CF9108950E943D
:1009C0007B04F9CFFC0111821082138212821582FE
:1009D00014820C94CB04CF93DF93EC010E94E204C9
:1009E000CE01DF91CF910895EF92FF920F931F9365
:1009F000CF93DF93EC017B01198218821B821A824C
:100A00001D821C8288E090E00E947A0E8C01B70162
:100A10000E94E204F70186819781F801978386831B
:100A20001D830C83DF91CF911F910F91FF90EF9069
:100A30000895FC01118210821382128215821482A1
:100A4000FB0101900020E9F73197AF01461B570BDE
:100A50000C94A004FC0180819181009711F00C940A
:100A6000160F0895AF92BF92CF92DF92EF92FF924E
:100A70000F931F93CF93DF93CDB7DEB72E970FB6AB
:100A8000F894DEBF0FBECDBF8C016B0180912702B1
:100A900090912802D80112969C938E931197D801B9
:100AA0001196ED91FC918091290290912A028E1766
:100AB0009F0779F1A0902E02B0902F02E480F5807C
:100AC000B701CE0101960E94E204F7018681978169
:100AD00098878F83BE016F5F7F4FCE010996F50126
:100AE0000995B601CE0109960E94E7037C01CE016B
:100AF00009960E942A05CE0101960E942A05F7FE5A
:100B000008C0D8011196ED91FC91129782819381D2
:100B1000C2CFC8012E960FB6F894DEBF0FBECDBF70
:100B2000DF91CF911F910F91FF90EF90DF90CF90C9
:100B3000BF90AF900895EF92FF920F931F93CF93C2
:100B4000DF93CDB7DEB7AA970FB6F894DEBF0FBE1E
:100B5000CDBF7C018B01CE0188960E943205E9A5AC
:100B6000FAA5D70113968D919C91E817F90739F0F2
:100B700064817581C8010E94E70397FF6BC0B801CB
:100B8000CE0141960E94E204188E1F8A00912E0227
:100B900010912F02BE016F5E7F4FCE0101960E9421
:100BA000E2048F89988D98878F83BE016F5F7F4F96
:100BB000CE010996F8010995BE01675F7F4FCE010E
:100BC00085960E943205CE0109960E942A05CE0123
:100BD00001960E942A05EEA1FFA180912902909121
:100BE0002A028E179F0709F06DC080912B02909109
:100BF0002C02892B09F040C086E090E00E947A0E1A
:100C00008C01BE016F5E7F4F0E94F4041093280296
:100C100000932702E0912902F0912A0211830083B8
:100C2000D80111961C921E921396FC93EE93129784
:100C300081E090E090932C0280932B02E0912902B6
:100C4000F0912A02008111811AA709A7CE014196CD
:100C50000E942A05E9A5FAA5848195810696AA969F
:100C60000FB6F894DEBF0FBECDBFDF91CF911F91BD
:100C70000F91FF90EF90089586E090E00E947A0E29
:100C80008C01BE016F5E7F4F0E94F404E091290247
:100C9000F0912A0280819181D80111969C938E93C4
:100CA0001396FC93EE931297A081B18113961C9337
:100CB0000E9312971183008380912B0290912C0246
:100CC0000196B8CFE0902E02F0902F02048115819A
:100CD000B801CE0109960E94E204F801868197814D
:100CE000988B8F87BE01675F7F4FCE014F96F701CC
:100CF000099500912E0210912F02BE016F5E7F4F69
:100D0000CE0101960E94E2048F89988D98878F8387
:100D1000BE016F5F7F4FCE014996F8010995BE0174
:100D2000615E7F4FCE0149960E94E7038C01CE01A0
:100D300049960E942A05CE0101960E942A05CE01FD
:100D40004F960E942A05CE0109960E942A05EEA020
:100D5000FFA017FF2BC086E090E00E947A0E8C0166
:100D6000BE016F5E7F4F0E94F404D7018D919C916C
:100D70001197F80191838083F382E282892B89F4B1
:100D80001093280200932702F701118300838091BA
:100D90002B0290912C02019690932C0280932B02AF
:100DA00053CFED91FC9113830283EECF87014CCF9B
:100DB0000F931F93CF93DF9300D000D000D0CDB717
:100DC000DEB78C0161E472E0CE0101960E94E2047C
:100DD000B801CE0101960E948D048C0141E050E0E3
:100DE00069E171E00E943C04811103C0C8010E94C6
:100DF0007B04B80181E492E00E94CB04CE0101960D
:100E00000E942A0526960FB6F894DEBF0FBECDBF0E
:100E1000DF91CF911F910F9108950F931F93CF935F
:100E2000DF93CDB7DEB76E970FB6F894DEBF0FBE77
:100E3000CDBF80917501909176011C8A1B8A1E8A14
:100E40001D8A188E1F8A4AE0BE016F5F7F4F0E9485
:100E5000920DBE016F5F7F4FCE0143960E94C10489
:100E60006BE171E0CE0101960E941905BE016D5E35
:100E70007F4FCE0101960E948D048C0141E050E02D
:100E800062E371E00E943C04811103C0C8010E942A
:100E90007B04B801CE0149960E94E204CE01499636
:100EA0000E94D806CE0149960E942A05CE010196DD
:100EB0000E942A05CE0143960E942A05809177015F
:100EC000882381F065E271E0CE0101960E94190548
:100ED000CE0101960E94D806CE0101960E942A05F5
:100EE000109277016E960FB6F894DEBF0FBECDBF9D
:100EF000DF91CF911F910F910895CF92DF92EF92E2
:100F0000FF92CF93C1E089E891E00E940401892B10
:100F100009F4DAC08091300290913102892B09F0F6
:100F200047C00E94900360934702709348028093E9
:100F3000490290934A0264E271E085E392E00E94E4
:100F4000C10489E891E00E94E200682F809130029C
:100F5000909131029C012F5F3F4F309331022093DB
:100F600030028330910508F0A9C041E0663609F4EB
:100F700040E02430310511F4653619F4442309F4B6
:100F80004EC0109231021092300210923302109231
:100F9000320264E271E085E392E00E94C10464E2FF
:100FA00071E08BE392E00E94C10410923402ABCF57
:100FB000C0904702D0904802E0904902F0904A0267
:100FC0008CE2C80E81E0D81EE11CF11C0E94900347
:100FD000C616D706E806F90608F0B3CF64E271E05A
:100FE0008BE392E00E94C104109231021092300211
:100FF000109233021092320264E271E085E392E0D3
:101000000E94C104109234020E9490036093470230
:10101000709348028093490290934A0292CF0497BA
:10102000029720F5109234028BE392E00E9468044C
:101030008091300290913102069709F064CF40E12F
:1010400050E070E060E080913B0290913C020E9491
:10105000720C6A5F7F4F709333026093320264E2D6
:1010600071E08BE392E00E94C1044DCF273031053F
:1010700008F449CF80913202909133022817390742
:1010800038F41092340285E392E00E9468043BCF6A
:101090009093310280933002892B09F434CF85E399
:1010A00092E00E9468041092310210923002109275
:1010B000330210923202C093340225CF243031051E
:1010C00009F0ADCF40E058CFCF91FF90EF90DF9087
:1010D000CF9008950E94100181110C947D0708950E
:1010E0001F920F920FB60F9211242F933F934F939D
:1010F0005F936F937F938F939F93AF93BF93EF9380
:10110000FF9380917D0190917E01A0917F01B0912C
:101110008001892B8A2B8B2BD1F190917801E09162
:101120007901F0917A0180818927808380917D0106
:1011300090917E01A0917F01B0918001181619064F
:101140001A061B069CF480917D0190917E01A0916E
:101150007F01B09180010197A109B10980937D01C0
:1011600090937E01A0937F01B0938001FF91EF9156
:10117000BF91AF919F918F917F916F915F914F91AF
:101180003F912F910F900FBE0F901F901895809157
:1011900000010E94D201EACF1F920F920FB60F9268
:1011A00011242F933F934F935F936F937F938F936C
:1011B0009F93AF93BF93EF93FF9389E891E00E94D1
:1011C0001A01FF91EF91BF91AF919F918F917F9104
:1011D0006F915F914F913F912F910F900FBE0F90A4
:1011E0001F9018951F920F920FB60F9211242F93F4
:1011F0008F939F93EF93FF93E0919901F0919A0160
:101200008081E0919F01F091A00182FD1BC090813F
:101210008091A2018F5F8F732091A301821741F00B
:10122000E091A201F0E0E757FE4F958F8093A20175
:10123000FF91EF919F918F912F910F900FBE0F9083
:101240001F9018958081F4CF1F920F920FB60F92C6
:1012500011242F933F938F939F93AF93BF938091CC
:10126000670190916801A0916901B0916A01309184
:10127000660123E0230F2D3758F50196A11DB11DFE
:10128000209366018093670190936801A0936901A0
:10129000B0936A0180916B0190916C01A0916D01F6
:1012A000B0916E010196A11DB11D80936B019093C9
:1012B0006C01A0936D01B0936E01BF91AF919F91AE
:1012C0008F913F912F910F900FBE0F901F90189507
:1012D00026E8230F0296A11DB11DD2CFCF93DF9335
:1012E000E9E8F1E01382128288EE93E0A0E0B0E03A
:1012F00084839583A683B7838BE091E09183808379
:1013000085EC90E09587848784EC90E097878687CA
:1013100080EC90E0918B808B81EC90E0938B828BC2
:1013200082EC90E0958B848B86EC90E0978B868B9B
:10133000118E128E138E148EC6E2D2E01E821D8292
:1013400086E090E00E947A0EFC01118210821382E6
:101350001282158214829A8389839C838B838BEEFD
:1013600094E09987888764E271E085E392E00E94C7
:10137000190564E271E08BE392E00E94190564E2D2
:1013800071E081E492E0DF91CF910C941905CF9345
:10139000DF93CDB7DEB765970FB6F894DEBF0FBE0B
:1013A000CDBF789484B5826084BD84B5816084BDEE
:1013B00085B5826085BD85B5816085BD80916E00F3
:1013C000816080936E001092810080918100826024
:1013D0008093810080918100816080938100809161
:1013E00080008160809380008091B1008460809350
:1013F000B1008091B00081608093B00080917A004C
:10140000846080937A0080917A00826080937A0071
:1014100080917A00816080937A0080917A00806860
:1014200080937A001092C10060E083E00E9429025C
:1014300060E08EE00E94290261E08BE00E942902B8
:1014400064E371E0CE0101960E941905BE016F5F51
:101450007F4F86E292E00E949B052FE930E0DC019D
:101460002D933C93CE0101960E942A056BE371E017
:10147000CE0101960E941905BE016F5F7F4F86E283
:1014800092E00E949B052CE933E0FC01318320832C
:10149000CE0101960E942A0564E471E0CE01019616
:1014A0000E941905BE016F5F7F4F86E292E00E94A5
:1014B0009B0522E232E0DC012D933C93CE010196A4
:1014C0000E942A058DE097E090934C0280934B0296
:1014D0006FEF70E085E392E00E94140464E271E033
:1014E0008BE392E00E94C10464E271E085E392E044
:1014F0000E94C10464E271E081E492E00E94C104B0
:101500001092340210923302109232021092310281
:101510001092300210924702109248021092490233
:1015200010924A02E0919901F0919A0182E0808341
:10153000E0919501F09196011082E0919701F09170
:1015400098018FEC80831092A101E0919D01F091B0
:101550009E0186E08083E0919B01F0919C01808157
:1015600080618083E0919B01F0919C018081886083
:101570008083E0919B01F0919C0180818068808351
:10158000E0919B01F0919C0180818F7D80833FE6FB
:10159000432E32E0532E612C712C7E01B3E1EB0E11
:1015A000F11CAA24A394B12C88248A94982C9FE738
:1015B000292E90E0392E2BE5C22E21E0D22E8091EB
:1015C000730190917401009709F080C00E9422027B
:1015D0000E948E00803991400CF4D1C00E948E0090
:1015E000811594400CF0CEC00E948E009C01990F92
:1015F000440B550B2059314041095109ACE9BFEF6B
:101600000E94290EA30192010E94FC0D2C593F4F0C
:101610004F4F5F4F3093760120937501F101849114
:10162000E3E9F0E00491E1EBF0E01491112389F09B
:1016300081110E94A901E12FF0E0EE0FFF1FEE588B
:10164000FF4FA591B4918C91082319F0F1E0F0932C
:1016500077018091340210923402882379F165E396
:1016600072E0CE0101960E94E2048D819E81892B59
:1016700049F06FE471E089819A810E94651011E060
:10168000892B09F010E0CE0101960E942A05111164
:101690007CC065E372E0CE0101960E94E204BE01C7
:1016A0006F5F7F4F86E292E00E949B05DC01ED9127
:1016B000FC910995CE0101960E942A050E94100115
:1016C000882309F47CCF0E947D0771CF813091057A
:1016D00039F50E94900300916F01109170012091E3
:1016E000710130917201601B710B820B930B693E8B
:1016F00073408105910508F46BCF0E9490036093BD
:101700006F0170937001809371019093720188EE64
:1017100093E00E945A02909274018092730158CF14
:101720008F3F980731F50E94900300916F0110914F
:1017300070012091710130917201601B710B820B5D
:10174000930B6B3F71058105910508F441CF8BE048
:101750000E94D2010E94900360936F017093700108
:101760008093710190937201B0927401A092730101
:101770002FCF029709F02CCF0E949C0329CF80E93C
:1017800091E034CF8FEF93E031CFE0914B02F091B5
:101790004C02099561E472E0CE010D960E94E204CC
:1017A0008A898F9389898F93DF92CF921F9283E0EA
:1017B0008F93FF92EF920E947510B701CE010796AA
:1017C0000E94190560E671E0CE0101960E9419059C
:1017D000BE01695F7F4FCE0101960E948D04BE015C
:1017E000635F7F4F0E948D04FC01448155816081BD
:1017F000718189E891E00E94A600CE0101960E94C5
:101800002A05CE0107960E942A05CE010D960E9458
:101810002A0564E271E081E492E00E94C1040FB6FF
:10182000F894DEBF0FBECDBF49CFCF93DF9381E4E5
:1018300092E00E942A058BE392E00E942A0585E34C
:1018400092E00E942A05E0912702F09128028091FF
:101850002B0290912C02892B71F10280F381E02DF3
:10186000F0932802E09327020190F081E02DC481DB
:10187000D581209731F0CE010E942A05CE010E9429
:10188000160FE0912702F091280280819181009744
:1018900011F00E94160FE0912702F09128021182A8
:1018A000108280912B0290912C02019790932C0230
:1018B00080932B02C8CFC481D581209731F0CE010F
:1018C0000E942A05CE010E94160F80912702909156
:1018D0002802009721F0DF91CF910C94160FDF9131
:1018E000CF910895B0E0A0E0E8E7FCE00C942F0E63
:1018F0005C016B017A016115710519F0FB0191839F
:101900008083E114F10451F0C7010297839730F00E
:1019100040E030E020E090E072C05E01E5012196F9
:10192000F5011081812F90E00E94890D892BA9F784
:101930001D3201F52196F501118101E0E114F10458
:1019400009F4DAC0F0E1EF16F10409F082C01033B7
:1019500059F488818F7D883509F076C019812296E7
:101960000260F0E1EF2EF12C812C912CA12C88E06B
:10197000B82E8CC01B3221F4E5012296F5011181AD
:1019800000E0DCCFEAE0EE16F10409F4BBC0F0E1C0
:10199000EF16F10409F06DC0E7CF78E0E72EF12CE7
:1019A000812C912CA12C60E1B62E70C03FE9310F43
:1019B0003A3128F439EA332E80C021E09AC0302F22
:1019C0003170C114D10431F0222309F12197F601BD
:1019D000D183C08327FF21C060E070E080E090E801
:1019E000311104C06FEF7FEF8FEF9FE722E230E00D
:1019F00030934E0220934D02462F372F282F642F0D
:101A0000732F822FCDB7DEB7E1E10C944B0E01FFAF
:101A100004C02297F601D183C083332341F090950F
:101A20008095709561957F4F8F4F9F4FE5CF97FFC2
:101A3000E3CF82E290E090934E0280934D026FEFED
:101A40007FEF8FEF9FE7D8CF10E3E114F10409F4A3
:101A5000A4CF28E0E216F10409F4A2CF0CF092CF53
:101A6000812C912CA12CE0E4BE2E82E0E816F1043A
:101A700069F060E070E080E090E897010F2C000CC6
:101A8000440B550B0E94DA0D49015A0120E060E039
:101A900070E0CB0127010F2C000C66087708FE01CF
:101AA00050ED352E310E39E0331540F43FEB310F58
:101AB0003A3108F07BCF49EC342E310E3E141F042E
:101AC0000CF07DCF27FD15C086169706A806B9062F
:101AD00078F0A30192010E94CA0D630D711D811D52
:101AE000911D61307105810520E8920708F465CFEA
:101AF0002FEF21961081D3CF103309F42ACF2AE09B
:101B0000E22EF12C9CEC892E982CA82C9CE0B92E6E
:101B1000BDCF91110C94B70D803219F089508550CA
:101B2000C8F70895BB274A3031F4992322F4BDE267
:101B3000909581959F4F0C949E0DBB27FB015527D7
:101B4000AA27880F991FAA1FA41710F0A41B83951A
:101B50005051B9F7A05DAA3308F0A95DA193009791
:101B600079F7B111B1931192CB010C94BA0D992769
:101B700088270895DC01FC01672F71917723E1F735
:101B8000329704C07C916D9370836291AE17BF074A
:101B9000C8F30895DB018F939F930E941B0EBF91A2
:101BA000AF91A29F800D911DA39F900DB29F900DAC
:101BB00011240895A1E21A2EAA1BBB1BFD010DC022
:101BC000AA1FBB1FEE1FFF1FA217B307E407F507ED
:101BD00020F0A21BB30BE40BF50B661F771F881FC9
:101BE000991F1A9469F760957095809590959B015F
:101BF000AC01BD01CF010895052E97FB1EF40094A2
:101C00000E94130E57FD07D00E94DA0D07FC03D087
:101C10004EF40C94130E50954095309521953F4FFE
:101C20004F4F5F4F089590958095709561957F4FC8
:101C30008F4F9F4F08950E94650EA59F900DB49FF2
:101C4000900DA49F800D911D11240895B7FF0C9451
:101C50001B0E0E941B0E821B930B08952F923F9226
:101C60004F925F926F927F928F929F92AF92BF92AC
:101C7000CF92DF92EF92FF920F931F93CF93DF9358
:101C8000CDB7DEB7CA1BDB0B0FB6F894DEBF0FBEB5
:101C9000CDBF09942A88398848885F846E847D8402
:101CA0008C849B84AA84B984C884DF80EE80FD8004
:101CB0000C811B81AA81B981CE0FD11D0FB6F8947A
:101CC000DEBF0FBECDBFED010895A29FB001B39F4F
:101CD000C001A39F700D811D1124911DB29F700D35
:101CE000811D1124911D0895EE0FFF1F0590F491A1
:101CF000E02D09940F931F93CF93DF9382309105CA
:101D000010F482E090E0E0915102F091520230E054
:101D100020E0B0E0A0E0309799F42115310509F4F6
:101D20004AC0281B390B24303105D8F58A819B81A4
:101D30006115710589F1FB0193838283FE0111C056
:101D4000408151810281138148175907E0F04817FB
:101D5000590799F4109761F012960C931297139605
:101D60001C933296CF01DF91CF911F910F9108956F
:101D70000093510210935202F4CF2115310551F016
:101D80004217530738F0A901DB019A01BD01DF01B9
:101D9000F801C1CFEF01F9CF909352028093510225
:101DA000CDCFFE01E20FF31F8193919322503109B1
:101DB00039832883D7CF20914F0230915002232BB3
:101DC00041F420910301309104013093500220939B
:101DD0004F0220910101309102012115310541F49A
:101DE0002DB73EB74091050150910601241B350BDC
:101DF000E0914F02F0915002E217F307A0F42E1B7E
:101E00003F0B2817390778F0AC014E5F5F4F24175E
:101E1000350748F04E0F5F1F5093500240934F021A
:101E2000819391939FCFF0E0E0E09CCFCF93DF933D
:101E30000097E9F0FC01329713821282A0915102BF
:101E4000B0915202ED0130E020E01097A1F4208122
:101E50003181820F931F20914F0230915002281739
:101E6000390709F061C0F0935002E0934F02DF910F
:101E7000CF910895EA01CE17DF07E8F54A815B812B
:101E80009E0141155105B1F7E901FB83EA834991B0
:101E90005991C40FD51FEC17FD0761F48081918122
:101EA0000296840F951FE90199838883828193812B
:101EB0009B838A83F0E0E0E012968D919C911397CA
:101EC0000097B9F52D913C911197CD010296820FA3
:101ED000931F20914F02309150022817390739F68D
:101EE000309751F51092520210925102B093500265
:101EF000A0934F02BCCFD383C28340815181840F12
:101F0000951FC817D90761F44E5F5F4F888199818B
:101F1000480F591F518340838A819B819383828319
:101F20002115310509F0B0CFF0935202E093510230
:101F30009ECFFD01DC01C0CF13821282D7CFB0E06B
:101F4000A0E0E5EAFFE00C94300E8C01009751F41C
:101F5000CB010E947A0E8C01C801CDB7DEB7E0E15B
:101F60000C944C0EFC01E60FF71F9C012250310926
:101F7000E217F30708F49DC0D901CD91DC911197C8
:101F8000C617D70798F0C530D10530F3CE010497B6
:101F90008617970708F3C61BD70B2297C193D193D7
:101FA0006D937C93CF010E94160FD6CF5B01AC1AC4
:101FB000BD0A4C018C0E9D1EA0915102B09152029F
:101FC000512C412CF12CE12C109731F580914F02CE
:101FD000909150028815990509F05CC04616570685
:101FE00008F058C08091010190910201009741F4DE
:101FF0008DB79EB74091050150910601841B950B4A
:10200000E817F90708F055C0F0935002E0934F022B
:10201000F90171836083A0CF8D919C9111971296E5
:102020006C90129713967C901397A815B90559F5E3
:102030006C0142E0C40ED11CCA14DB0420F1AC01D7
:102040004A195B09DA011296159780F06282738251
:1020500051834083D9016D937C93E114F10471F0B5
:10206000D7011396FC93EE93129776CF22968C0F9E
:102070009D1FF90191838083F301EFCFF09352020A
:10208000E093510269CF4816590608F42C017D01EE
:10209000D3019ACFCB010E947A0E7C01009749F0C0
:1020A000AE01B8010E945C10C8010E94160F8701A2
:1020B00053CF10E000E050CFFB01DC0102C00190E3
:1020C0000D9241505040D8F70895FB01DC018D91ED
:1020D000019080190110D9F3990B0895FB01DC01DF
:1020E00001900D920020E1F70895AEE0B0E0EBE73B
:1020F000F0E10C943C0E0D891E898F89988D26E0A5
:102100002C831A83098397FF02C080E090E801972F
:102110009E838D83AE01455E5F4F698D7A8DCE01C2
:1021200001960E94A5104D815E8157FD0AC02F8146
:102130003885421753070CF49A01020F131FF80158
:1021400010822E96E4E00C94580EABE0B0E0EBEA7F
:10215000F0E10C942E0E7C013B018A01FC011782F8
:102160001682838181FFC8C1CE0101965C01F7010F
:102170009381F30193FD859193FF81913F01882322
:1021800009F453C1853239F493FD859193FF819110
:102190003F01853229F4B70190E00E949512E7CF04
:1021A000912C212C312CFFE1F31538F08B3211F1F9
:1021B00090F4803209F1833229F137FC3CC020EDE4
:1021C000280F2A3050F536FE20C08AE0989E200D58
:1021D0001124922E06C08D3291F0803371F76894ED
:1021E00030F8F30193FD859193FF81913F018111B7
:1021F000DACF21C0689431F8689432F8F2CF68944D
:1022000033F8EFCF689434F8ECCFEAE02E9E200D3F
:102210001124222E689435F8E4CF8E3229F436FC4E
:1022200004C1689436F8DDCF8C3619F4689437F819
:10223000D8CF8836B1F2982F9F7D95549330E0F037
:102240008336A1F18337C1F1833509F063C02801DA
:10225000F2E04F0E511CF801C080D180692D70E072
:1022600036FC02C06FEF7FEFC6010E947F124C0167
:10227000689437F882010AC00C5F1F4FFFE3F983AF
:1022800088248394912C6501E89437F833FE2DC09F
:10229000522C8114910471F5552009F468CFB701CF
:1022A00080E290E00E9495125A94F6CFF801808166
:1022B00089830E5F1F4FE4CF2801F2E04F0E511CBF
:1022C000F801C080D180692D70E036FC02C06FEF4C
:1022D0007FEFC6010E948A124C018201D5CFB7015F
:1022E00080E290E00E9495122A942814190409F0C3
:1022F000B0F7CECFF60137FC859137FE81916F01A3
:10230000B70190E00E94951251105A94F1E08F1A93
:102310009108BFCF843619F0893609F077C0F801EB
:1023200037FE6BC060817181828193810C5F1F4F8A
:10233000F32DFF763F2E97FF09C0909580957095FD
:1023400061957F4F8F4F9F4F689437F82AE030E0B8
:10235000A5010E94C512C82ECA188C2C432C36FE2B
:102360000CC0E89440F8C91440F434FE05C032FCB7
:1023700003C0F32DFE7E4F2E892C44FE95C0FE0136
:10238000EC0DF11D8081803309F087C0242D297E5A
:10239000422E842D8870582E43FC95C040FE8FC07D
:1023A0009C2C821418F42C0C922C981844FE91C08A
:1023B000B70180E390E00E94951242FE09C088E7D1
:1023C00090E041FE02C088E590E0B7010E949512BE
:1023D000C91408F48AC0CA94D12C9FEFC91AD90A2B
:1023E000CA0CDB1CF60182916F01B70190E00E94DC
:1023F0009512AC14BD04B1F74FCF60817181072EE7
:10240000000C880B990B0E5F1F4F92CFD32CE894D2
:10241000D4F82AE030E0853739F1232D297FD22EF8
:102420008F3601F148F48835A9F0F701868197814C
:102430002B96E2E10C944A0E803749F08837A9F7D1
:10244000D4FE02C06894D2F820E130E00DC0689458
:10245000D4F8F6CF34FE03C0822F8660D82E20E158
:1024600032E002C028E030E0F801D7FE0FC0608102
:102470007181828193810C5F1F4FA5010E94C5125B
:10248000C82ECA183D2CE89437F867CF6081718157
:1024900090E080E00E5F1F4FF0CF42FC02C08394BB
:1024A00078CF8394839475CF842D867809F471CF87
:1024B000F6CFB70180E290E00E94951283948214D7
:1024C000C0F3512C73CF522C5818821408F46ECFDD
:1024D000F8CF842D867809F47BCF8BE241FE80E231
:1024E00047FC8DE2B70190E071CFB70180E390E047
:1024F0000E9495129A946CCF8FEF9FEF99CFFC01B9
:102500000590615070400110D8F7809590958E0F1E
:102510009F1F0895FC016150704001900110D8F791
:10252000809590958E0F9F1F08950F931F93CF93C3
:10253000DF93182F092FEB018B8181FD09C01FEF5D
:102540000FEF812F902FDF91CF911F910F91089561
:1025500082FF14C02E813F818C819D81281739070D
:102560003CF4E881F981CF01019699838883108337
:102570008E819F8101969F838E83E3CFE885F985C5
:10258000812F0995892BA1F3DACFFA01AA272830E8
:1025900051F1203181F1E8946F936E7F6E5F7F4F30
:1025A0008F4F9F4FAF4FB1E03ED0B4E03CD0670FAC
:1025B000781F891F9A1FA11D680F791F8A1F911DFF
:1025C000A11D6A0F711D811D911DA11D20D009F44F
:1025D00068943F912AE0269F11243019305D319391
:1025E000DEF6CF010895462F4770405D4193B3E07A
:1025F0000FD0C9F7F6CF462F4F70405D4A3318F021
:10260000495D31FD4052419302D0A9F7EACFB4E0D1
:10261000A6959795879577956795BA95C9F7009789
:102620006105710508959B01AC010A2E069457952A
:10263000479537952795BA95C9F7620F731F841F81
:10264000951FA01D089510E0C3E6D0E004C0FE0170
:102650000E94740E2196C436D107C9F7F894FFCFB3
:10266000FF000053028000000000003C01A600D3E0
:102670000089010401E200F6003B006D6F6973748C
:1026800075726528006D6F76656D656E742874725D
:102690007565290064616E676572006372697469AB
:1026A00063616C0064656163746976617465006779
:1026B000657450657263657074730025303258001C
:0626C0006666666500007D
:00000001FF
