:100000000C9454000C947C000C947C000C947C00A8
:100010000C947C000C947C000C947C000C947C0070
:100020000C947C000C947C000C947C000C947C0060
:100030000C947C000C947C000C947C000C947C0050
:100040000C9440050C947C000C940E050C94E80470
:100050000C947C000C947C000C947C000C947C0030
:100060000C947C000C947C0000000000250028000B
:100070002B0000000000240027002A0004040404D0
:100080000404040402020202020203030303030342
:10009000010204081020408001020408102001021F
:1000A000040810208A05700811241FBECFEFD8E085
:1000B000DEBFCDBF22E0A8E5B1E001C01D92AB32AA
:1000C000B207E1F711E0A0E0B1E0E8ECFEE102C028
:1000D00005900D92A835B107D9F710E0C3E5D0E03F
:1000E00004C02197FE010E94A80AC235D107C9F7B2
:1000F0000E94E3050C94570F0C940000AF92BF923E
:10010000CF92DF92EF92FF920F931F93CF93DF93E3
:100110006C017B018B01040F151FEB015E01AE1812
:10012000BF08C017D10759F06991D601ED91FC9134
:100130000190F081E02DC6010995892B79F7C50161
:10014000DF91CF911F910F91FF90EF90DF90CF90B3
:10015000BF90AF900895FC01538D448D252F30E062
:10016000842F90E0821B930B541710F0CF960895C4
:1001700001970895FC01918D828D981761F0A28DF1
:10018000AE0FBF2FB11D5D968C91928D9F5F9F73B7
:10019000928F90E008958FEF9FEF0895FC01918D6D
:1001A000828D981731F0828DE80FF11D858D90E0DA
:1001B00008958FEF9FEF0895FC01918D228D892F77
:1001C00090E0805C9F4F821B91098F73992708955F
:1001D00081E691E00E94DC0021E0892B09F420E017
:1001E000822F0895FC01A48DA80FB92FB11DA35A29
:1001F000BF4F2C91848D90E001968F739927848F47
:10020000A689B7892C93A089B1898C918370806469
:100210008C93938D848D981306C00288F389E02D0A
:1002200080818F7D80830895EF92FF920F931F93BB
:10023000CF93DF93EC0181E0888F9B8D8C8D981399
:100240001AC0E889F989808185FF15C09FB7F894A5
:10025000EE89FF896083E889F989808183708064F1
:1002600080839FBF81E090E0DF91CF911F910F913C
:10027000FF90EF900895F62E0B8D10E00F5F1F4F4B
:100280000F731127E02E8C8D8E110CC00FB607FC5A
:10029000FACFE889F989808185FFF5CFCE010E94E8
:1002A000F200F1CFEB8DEC0FFD2FF11DE35AFF4F64
:1002B000F0829FB7F8940B8FEA89FB898081806276
:1002C000CFCFCF93DF93EC01888D8823B9F0AA8933
:1002D000BB89E889F9898C9185FD03C0808186FD01
:1002E0000DC00FB607FCF7CF8C9185FFF2CF808150
:1002F00085FFEDCFCE010E94F200E9CFDF91CF91D3
:100300000895CF93DF93EC01A881B981EB01E881D7
:10031000F9811097F1F03097B1F4EC018C819D8157
:10032000892BC9F08C9190E00BC0DB0114968D9164
:100330009C91892B81F0808190E091958195910924
:10034000DF91CF910895BF01CD01DF91CF910C9442
:10035000990C309751F790E080E0F2CF0F931F9304
:10036000CF93DF93EC0188819981009759F02A811E
:100370003B812617370730F081E0DF91CF911F9145
:100380000F9108958B016F5F7F4F0E94D30B0097F1
:1003900059F0998388831B830A832C813D81232B09
:1003A00059F7FC011082E8CF80E0E7CFEF92FF928F
:1003B0000F931F93CF93DF936115710541F480E094
:1003C000DF91CF911F910F91FF90EF90089541150C
:1003D0005105B1F07B01EC010C811D81040F151F4B
:1003E000B8010E94AE01882351F3288139818C81A4
:1003F0009D81B701820F931F0E94A20C1D830C8365
:1004000081E0DECFCF93DF9300D0CDB7DEB7698335
:100410001A8241E050E0BE016F5F7F4F0E94D6011B
:100420000F900F90DF91CF910895CF93DF93EC0160
:1004300088819981009711F00E944A0B19821882D5
:100440001D821C821B821A82DF91CF910895CF9367
:10045000DF93EC01FB0144815581608171810E9431
:10046000D601811103C0CE010E941502CE01DF9199
:10047000CF910895EF92FF920F931F93CF93DF9345
:10048000EC017B018A01BA010E94AE0181110BC00F
:10049000CE010E941502CE01DF91CF911F910F91E5
:1004A000FF90EF9008951D830C83B7018881998197
:1004B0000E94A20CF0CFFB0101900020E9F73197D8
:1004C000AF01461B570B0C943A02CF93DF93EC011C
:1004D000FB018617970749F06081718161157105ED
:1004E00041F0448155810E943A02CE01DF91CF91C3
:1004F00008950E941502F9CFFC0111821082138227
:100500001282158214820C946502CF93DF93EC0162
:100510000E947C02CE01DF91CF910895EF92FF926D
:100520000F931F93CF93DF93EC017B011982188205
:100530001B821A821D821C8288E090E00E94AE0A13
:100540008C01B7010E947C02F70186819781F80136
:10055000978386831D830C83DF91CF911F910F9129
:10056000FF90EF900895FC01118210821382128295
:1005700015821482FB0101900020E9F73197AF0149
:10058000461B570B0C943A02FC0180819181009725
:1005900011F00C944A0B0895AF92BF92CF92DF9264
:1005A000EF92FF920F931F93CF93DF93CDB7DEB7F8
:1005B0002E970FB6F894DEBF0FBECDBF8C016B0136
:1005C0008091FF0190910002D80112969C938E9326
:1005D0001197D8011196ED91FC91809101029091B3
:1005E00002028E179F0779F1A0900602B0900702D1
:1005F000E480F580B701CE0101960E947C02F701EC
:100600008681978198878F83BE016F5F7F4FCE0170
:100610000996F5010995B601CE0109960E9481015E
:100620007C01CE0109960E94C402CE0101960E946F
:10063000C402F7FE08C0D8011196ED91FC91129703
:1006400082819381C2CFC8012E960FB6F894DEBF87
:100650000FBECDBFDF91CF911F910F91FF90EF9013
:10066000DF90CF90BF90AF9008950F931F93CF93DB
:10067000DF9300D000D000D0CDB7DEB78C0169E1A8
:1006800072E0CE0101960E947C02B801CE01019673
:100690000E9427028C0141E050E068E171E00E9475
:1006A000D601811103C0C8010E941502B80189E179
:1006B00092E00E946502CE0101960E94C402269635
:1006C0000FB6F894DEBF0FBECDBFDF91CF911F9163
:1006D0000F9108950F931F93CF93DF93CDB7DEB79C
:1006E0006E970FB6F894DEBF0FBECDBF6AE171E022
:1006F000CE0101960E94B302CE0101960E943503FD
:10070000CE0101960E94C40280E480937C00809117
:100710007A00806480937A0080917A0086FDFCCF15
:1007200080917800909179001C8A1B8A1E8A1D8A0C
:10073000188E1F8A4AE0BE016F5F7F4F0E94ED094D
:10074000BE016F5F7F4FCE0143960E945B0265E35F
:1007500071E0CE0101960E94B302BE016D5E7F4F33
:10076000CE0101960E9427028C0141E050E063E334
:1007700071E00E94D601811103C0C8010E941502D8
:10078000B801CE0149960E947C02CE0149960E9492
:100790003503CE0149960E94C402CE0101960E9403
:1007A000C402CE0143960E94C4026E960FB6F8941E
:1007B000DEBF0FBECDBFDF91CF911F910F91089586
:1007C000CF93C1E081E691E00E94DC00892B09F41F
:1007D000F7C08091080290910902892B09F054C05A
:1007E0002FB7F89480915D0190915E01A0915F0117
:1007F000B09160012FBF80931F0290932002A093BD
:100800002102B093220261E471E08DE092E00E9447
:100810005B0281E691E00E94BA00682F8091080295
:10082000909109029C012F5F3F4F30930902209362
:1008300008028330910508F0BDC051E0663609F426
:1008400050E02430310519F441E0653609F440E008
:10085000511103C0442309F45EC0109209021092A2
:10086000080210920B0210920A0261E471E08DE01E
:1008700092E00E945B0261E471E083E192E00E94F9
:100880005B0210920C029ECF80911F029091200279
:10089000A0912102B0912202845D9E4FAF4FBF4FC5
:1008A0002FB7F89440915D0150915E0160915F0116
:1008B000709160012FBF84179507A607B70708F04E
:1008C000A8CF61E471E083E192E00E945B021092A4
:1008D00009021092080210920B0210920A0261E4BF
:1008E00071E08DE092E00E945B0210920C022FB743
:1008F000F89480915D0190915E01A0915F01B091AB
:1009000060012FBF80931F0290932002A0932102C9
:10091000B09322027ECF0497029720F510920C022A
:1009200083E192E00E940202809108029091090204
:10093000069709F047CF40E150E070E060E0809119
:100940001302909114020E94CD086A5F7F4F70934A
:100950000B0260930A0261E471E083E192E00E947D
:100960005B0230CF2730310508F42CCF80910A028A
:1009700090910B022817390738F410920C028DE081
:1009800092E00E9402021ECF909309028093080217
:10099000892B09F417CF8DE092E00E940202109299
:1009A00009021092080210920B0210920A02C093E0
:1009B0000C0208CF2430310509F0ADCF50E044CF10
:1009C000CF9108950E94E80081110C94E0030895EE
:1009D0001F920F920FB60F9211242F933F934F93B4
:1009E0005F936F937F938F939F93AF93BF93EF9397
:1009F000FF9381E691E00E94F200FF91EF91BF9199
:100A0000AF919F918F917F916F915F914F913F91A6
:100A10002F910F900FBE0F901F9018951F920F925D
:100A20000FB60F9211242F938F939F93EF93FF9301
:100A3000E0917101F09172018081E0917701F09174
:100A4000780182FD1BC0908180917A018F5F8F7346
:100A500020917B01821741F0E0917A01F0E0EF599B
:100A6000FE4F958F80937A01FF91EF919F918F9127
:100A70002F910F900FBE0F901F9018958081F4CF8B
:100A80001F920F920FB60F9211242F933F938F93C3
:100A90009F93AF93BF9380915D0190915E01A09170
:100AA0005F01B091600130915C0123E0230F2D378D
:100AB00058F50196A11DB11D20935C0180935D0145
:100AC00090935E01A0935F01B09360018091580103
:100AD00090915901A0915A01B0915B010196A11D1D
:100AE000B11D8093580190935901A0935A01B0937E
:100AF0005B01BF91AF919F918F913F912F910F908B
:100B00000FBE0F901F90189526E8230F0296A11D87
:100B1000B11DD2CFCF93DF93E1E6F1E013821282D1
:100B200088EE93E0A0E0B0E084839583A683B7834A
:100B30008AE091E09183808385EC90E095878487BB
:100B400084EC90E09787868780EC90E0918B808B97
:100B500081EC90E0938B828B82EC90E0958B848B80
:100B600086EC90E0978B868B118E128E138E148EEE
:100B7000CEEFD1E01E821D8286E090E00E94AE0A98
:100B8000FC011182108213821282158214829A83D0
:100B900089839C838B8385E892E09987888761E4C9
:100BA00071E08DE092E00E94B30261E471E083E1C4
:100BB00092E00E94B30261E471E089E192E0DF918A
:100BC000CF910C94B302CF93DF93CDB7DEB7E0970C
:100BD0000FB6F894DEBF0FBECDBF789484B58260A7
:100BE00084BD84B5816084BD85B5826085BD85B5D1
:100BF000816085BD80916E00816080936E0010924F
:100C000081008091810082608093810080918100C9
:100C1000816080938100809180008160809380005A
:100C20008091B10084608093B1008091B0008160B8
:100C30008093B00080917A00846080937A008091E4
:100C40007A00826080937A0080917A00816080933C
:100C50007A0080917A00806880937A001092C100B7
:100C6000EEE9F0E02491EAE8F0E084918823C9F00D
:100C700090E0880F991FFC01EE58FF4F4591549169
:100C8000FC01E859FF4FA591B4919FB7F894FA0180
:100C900080812095822380838C91E22FE823EC933E
:100CA0009FBF8AE693E090932402809323026FEF24
:100CB00070E08DE092E00E94AE0161E471E083E1BA
:100CC00092E00E945B0261E471E08DE092E00E949C
:100CD0005B0261E471E089E192E00E945B021092A4
:100CE0000C0210920B0210920A021092090210924A
:100CF000080210921F0210922002109221021092FC
:100D00002202E0917101F091720182E08083E09112
:100D10006D01F0916E011082E0916F01F091700110
:100D20008FEC808310927901E0917501F09176014A
:100D300086E08083E0917301F0917401808180618D
:100D40008083E0917301F0917401808188608083D9
:100D5000E0917301F0917401808180688083E0915B
:100D60007301F091740180818F7D80838E01075E15
:100D70001F4FAA24A394B12C9EE4C92E91E0D92E32
:100D800023E0722E80910C0210920C02882309F449
:100D90006CC06DE072E0CE0101960E947C028D81F4
:100DA0009E81892B51F062E471E089819A810E94D1
:100DB000990CFF24F394892B09F0F12CCE010196B4
:100DC0000E94C402FF2009F458C0E0912302F09170
:100DD0002402099569E172E0CE0141960E947C02ED
:100DE0008E898F938D898F93DF92CF921F927F92FE
:100DF0001F930F930E94A90CB801CE0109960E947F
:100E0000B30263E571E0CE0101960E94B302BE0118
:100E1000675F7F4FCE0101960E942702BE016F5E81
:100E20007F4F0E942702DC0114964D915C9115972B
:100E30006D917C9181E691E00E947E00CE01019649
:100E40000E94C402CE0109960E94C402CE014196BE
:100E50000E94C40261E471E089E192E00E945B02B9
:100E60000FB6F894DEBF0FBECDBF0E94E800882306
:100E700009F488CF0E94E00379CF6DE072E0CE01E3
:100E800085960E947C02BE016B5D7F4FCE018E96DF
:100E90000E94CC02EFA5F8A9809101029091020274
:100EA0008E179F0741F064817581CE0185960E945F
:100EB000810197FF6AC0BE016B5D7F4FCE014196F5
:100EC0000E947C02188E1F8AE0900602F0900702B2
:100ED000BE016F5E7F4FCE0101960E947C028F891A
:100EE000988D98878F83BE016F5F7F4FCE010996E3
:100EF000F7010995BE01675F7F4FCE018B960E9477
:100F0000CC02CE0109960E94C402CE0101960E9435
:100F1000C402ECA5FDA580910102909102028E17FA
:100F20009F0709F06AC08091030290910402892B07
:100F3000D1F586E090E00E94AE0A7C01BE016F5EB2
:100F40007F4F0E948E02F0920002E092FF01E0913A
:100F50000102F0910202F182E082D70111961C9207
:100F60001E921396FC93EE931297B0920402A092F5
:100F70000302E0910102F09102028080918098AA20
:100F80008FA6CE0141960E94C402EFA5F8A9048065
:100F9000F581E02D0680F781E02D0995CE0185963B
:100FA0000E94C40262CF86E090E00E94AE0A7C01FB
:100FB000BE016F5E7F4F0E948E02E0910102F091B0
:100FC000020280819181D70111969C938E93139692
:100FD000FC93EE931297A081B1811396FC92EE924E
:100FE0001297F182E08280910302909104020196AF
:100FF0009093040280930302BCCF809006029090ED
:101000000702E480F580B701CE0109960E947C02B8
:10101000F70186819781988B8F87BE01675F7F4F2D
:10102000CE014F96F4010995E0900602F090070278
:10103000BE016F5E7F4FCE0101960E947C028F89B8
:10104000988D98878F83BE016F5F7F4FC801F7012E
:101050000995BE01615E7F4FC8010E9481014C016C
:10106000C8010E94C402CE0101960E94C402CE01B2
:101070004F960E94C402CE0109960E94C402ECA4BD
:10108000FDA497FE2BC086E090E00E94AE0A4C01C2
:10109000BE016F5E7F4F0E948E02D7018D919C91A1
:1010A0001197F40191838083F382E282892B89F482
:1010B000909200028092FF01F701918280828091DC
:1010C000030290910402019690930402809303021C
:1010D00056CFED91FC9193828282EECF47014FCFA4
:1010E000CF93DF9389E192E00E94C40283E192E012
:1010F0000E94C4028DE092E00E94C402E091FF01D0
:10110000F09100028091030290910402892B71F109
:101110000280F381E02DF0930002E093FF01019043
:10112000F081E02DC481D581209731F0CE010E945D
:10113000C402CE010E944A0BE091FF01F09100022F
:1011400080819181009711F00E944A0BE091FF018C
:10115000F0910002118210828091030290910402AA
:1011600001979093040280930302C8CFC481D58174
:10117000209731F0CE010E94C402CE010E944A0B9A
:101180008091FF0190910002009721F0DF91CF91B3
:101190000C944A0BDF91CF910895B0E0A0E0E3ED0D
:1011A000F8E00C94630A5C016B017A01611571052A
:1011B00019F0FB0191838083E114F10451F0C70120
:1011C0000297839730F040E030E020E090E072C07A
:1011D0005E01E5012196F5011081812F90E00E94CA
:1011E000E409892BA9F71D3201F52196F50111813A
:1011F00001E0E114F10409F4DAC0F0E1EF16F104C2
:1012000009F082C0103359F488818F7D883509F048
:1012100076C0198122960260F0E1EF2EF12C812C2C
:10122000912CA12C88E0B82E8CC01B3221F4E50152
:101230002296F501118100E0DCCFEAE0EE16F10420
:1012400009F4BBC0F0E1EF16F10409F06DC0E7CF7F
:1012500078E0E72EF12C812C912CA12C60E1B62EA8
:1012600070C03FE9310F3A3128F439EA332E80C09B
:1012700021E09AC0302F3170C114D10431F0222303
:1012800009F12197F601D183C08327FF21C060E0D7
:1012900070E080E090E8311104C06FEF7FEF8FEFD6
:1012A0009FE722E230E03093260220932502462F6A
:1012B000372F282F642F732F822FCDB7DEB7E1E1B0
:1012C0000C947F0A01FF04C02297F601D183C083EA
:1012D000332341F090958095709561957F4F8F4FA6
:1012E0009F4FE5CF97FFE3CF82E290E090932602F5
:1012F000809325026FEF7FEF8FEF9FE7D8CF10E34A
:10130000E114F10409F4A4CF28E0E216F10409F491
:10131000A2CF0CF092CF812C912CA12CE0E4BE2E18
:1013200082E0E816F10469F060E070E080E090E8A7
:1013300097010F2C000C440B550B0E94350A4901F4
:101340005A0120E060E070E0CB0127010F2C000C77
:1013500066087708FE0150ED352E310E39E0331561
:1013600040F43FEB310F3A3108F07BCF49EC342E9B
:10137000310E3E141F040CF07DCF27FD15C08616DC
:101380009706A806B90678F0A30192010E94250AE3
:10139000630D711D811D911D61307105810520E86E
:1013A000920708F465CF2FEF21961081D3CF103329
:1013B00009F42ACF2AE0E22EF12C9CEC892E982CFD
:1013C000A82C9CE0B92EBDCF91110C94120A80324A
:1013D00019F089508550C8F70895BB274A3031F479
:1013E000992322F4BDE2909581959F4F0C94F909C1
:1013F000BB27FB015527AA27880F991FAA1FA417EF
:1014000010F0A41B83955051B9F7A05DAA3308F0E2
:10141000A95DA193009779F7B111B1931192CB0116
:101420000C94150A992788270895DC01FC01672F81
:1014300071917723E1F7329704C07C916D937083AB
:101440006291AE17BF07C8F30895DB018F939F9396
:101450000E94570ABF91AF91A29F800D911DA39F3B
:10146000900DB29F900D11240895A1E21A2EAA1B8F
:10147000BB1BFD010DC0AA1FBB1FEE1FFF1FA21744
:10148000B307E407F50720F0A21BB30BE40BF50B41
:10149000661F771F881F991F1A9469F760957095CA
:1014A000809590959B01AC01BD01CF0108950E94EC
:1014B000990AA59F900DB49F900DA49F800D911D3A
:1014C000112408952F923F924F925F926F927F92D4
:1014D0008F929F92AF92BF92CF92DF92EF92FF9244
:1014E0000F931F93CF93DF93CDB7DEB7CA1BDB0BF0
:1014F0000FB6F894DEBF0FBECDBF09942A88398895
:1015000048885F846E847D848C849B84AA84B9849B
:10151000C884DF80EE80FD800C811B81AA81B981A7
:10152000CE0FD11D0FB6F894DEBF0FBECDBFED01BB
:101530000895A29FB001B39FC001A39F700D811DAC
:101540001124911DB29F700D811D1124911D0895CC
:10155000EE0FFF1F0590F491E02D09940F931F9358
:10156000CF93DF938230910510F482E090E0E09118
:101570002902F0912A0230E020E0B0E0A0E03097AC
:1015800099F42115310509F44AC0281B390B243080
:101590003105D8F58A819B816115710589F1FB01BF
:1015A00093838283FE0111C04081518102811381A6
:1015B00048175907E0F04817590799F4109761F058
:1015C00012960C93129713961C933296CF01DF91CB
:1015D000CF911F910F9108950093290210932A0231
:1015E000F4CF2115310551F04217530738F0A90106
:1015F000DB019A01BD01DF01F801C1CFEF01F9CF95
:1016000090932A0280932902CDCFFE01E20FF31FAF
:10161000819391932250310939832883D7CF209128
:10162000270230912802232B41F4209102013091AE
:10163000030130932802209327022091000130916A
:1016400001012115310541F42DB73EB74091040148
:1016500050910501241B350BE0912702F0912802DF
:10166000E217F307A0F42E1B3F0B2817390778F079
:10167000AC014E5F5F4F2417350748F04E0F5F1FD8
:101680005093280240932702819391939FCFF0E0DB
:10169000E0E09CCFCF93DF930097E9F0FC01329715
:1016A00013821282A0912902B0912A02ED0130E04A
:1016B00020E01097A1F420813181820F931F2091A7
:1016C0002702309128022817390709F061C0F093EA
:1016D0002802E0932702DF91CF910895EA01CE1707
:1016E000DF07E8F54A815B819E0141155105B1F79D
:1016F000E901FB83EA8349915991C40FD51FEC1787
:10170000FD0761F4808191810296840F951FE901A4
:1017100099838883828193819B838A83F0E0E0E0D0
:1017200012968D919C9113970097B9F52D913C914C
:101730001197CD010296820F931F209127023091BD
:1017400028022817390739F6309751F510922A02E6
:1017500010922902B0932802A0932702BCCFD38312
:10176000C28340815181840F951FC817D90761F446
:101770004E5F5F4F88819981480F591F5183408385
:101780008A819B81938382832115310509F0B0CF33
:10179000F0932A02E09329029ECFFD01DC01C0CF25
:1017A00013821282D7CFB0E0A0E0E9EDFBE00C9409
:1017B000640A8C01009751F4CB010E94AE0A8C019F
:1017C000C801CDB7DEB7E0E10C94800AFC01E60F5A
:1017D000F71F9C0122503109E217F30708F49DC05E
:1017E000D901CD91DC911197C617D70798F0C53074
:1017F000D10530F3CE0104978617970708F3C61B6F
:10180000D70B2297C193D1936D937C93CF010E9404
:101810004A0BD6CF5B01AC1ABD0A4C018C0E9D1E43
:10182000A0912902B0912A02512C412CF12CE12CDB
:10183000109731F58091270290912802881599051B
:1018400009F05CC04616570608F058C080910001A8
:1018500090910101009741F48DB79EB7409104012A
:1018600050910501841B950BE817F90708F055C046
:10187000F0932802E0932702F90171836083A0CFDF
:101880008D919C91119712966C90129713967C9063
:101890001397A815B90559F56C0142E0C40ED11C87
:1018A000CA14DB0420F1AC014A195B09DA01129673
:1018B000159780F06282738251834083D9016D93C2
:1018C0007C93E114F10471F0D7011396FC93EE932D
:1018D000129776CF22968C0F9D1FF90191838083FA
:1018E000F301EFCFF0932A02E093290269CF481663
:1018F000590608F42C017D01D3019ACFCB010E9437
:10190000AE0A7C01009749F0AE01B8010E94900C2C
:10191000C8010E944A0B870153CF10E000E050CF6E
:10192000FB01DC0102C001900D9241505040D8F7FC
:101930000895FB01DC018D91019080190110D9F30C
:10194000990B0895FB01DC0101900D920020E1F755
:101950000895AEE0B0E0EFEAFCE00C94700A0D8967
:101960001E898F89988D26E02C831A83098397FF1F
:1019700002C080E090E801979E838D83AE01455EB2
:101980005F4F698D7A8DCE0101960E94D90C4D81F1
:101990005E8157FD0AC02F813885421753070CF42A
:1019A0009A01020F131FF80110822E96E4E00C94A6
:1019B0008C0AABE0B0E0EFEDFCE00C94620A7C0135
:1019C0003B018A01FC0117821682838181FFC8C115
:1019D000CE0101965C01F7019381F30193FD85919E
:1019E00093FF81913F01882309F453C1853239F473
:1019F00093FD859193FF81913F01853229F4B701D1
:101A000090E00E94C90EE7CF912C212C312CFFE1F0
:101A1000F31538F08B3211F190F4803209F18332F2
:101A200029F137FC3CC020ED280F2A3050F536FE56
:101A300020C08AE0989E200D1124922E06C08D327F
:101A400091F0803371F7689430F8F30193FD85913C
:101A500093FF81913F018111DACF21C0689431F861
:101A6000689432F8F2CF689433F8EFCF689434F882
:101A7000ECCFEAE02E9E200D1124222E689435F83A
:101A8000E4CF8E3229F436FC04C1689436F8DDCFF9
:101A90008C3619F4689437F8D8CF8836B1F2982F7D
:101AA0009F7D95549330E0F08336A1F18337C1F1E7
:101AB000833509F063C02801F2E04F0E511CF80194
:101AC000C080D180692D70E036FC02C06FEF7FEFDF
:101AD000C6010E94B30E4C01689437F882010AC017
:101AE0000C5F1F4FFFE3F98388248394912C6501D9
:101AF000E89437F833FE2DC0522C8114910471F50F
:101B0000552009F468CFB70180E290E00E94C90E29
:101B10005A94F6CFF801808189830E5F1F4FE4CF7E
:101B20002801F2E04F0E511CF801C080D180692DD0
:101B300070E036FC02C06FEF7FEFC6010E94BE0E60
:101B40004C018201D5CFB70180E290E00E94C90E1E
:101B50002A942814190409F0B0F7CECFF60137FC07
:101B6000859137FE81916F01B70190E00E94C90E07
:101B700051105A94F1E08F1A9108BFCF843619F0B2
:101B8000893609F077C0F80137FE6BC0608171813A
:101B9000828193810C5F1F4FF32DFF763F2E97FFBD
:101BA00009C090958095709561957F4F8F4F9F4F9D
:101BB000689437F82AE030E0A5010E94F90EC82E9B
:101BC000CA188C2C432C36FE0CC0E89440F8C9147B
:101BD00040F434FE05C032FC03C0F32DFE7E4F2ED0
:101BE000892C44FE95C0FE01EC0DF11D80818033EF
:101BF00009F087C0242D297E422E842D8870582E0E
:101C000043FC95C040FE8FC09C2C821418F42C0C11
:101C1000922C981844FE91C0B70180E390E00E9496
:101C2000C90E42FE09C088E790E041FE02C088E587
:101C300090E0B7010E94C90EC91408F48AC0CA9482
:101C4000D12C9FEFC91AD90ACA0CDB1CF60182916C
:101C50006F01B70190E00E94C90EAC14BD04B1F74A
:101C60004FCF60817181072E000C880B990B0E5F9E
:101C70001F4F92CFD32CE894D4F82AE030E0853778
:101C800039F1232D297FD22E8F3601F148F4883582
:101C9000A9F0F701868197812B96E2E10C947E0AE8
:101CA000803749F08837A9F7D4FE02C06894D2F88B
:101CB00020E130E00DC06894D4F8F6CF34FE03C0C4
:101CC000822F8660D82E20E132E002C028E030E08A
:101CD000F801D7FE0FC060817181828193810C5F12
:101CE0001F4FA5010E94F90EC82ECA183D2CE8947A
:101CF00037F867CF6081718190E080E00E5F1F4F01
:101D0000F0CF42FC02C0839478CF8394839475CF44
:101D1000842D867809F471CFF6CFB70180E290E088
:101D20000E94C90E83948214C0F3512C73CF522C9D
:101D30005818821408F46ECFF8CF842D867809F4F1
:101D40007BCF8BE241FE80E247FC8DE2B70190E061
:101D500071CFB70180E390E00E94C90E9A946CCFD6
:101D60008FEF9FEF99CFFC010590615070400110FB
:101D7000D8F7809590958E0F9F1F0895FC016150B4
:101D8000704001900110D8F7809590958E0F9F1F9D
:101D900008950F931F93CF93DF93182F092FEB0113
:101DA0008B8181FD09C01FEF0FEF812F902FDF91F5
:101DB000CF911F910F91089582FF14C02E813F8112
:101DC0008C819D81281739073CF4E881F981CF0186
:101DD00001969983888310838E819F8101969F83CA
:101DE0008E83E3CFE885F985812F0995892BA1F3AF
:101DF000DACFFA01AA27283051F1203181F1E89495
:101E00006F936E7F6E5F7F4F8F4F9F4FAF4FB1E0ED
:101E10003ED0B4E03CD0670F781F891F9A1FA11DE8
:101E2000680F791F8A1F911DA11D6A0F711D811DE9
:101E3000911DA11D20D009F468943F912AE0269FAE
:101E400011243019305D3193DEF6CF010895462F0D
:101E50004770405D4193B3E00FD0C9F7F6CF462FEE
:101E60004F70405D4A3318F0495D31FD4052419357
:101E700002D0A9F7EACFB4E0A69597958795779514
:101E80006795BA95C9F700976105710508959B019B
:101E9000AC010A2E06945795479537952795BA9524
:101EA000C9F7620F731F841F951FA01D089510E0CE
:101EB000C3E5D0E004C0FE010E94A80A2196C43503
:081EC000D107C9F7F894FFCF28
:101EC80000002B0280000000000014017E00AB001F
:101ED8006101DC00BA00CE003B0064657669636589
:101EE8002861726475696E6F4C6967687453656EB2
:101EF800736F7229006C6967687453656E736F72CB
:101F080028006765745065726365707473002530C6
:081F18003258006666666500A0
:00000001FF
