:100000000C9463000C948B000C948B000C9457029E
:100010000C9457020C9457020C948B000C948B0098
:100020000C948B000C948B000C948B000C948B0024
:100030000C948B000C948B000C948B000C948B0014
:100040000C940D020C948B000C948B000C948B0080
:100050000C948B000C948B000C948B000C948B00F4
:100060000C948B000C948B000000000023002600F1
:10007000290000000000240027002A0000000000E2
:10008000250028002B0004040404040404040202D4
:100090000202020203030303030301020408102007
:1000A0004080010204081020010204081020000012
:1000B0000008000201000003040700000000000027
:1000C00000004804B50411241FBECFEFD8E0DEBF06
:1000D000CDBF12E0A0E0B1E0E6E2FCE002C0059096
:1000E0000D92AE3EB107D9F723E0AEEEB2E001C00B
:1000F0001D92AC35B207E1F710E0C2E6D0E004C0D3
:100100002197FE010E940006C136D107C9F70E945F
:10011000CF020C9406060C940000AF92BF92CF92CF
:10012000DF92EF92FF920F931F93CF93DF936C01B7
:100130007B018B01040F151FEB015E01AE18BF0898
:10014000C017D10759F06991D601ED91FC9101904A
:10015000F081E02DC6010995892B79F7C501DF9162
:10016000CF911F910F91FF90EF90DF90CF90BF90B4
:10017000AF90089590E0FC01E255FF4F2491FC01FF
:10018000E656FF4F3491FC01EA57FF4FE491EE230E
:10019000C9F0222339F0233001F1A8F4213019F1FC
:1001A000223029F1F0E0EE0FFF1FE458FF4FA59138
:1001B000B4918FB7F894EC91611126C030953E232D
:1001C0003C938FBF08952730A9F02830C9F0243020
:1001D00049F7809180008F7D03C0809180008F77E8
:1001E00080938000DFCF84B58F7784BDDBCF84B56B
:1001F0008F7DFBCF8091B0008F778093B000D2CFFE
:100200008091B0008F7DF9CF3E2BDACFCF93DF9373
:1002100090E0FC01E656FF4F24918A579F4FFC0166
:1002200084918823D1F090E0880F991FFC01EE584B
:10023000FF4FA591B491FC01E458FF4FC591D491B3
:1002400061110EC09FB7F8948C91E22FE0958E2338
:100250008C932881E223E8839FBFDF91CF9108959B
:100260008FB7F894EC91E22BEC938FBFF6CF3FB7AA
:10027000F8948091330390913403A0913503B091A9
:10028000360326B5A89B05C02F3F19F00196A11D86
:10029000B11D3FBFBA2FA92F982F8827BC01CD01D0
:1002A000620F711D811D911D42E0660F771F881F2F
:1002B000991F4A95D1F708952091390330913A0357
:1002C0002817390771F490913703809138039817F4
:1002D00041F0E0913703F0E0E251FD4F808190E082
:1002E00008958FEF9FEF08950895EF92FF920F9377
:1002F0001F93CF93DF93DC015C96ED90FC905D97AC
:10030000E114F10479F481E090E013969C938E93CC
:10031000129790E080E0DF91CF911F910F91FF90B5
:10032000EF9008955196ED91FC91529750968C91D3
:100330005097982F90950FB75E962C915E97122F3D
:10034000127021FD6095F8942081112319F1282B5A
:100350002083E7012197F1F728E0462F50E0308114
:1003600060FF1AC0382B3083E7012197F1F7BA01FB
:1003700075956795215089F7112381F08081892334
:1003800080830FBF5C968D919C910197F1F781E07E
:1003900090E0C1CF2923DCCF3923E5CF9081892B91
:1003A000EFCF2091390330913A032817390771F4C0
:1003B000809138032091370390E0805C9F4F821B2F
:1003C000910960E470E00E94D805089590E080E013
:1003D00008952091390330913A0328173907B9F469
:1003E0009091370380913803981789F0E091370393
:1003F000F0E0E251FD4F80812091370330E02F5F24
:100400003F4F2F7333272093370390E008958FEFEA
:100410009FEF089590E080E008951F920F920FB62D
:100420000F9211242F933F938F939F93AF93BF937A
:1004300080912F0390913003A0913103B09132034A
:1004400030912E0323E0230F2D3758F50196A11D7F
:10045000B11D20932E0380932F0390933003A0931C
:100460003103B09332038091330390913403A09110
:100470003503B09136030196A11DB11D809333035E
:1004800090933403A0933503B0933603BF91AF919B
:100490009F918F913F912F910F900FBE0F901F90C2
:1004A000189526E8230F0296A11DB11DD2CF1F92E9
:1004B0000F920FB60F9211242F933F934F935F9398
:1004C0006F937F938F939F93AF93BF93EF93FF931C
:1004D000E0913903F0913A03309749F0A685B7854A
:1004E0008585968D91FF14C09C918923A1F4FF917D
:1004F000EF91BF91AF919F918F917F916F915F919C
:100500004F913F912F910F900FBE0F901F90189514
:100510009C91892361F7A389B4899C9185898095F1
:1005200089238C93868997890197F1F7608D718D66
:10053000A685B785558538E020E0CB010197F1F716
:10054000822F90E095958795282F4C91452309F0AF
:100550002068315091F7868D81FD20958091380378
:1005600090E001968F73992730913703381799F0EF
:10057000A0913803B0E0A251BD4F2C938093380373
:10058000828D938D0197F1F7A389B4898C91958918
:10059000892B8C93ACCF868D8160868FF1CF789438
:1005A00084B5826084BD84B5816084BD85B5826078
:1005B00085BD85B5816085BD80916E008160809329
:1005C0006E00109281008091810082608093810092
:1005D00080918100816080938100809180008160A2
:1005E000809380008091B10084608093B1008091FD
:1005F000B00081608093B00080917A008460809325
:100600007A0080917A00826080937A0080917A00EB
:10061000816080937A0080917A00806880937A006C
:100620001092C10061E08DE00E94060161E085E06A
:100630000E94060110925603109255031092540323
:100640001092530310925203109251038DE991E0DE
:10065000909358038093570390914703963108F085
:1006600047C02DEB30E030935203209351032BE928
:1006700031E030935403209353032CE231E0309364
:100680005603209355032091680084E0983048F089
:1006900031E09E3008F430E081E001C0880F3A95E7
:1006A000EAF7822B809368002DE630E0983050F016
:1006B0002BE630E09E3030F02CE630E0963110F042
:1006C00030E020E030934F0320934E03292F30E099
:1006D000983008F0C5C081E001C0880F9A95EAF70C
:1006E0008093500380915703909158030197F1F73D
:1006F0008091550390915603892B49F1E09139037C
:10070000F0913A0323E0EB33F20709F1309739F027
:10071000A389B4899C918589809589238C93809144
:1007200059038E7F80935903109238031092370338
:100730008BE393E090933A0380933903E0914E0367
:10074000F0914F03808190915003892B808380E446
:1007500080937C0080917A00806480937A008091FD
:100760007A0086FDFCCF8091780060917900762F29
:10077000682F072E000C880B990B611571058105F8
:10078000910511F00E946C0591ED892E97E0992E4C
:10079000A12CB12CC0E0D0E061E08DE00E94BA0055
:1007A000E0915A03F0915B03EE0FFF1FE65EFE4FF0
:1007B000608171816115710561F0FB01019000207C
:1007C000E9F73197AF01461B570B8BE393E00E948B
:1007D0008D0080915A0390915B03019686309105BC
:1007E0000CF04BC090935B0380935A030E941D054D
:1007F000A50194010E9475056B017C0128EEC20ED3
:1008000023E0D21EE11CF11CC0920001D092010134
:10081000E0920201F092030160E08DE00E94BA00D4
:100820000E9437012B013C01C114D104E104F10401
:1008300049F10E9437016419750986099709683ED4
:1008400073408105910580F381E0C81AD108E10861
:10085000F10828EE420E23E0521E611C711CE4CF09
:100860009E3040F42850310981E001C0880F2A955C
:10087000EAF736CF2E503109F7CF10925B03109272
:100880005A03B4CF209709F487CF0E94000084CF89
:1008900010923E0310923D0388EE93E0A0E0B0E09A
:1008A00080933F0390934003A0934103B09342038E
:1008B0008CE091E090933C0380933B0310925203B1
:1008C0001092510310925403109253031092560346
:1008D00010925503109258031092570360915903D8
:1008E0006E7F6D7F609359036695617081E0682724
:1008F00085E00E94BA0061E085E00E940601EFE910
:10090000F0E0E491E0934B03EBE8F0E0E491F0E0F9
:10091000EE0FFF1FE458FF4F8591949190934D0384
:1009200080934C0360E08FEF0E9406018091590391
:1009300081FD04C061E08FEF0E94BA008FEF8093C9
:100940004703E9E9F1E0E491E0934803E5E8F1E0E9
:10095000E491F0E0EE0FFF1FE859FF4F859194916D
:1009600090934A038093490308958CE091E090931B
:100970003C0380933B038091390390913A038B535E
:10098000934071F4E0914E03F0914F039081809178
:10099000500380958923808310923A031092390383
:1009A00008958F929F92AF92BF92CF92DF92EF9273
:1009B000FF92CF93DF93EC01688179818A819B81DB
:1009C000611571058105910521F464E279ED8BE5EE
:1009D00097E02DE133EF41E050E00E9475054901B9
:1009E0005A019B01AC01A7EAB1E40E9494056B0196
:1009F0007C01ACEEB4EFA50194010E94A205C60EE5
:100A0000D71EE81EF91EF7FE06C081E0C81AD108FD
:100A1000E10880E8F80AC882D982EA82FB82C7012D
:100A2000B6019F77DF91CF91FF90EF90DF90CF904D
:100A3000BF90AF909F908F9008958F929F92AF92AA
:100A4000BF92CF92DF92EF92FF926091040170917A
:100A500005018091060190910701611571058105DD
:100A6000910521F464E279ED8BE597E02DE133EF18
:100A700041E050E00E94750549015A019B01AC011B
:100A8000A7EAB1E40E9494056B017C01ACEEB4EFDF
:100A9000A50194010E94A205C60ED71EE81EF91EEC
:100AA000F7FE06C081E0C81AD108E10880E8F80A1C
:100AB000C0920401D0920501E0920601F092070174
:100AC000C701B6019F77FF90EF90DF90CF90BF9066
:100AD000AF909F908F9008956093040170930501EB
:100AE00080930601909307010895052E97FB1EF44D
:100AF00000940E948C0557FD07D00E94A70507FCB3
:100B000003D04EF40C948C0550954095309521956A
:100B10003F4F4F4F5F4F0895909580957095619529
:100B20007F4F8F4F9F4F08950E94C905A59F900D3D
:100B3000B49F900DA49F800D911D11240895B7FFBF
:100B40000C9494050E949405821B930B0895A1E2D6
:100B50001A2EAA1BBB1BFD010DC0AA1FBB1FEE1F37
:100B6000FF1FA217B307E407F50720F0A21BB30B82
:100B7000E40BF50B661F771F881F991F1A9469F7FE
:100B800060957095809590959B01AC01BD01CF015A
:100B90000895A29FB001B39FC001A39F700D811D56
:100BA0001124911DB29F700D811D1124911D089576
:100BB00097FB072E16F4009407D077FD09D00E940A
:100BC000EC0507FC05D03EF4909581959F4F089564
:100BD000709561957F4F0895AA1BBB1B51E107C01B
:100BE000AA1FBB1FA617B70710F0A61BB70B881FBD
:100BF000991F5A95A9F780959095BC01CD0108954C
:100C0000EE0FFF1F0590F491E02D099410E0C2E66D
:100C1000D0E004C0FE010E9400062196C336D10731
:060C2000C9F7F894FFCFB4
:100C2600E8030000010000000000000075018D00CF
:100C36000A027401D101E9015C0126016F01BE01BE
:100C4600070256029F02244750524D432C3034353A
:100C56003130332E3030302C412C333031342E317C
:100C66003938342C4E2C30393734392E3238373225
:100C76002C572C302E36372C3136312E34362C303C
:100C860033303931332C2C2C412A37430D0A0024BA
:100C960047504747412C3034353130342E303030D0
:100CA6002C333031342E313938352C4E2C303937FF
:100CB60034392E323837332C572C312C30392C31ED
:100CC6002E322C3231312E362C4D2C2D32322E3501
:100CD6002C4D2C2C303030302A36320D0A00244769
:100CE60050524D432C3034353230302E3030302C8B
:100CF600412C333031342E333832302C4E2C3039AF
:100D06003734382E393531342C572C33362E383883
:100D16002C36352E30322C3033303931332C2C2CC6
:100D2600412A37370D0A002447504747412C3034B3
:100D3600353230312E3030302C333031342E33389A
:100D460036342C4E2C30393734382E393431312C58
:100D5600572C312C31302C312E322C3230302E386B
:100D66002C4D2C2D32322E352C4D2C2C3030303053
:100D76002A36430D0A00244750524D432C30343551
:100D86003235312E3030302C412C333031342E3444
:100D96003237352C4E2C30393734392E3036323600
:100DA6002C572C302E35312C3231372E39342C300D
:100DB60033303931332C2C2C412A37440D0A002488
:100DC60047504747412C3034353235322E3030309B
:100DD6002C333031342E343237332C4E2C303937D5
:100DE60034392E303632382C572C312C30392C31C0
:100DF6002E332C3230362E392C4D2C2D32322E35C8
:0E0E06002C4D2C2C303030302A36460D0A0090
:00000001FF
