:100000000C94E0000C9408010C9408010C94150B5E
:100010000C94150B0C94150B0C9408010C9408010E
:100020000C9408010C9408010C9408010C9408012C
:100030000C9408010C9408010C9408010C9408011C
:100040000C94CB0A0C9408010C94990A0C94730A32
:100050000C9408010C9408010C9408010C940801FC
:100060000C9408010C94080100407A10F35A00A087
:10007000724E18090010A5D4E80000E87648170071
:1000800000E40B54020000CA9A3B000000E1F505B1
:10009000000080969800000040420F000000A086FB
:1000A00001000000102700000000E803000000002D
:1000B0006400000000000A000000000001000000D1
:1000C00000002C76D888DC674F0823DFC1DFAE59EB
:1000D000E1B1B796E5E3E453C63AE651997696E87E
:1000E000E6C28426EB898C9B62ED407C6FFCEFBC02
:1000F0009C9F40F2BAA56FA5F490055A2AF75C932D
:100100006B6CF9676DC11BFCE0E40D47FEF520E662
:10011000B500D0ED902E0300943577050080841E45
:10012000080000204E0A000000C80C333333330FA0
:10013000986E12831141EF8D2114893BE65516CF3D
:10014000FEE6DB18D1844B381BF77C1D901DA4BB49
:10015000E424203284725E228100C9F124ECA1E5FE
:100160003D27000000080002010000030407000012
:10017000000000000000000000002300260029000D
:1001800000000000240027002A00000000002500D5
:1001900028002B00040404040404040402020202E4
:1001A000020203030303030301020408102040803A
:1001B000010204081020010204081020D90BAB131F
:1001C00011241FBECFEFD8E0DEBFCDBF23E0A4ECEB
:1001D000B1E001C01D92A73AB207E1F711E0A0E03B
:1001E000B1E0E6EFFEE302C005900D92A43CB1073A
:1001F000D9F710E0CFEDD0E004C02197FE010E94B6
:10020000941ACE3DD107C9F70E94C20D0C946E1FFF
:100210000C940000AF92BF92CF92DF92EF92FF92C8
:100220000F931F93CF93DF936C017B018B01040F1E
:10023000151FEB015E01AE18BF08C017D10759F0BA
:100240006991D601ED91FC910190F081E02DC601FC
:100250000995892B79F7C501DF91CF911F910F91F6
:10026000FF90EF90DF90CF90BF90AF900895FC018A
:10027000538D448D252F30E0842F90E0821B930B0B
:10028000541710F0CF96089501970895FC01918DB1
:10029000828D981761F0A28DAE0FBF2FB11D5D96B4
:1002A0008C91928D9F5F9F73928F90E008958FEF56
:1002B0009FEF0895FC01918D828D981731F0828D0A
:1002C000E80FF11D858D90E008958FEF9FEF089561
:1002D000FC01918D228D892F90E0805C9F4F821BC5
:1002E00091098F739927089581E192E00E94680136
:1002F00021E0892B09F420E0822F0895FC01A48DD0
:10030000A80FB92FB11DA35ABF4F2C91848D90E037
:1003100001968F739927848FA689B7892C93A0891A
:10032000B1898C91837080648C93938D848D9813A4
:1003300006C00288F389E02D80818F7D8083089537
:10034000EF92FF920F931F93CF93DF93EC0181E025
:10035000888F9B8D8C8D98131AC0E889F9898081CC
:1003600085FF15C09FB7F894EE89FF896083E889FF
:10037000F98980818370806480839FBF81E090E0F1
:10038000DF91CF911F910F91FF90EF900895F62E7E
:100390000B8D10E00F5F1F4F0F731127E02E8C8D18
:1003A0008E110CC00FB607FCFACFE889F98980815D
:1003B00085FFF5CFCE010E947E01F1CFEB8DEC0FD2
:1003C000FD2FF11DE35AFF4FF0829FB7F8940B8F7A
:1003D000EA89FB8980818062CFCFCF93DF93EC01E4
:1003E000888D8823B9F0AA89BB89E889F9898C911D
:1003F00085FD03C0808186FD0DC00FB607FCF7CFD9
:100400008C9185FFF2CF808185FFEDCFCE010E94D8
:100410007E01E9CFDF91CF9108952FB7F8946091D5
:10042000090270910A0280910B0290910C022FBF79
:100430000895CF93DF93EC018A859B85AC85BD85BC
:100440008E839F83A887B9870E940D026A837B836E
:100450008C839D8381E089838883DF91CF91089588
:10046000CF93DF93EC018E819F81A885B9858A8324
:100470009B83AC83BD830E940D026A877B878C8738
:100480009D8781E089838883DF91CF9108952091B2
:100490000F02309110022817390771F490910D0264
:1004A00080910E02981741F0E0910D02F0E0EC53BC
:1004B000FE4F808190E008958FEF9FEF089508959B
:1004C000EF92FF920F931F93CF93DF93DC015C9623
:1004D000ED90FC905D97E114F10479F481E090E0F7
:1004E00013969C938E93129790E080E0DF91CF91CA
:1004F0001F910F91FF90EF9008955196ED91FC910F
:10050000529750968C915097982F90950FB75E9672
:100510002C915E97122F127021FD6095F894208126
:10052000112319F1282B2083E7012197F1F728E007
:10053000462F50E0308160FF1AC0382B3083E7012E
:100540002197F1F7BA0175956795215089F7112325
:1005500081F08081892380830FBF5C968D919C916F
:100560000197F1F781E090E0C1CF2923DCCF392357
:10057000E5CF9081892BEFCF20910F0230911002AF
:100580002817390771F480910E0220910D0290E036
:10059000805C9F4F821B910960E470E00E94801A8A
:1005A000089590E080E0089520910F0230911002AC
:1005B00028173907B9F490910D0280910E0298170F
:1005C00089F0E0910D02F0E0EC53FE4F8081209124
:1005D0000D0230E02F5F3F4F2F73332720930D0222
:1005E00090E008958FEF9FEF089590E080E00895E8
:1005F000CF93DF93EC01A881B981EB01E881F98108
:100600001097F1F03097B1F4EC018C819D81892B2A
:10061000C9F08C9190E00BC0DB0114968D919C91F8
:10062000892B81F0808190E0919581959109DF91EE
:10063000CF910895BF01CD01DF91CF910C94A11C02
:10064000309751F790E080E0F2CF2F923F924F9297
:100650005F926F927F928F929F92AF92BF92CF9252
:10066000DF92EF92FF920F931F93CF93DF93D82FD8
:10067000C92F8B010E94581524E630E040E050E07D
:100680000E942E1949019B01AC0160E876E988E9D6
:1006900090E00E941E196B017C01F801918280821A
:1006A000ED2FFC2F2191822F022E000C990BC09769
:1006B0000A97C0F32E3239F51F0180E8882E86E9AB
:1006C000982E88E9A82EB12C9AE0492E512C612C45
:1006D000712CF101C1911F010C2E000CDD0BE09774
:1006E000CA30D10580F4C501B401A30192010E9472
:1006F0002E1949015A01DE010E949A1AC60ED71E10
:10070000E81EF91EE6CFA5E0B0E0A70196010E9421
:1007100050196F5F7F4F8F4F9F4F23E030E040E0D5
:1007200050E00E942E19F8012283338344835583BD
:100730001682DF91CF911F910F91FF90EF90DF9084
:10074000CF90BF90AF909F908F907F906F905F9071
:100750004F903F902F9008951F93CF93DF93EC011C
:1007600018811D3209F42196CE010E9458159B0173
:10077000AC01A4E6B0E00E945019AB01BC01FE013F
:100780002991822F022E000C990BC0970A97B8F37B
:100790002E3231F58181082E000C990BC0978A30DA
:1007A0009105F0F4AAE0A89F9001A99F300D1124B3
:1007B000C901330FAA0BBB0B480F591F6A1F7B1FC0
:1007C0008281082E000C990BC0978A30910540F465
:1007D000092E000CAA0BBB0B480F591F6A1F7B1F69
:1007E0001D3239F470956095509541955F4F6F4F6C
:1007F0007F4FCB01BA01DF91CF911F9108950F93E5
:100800001F93CF93DF93EC0188819981009759F072
:100810002A813B812617370730F081E0DF91CF91A5
:100820001F910F9108958B016F5F7F4F0E94DB1B1B
:10083000009759F0998388831B830A832C813D811B
:10084000232B59F7FC011082E8CF80E0E7CFEF922D
:10085000FF920F931F93CF93DF936115710541F4BE
:1008600080E0DF91CF911F910F91FF90EF9008955D
:1008700041155105B1F07B01EC010C811D81040F84
:10088000151FB8010E94FF03882351F32881398185
:100890008C819D81B701820F931F0E94AA1C1D832A
:1008A0000C8381E0DECFCF93DF9300D0CDB7DEB7EE
:1008B00069831A8241E050E0BE016F5F7F4F0E9462
:1008C00027040F900F90DF91CF910895CF93DF937E
:1008D000EC0188819981009711F00E94521B1982C6
:1008E00018821D821C821B821A82DF91CF9108958B
:1008F000CF93DF93EC01FB0101900020E9F73197E2
:10090000AF01461B570B0E942704811103C0CE0183
:100910000E946604CE01DF91CF910895CF93DF93BB
:10092000EC01FB0144815581608171810E942704A3
:10093000811103C0CE010E946604CE01DF91CF91E8
:100940000895EF92FF920F931F93CF93DF93EC01E3
:100950007B018A01BA010E94FF0381110BC0CE0105
:100960000E946604CE01DF91CF911F910F91FF90FD
:10097000EF9008951D830C83B701888199810E94AF
:10098000AA1CF0CFFB0101900020E9F73197AF01DD
:10099000461B570B0C94A1040F931F93CF93DF9327
:1009A000CDB7DEB729970FB6F894DEBF0FBECDBF27
:1009B0008C01862FF8011182108213821282158217
:1009C00014824AE0BE016F5F7F4F90E00E94BF1526
:1009D000BE016F5F7F4FC8010E94C20429960FB607
:1009E000F894DEBF0FBECDBFDF91CF911F910F9165
:1009F0000895CF93DF93EC01FB018617970749F029
:100A0000608171816115710541F0448155810E94B9
:100A1000A104CE01DF91CF9108950E946604F9CF21
:100A2000FC011182108213821282158214820C94AE
:100A3000F904CF93DF93EC010E941005CE01DF9102
:100A4000CF910895EF92FF920F931F93CF93DF936F
:100A5000EC017B01198218821B821A821D821C8282
:100A600088E090E00E94B61A8C01B7010E94100540
:100A7000F70186819781F801978386831D830C8314
:100A8000DF91CF911F910F91FF90EF900895FC019E
:100A9000118210821382128215821482FB0101904E
:100AA0000020E9F73197AF01461B570B0C94A104C6
:100AB000FC0180819181009711F00C94521B0895E4
:100AC000AF92BF92CF92DF92EF92FF920F931F935C
:100AD000CF93DF93CDB7DEB72E970FB6F894DEBF76
:100AE0000FBECDBF8C016B0180917B0390917C0385
:100AF000D80112969C938E931197D8011196ED917F
:100B0000FC9180917D0390917E038E179F0779F170
:100B1000A0908203B0908303E480F580B701CE01FA
:100B200001960E941005F7018681978198878F832F
:100B3000BE016F5F7F4FCE010996F5010995B601A1
:100B4000CE0109960E94F8027C01CE0109960E940E
:100B50005805CE0101960E945805F7FE08C0D8013D
:100B60001196ED91FC91129782819381C2CFC801B9
:100B70002E960FB6F894DEBF0FBECDBFDF91CF919A
:100B80001F910F91FF90EF90DF90CF90BF90AF90AB
:100B900008950F931F93CF93DF9300D000D000D020
:100BA000CDB7DEB78C0165E973E0CE0101960E94F6
:100BB0001005B801CE0101960E948E046AE271E030
:100BC0000E947804BC0185E993E00E94F904CE01FB
:100BD00001960E94580526960FB6F894DEBF0FBE08
:100BE000CDBFDF91CF911F910F910895EF92FF92AA
:100BF0000F931F93CF93DF93CDB7DEB7A1970FB6B7
:100C0000F894DEBF0FBECDBF7C01CB01BA01F70166
:100C100011821082138212821582148242E0420FE6
:100C20008E010F5F1F4F0E942314009789F0BC01B3
:100C3000C7010E94C204A1960FB6F894DEBF0FBE92
:100C4000CDBFDF91CF911F910F91FF90EF9008954D
:100C5000C7010E946604EFCFCF92DF92EF92FF921E
:100C6000CF93DF93CDB7DEB7E9970FB6F894DEBF29
:100C70000FBECDBF6CE271E0CE0101960E94470528
:100C8000CE0101960E94C905CE0101960E94580529
:100C90008091AE02882309F4A6C01092AF02609141
:100CA000B2027091B3028091B4029091B5020E9499
:100CB000231828E23BE64EE65EE40E940E1A6B0122
:100CC0007C016091B0027091B10290E080E00E94DE
:100CD00023189B01AC01C701B6010E94A219AB0108
:100CE000BC018091B6028111705826E0CE01829637
:100CF0000E94F6056EE371E0CE0101960E94470561
:100D0000BE016E5D7F4FCE0101960E948E046CE3A2
:100D100071E00E947804BC01CE0188960E94100503
:100D2000CE0188960E94C905CE0188960E9458057A
:100D3000CE0101960E945805CE0182960E94580568
:100D40001092AF026091B9027091BA028091BB0219
:100D50009091BC020E94231828E23BE64EE65EE436
:100D60000E940E1A6B017C016091B7027091B8026B
:100D700090E080E00E9423189B01AC01C701B601FE
:100D80000E94A219AB01BC018091BD028111705873
:100D900026E0CE0182960E94F60568E471E0CE015D
:100DA00001960E944705BE016E5D7F4FCE01019600
:100DB0000E948E046CE371E00E947804BC01CE01B5
:100DC00088960E941005CE0188960E94C905CE0122
:100DD00088960E945805CE0101960E945805CE01C2
:100DE00082960E9458058091D002882309F496C00B
:100DF0001092D1026091D2027091D3028091D402FC
:100E00009091D50220E137E240E050E00E942E1997
:100E1000622FCE018E960E94CC041092D102609176
:100E2000D2027091D3028091D4029091D50234E61F
:100E3000C32ED12CE12CF12CA70196010E942E1972
:100E4000CA01B901A70196010E942E19CE01889608
:100E50000E94CC041092D1026091D2027091D30210
:100E60008091D4029091D502A70196010E942E197B
:100E7000CB018053984F1BA21AA21DA21CA21FA235
:100E80001EA24AE0BE016F5F7F4F0E94BF15BE01E8
:100E90006F5F7F4FCE0182960E94C20463E571E0CE
:100EA000CE0101960E944705BE016E5D7F4FCE01C7
:100EB00001960E948E046AE771E00E947804BE01E8
:100EC000685D7F4F0E948E046AE771E00E9478049B
:100ED000BE01625D7F4F0E948E046CE371E00E9450
:100EE0007804BC01CE01C4960E941005CE01C496C0
:100EF0000E94C905CE01C4960E945805CE010196F4
:100F00000E945805CE0182960E945805CE0188960F
:100F10000E945805CE018E960E9458058091DE02EF
:100F2000882309F48CC01092DF026091E002709176
:100F3000E1028091E2029091E30224E6C22ED12CDC
:100F4000E12CF12CA70196010E942E19CA01B901CA
:100F5000A70196010E942E19CE018E960E94CC0404
:100F60001092DF026091E0027091E1028091E20252
:100F70009091E30220E137E240E050E00E942E1918
:100F8000CA01B901A70196010E942E19CE018896C7
:100F90000E94CC041092DF026091E0027091E102A5
:100FA0008091E2029091E30220E432E44FE050E0CD
:100FB0000E942E19622FCE0182960E94CC0469E510
:100FC00071E0CE0101960E944705BE016E5D7F4F24
:100FD000CE0101960E948E046AE771E00E947804B7
:100FE000BE01685D7F4F0E948E046AE771E00E9437
:100FF0007804BE01625D7F4F0E948E046CE371E055
:101000000E947804BC01CE01C4960E941005CE0156
:10101000C4960E94C905CE01C4960E945805CE010F
:1010200001960E945805CE0182960E945805CE0175
:1010300088960E945805CE018E960E945805809190
:101040000803882309F43FC01092090360910E033E
:1010500070910F0380911003909111030E94251845
:1010600020E030E048EC52E40E940E1AAB01BC01D3
:1010700022E0CE0182960E94F6056FE571E0CE0176
:1010800001960E944705BE016E5D7F4FCE0101961D
:101090000E948E046CE371E00E947804BC01CE01D2
:1010A00088960E941005CE0188960E94C905CE013F
:1010B00088960E945805CE0101960E945805CE01DF
:1010C00082960E9458058091EC02882309F445C05D
:1010D0001092ED026091F2027091F3028091F4029D
:1010E0009091F5020E94251826E53EE04DEE5FE363
:1010F0000E94601820E030E048EC52E40E940E1A92
:10110000AB01BC0122E0CE0182960E94F60560E7A9
:1011100071E0CE0101960E944705BE016E5D7F4FD2
:10112000CE0101960E948E046CE371E00E94780467
:10113000BC01CE0188960E941005CE0188960E94BF
:10114000C905CE0188960E945805CE0101960E94DD
:101150005805CE0182960E9458058091FA02882394
:1011600009F43FC01092FB026091000370910103EB
:1011700080910203909103030E94251820E030E043
:1011800048EC52E40E940E1AAB01BC0122E0CE01F1
:1011900082960E94F6056CE771E0CE0101960E94EE
:1011A0004705BE016E5D7F4FCE0101960E948E0401
:1011B0006CE371E00E947804BC01CE0188960E9425
:1011C0001005CE0188960E94C905CE0188960E941E
:1011D0005805CE0101960E945805CE0182960E94C4
:1011E00058051092170360911C0370911D038091A4
:1011F0001E0390911F031BA21AA21DA21CA21FA2D4
:101200001EA22AE0AE014F5F5F4F0E949D15BE01F6
:101210006F5F7F4FCE0182960E94C20464E871E046
:10122000CE0101960E944705BE016E5D7F4FCE0143
:1012300001960E948E046CE371E00E947804BC0168
:10124000CE0188960E941005CE0188960E94C9059D
:10125000CE0188960E945805CE0101960E9458053D
:10126000CE0182960E9458051092250360912A03B0
:1012700070912B0380912C0390912D030E942518CF
:1012800020E030E048EC52E40E940E1AAB01BC01B1
:1012900022E0CE0182960E94F60560E971E0CE015F
:1012A00001960E944705BE016E5D7F4FCE010196FB
:1012B0000E948E046CE371E00E947804BC01CE01B0
:1012C00088960E941005CE0188960E94C905CE011D
:1012D00088960E945805CE0101960E945805CE01BD
:1012E00082960E945805E9960FB6F894DEBF0FBEAD
:1012F000CDBFDF91CF91FF90EF90DF90CF90089519
:10130000CF92DF92EF92FF92CF93C1E081E192E022
:101310000E946801892B09F4DAC0809184039091BE
:101320008503892B09F047C00E940D0260939B033F
:1013300070939C0380939D0390939E0362E571E0FC
:1013400089E893E00E94C20481E192E00E94460194
:10135000682F80918403909185039C012F5F3F4FFC
:1013600030938503209384038330910508F0A9C04E
:1013700041E0663609F440E02430310511F4653669
:1013800019F4442309F44EC010928503109284038B
:10139000109287031092860362E571E089E893E07A
:1013A0000E94C20462E571E08FE893E00E94C204EB
:1013B00010928803ABCFC0909B03D0909C03E09029
:1013C0009D03F0909E038CE2C80E81E0D81EE11CC4
:1013D000F11C0E940D02C616D706E806F90608F0B1
:1013E000B3CF62E571E08FE893E00E94C2041092EF
:1013F000850310928403109287031092860362E59E
:1014000071E089E893E00E94C204109288030E9470
:101410000D0260939B0370939C0380939D039093B4
:101420009E0392CF0497029720F5109288038FE8CD
:1014300093E00E9453048091840390918503069762
:1014400009F064CF40E150E070E060E080918F03EC
:10145000909190030E9441146A5F7F4F70938703BD
:101460006093860362E571E08FE893E00E94C20416
:101470004DCF2730310508F449CF809186039091F4
:1014800087032817390738F41092880389E893E016
:101490000E9453043BCF9093850380938403892B50
:1014A00009F434CF89E893E00E9453041092850335
:1014B000109284031092870310928603C0938803CE
:1014C00025CF2430310509F0ADCF40E058CFCF9182
:1014D000FF90EF90DF90CF9008950E9474018111EA
:1014E0000C94800908951F920F920FB60F92112449
:1014F0002F933F934F935F936F937F938F939F931C
:10150000AF93BF93EF93FF9381E192E00E947E013E
:10151000FF91EF91BF91AF919F918F917F916F91CB
:101520005F914F913F912F910F900FBE0F901F90A1
:1015300018951F920F920FB60F9211242F938F932D
:101540009F93EF93FF93E0912102F091220280811B
:10155000E0912702F091280282FD1BC090818091CA
:101560002A028F5F8F7320912B02821741F0E09146
:101570002A02F0E0EF5EFD4F958F80932A02FF91E3
:10158000EF919F918F912F910F900FBE0F901F9011
:1015900018958081F4CF1F920F920FB60F921124ED
:1015A0002F933F938F939F93AF93BF9380910902A3
:1015B00090910A02A0910B02B0910C0230910802A6
:1015C00023E0230F2D3758F50196A11DB11D20935F
:1015D00008028093090290930A02A0930B02B09331
:1015E0000C028091040290910502A0910602B09134
:1015F00007020196A11DB11D80930402909305027C
:10160000A0930602B0930702BF91AF919F918F9173
:101610003F912F910F900FBE0F901F90189526E8C5
:10162000230F0296A11DB11DD2CF1F920F920FB6AC
:101630000F9211242F933F934F935F936F937F9358
:101640008F939F93AF93BF93EF93FF93E0910F021C
:10165000F0911002309749F0A685B7858585968D63
:1016600091FF14C09C918923A1F4FF91EF91BF9148
:10167000AF919F918F917F916F915F914F913F912A
:101680002F910F900FBE0F901F9018959C9189235A
:1016900061F7A389B4899C918589809589238C936E
:1016A000868997890197F1F7608D718DA685B78539
:1016B000558538E020E0CB010197F1F7822F90E0CB
:1016C00095958795282F4C91452309F02068315036
:1016D00091F7868D81FD209580910E0290E0019614
:1016E0008F73992730910D02381799F0A0910E024F
:1016F000B0E0AC53BE4F2C9380930E02828D938D3D
:101700000197F1F7A389B4898C919589892B8C93E2
:10171000ACCF868D8160868FF1CF90E0FC01EE59D1
:10172000FE4F2491FC01E855FE4F3491FC01EC562C
:10173000FE4FE491EE23C9F0222339F0233001F16A
:10174000A8F4213019F1223029F1F0E0EE0FFF1F4B
:10175000E657FE4FA591B4918FB7F894EC916111C3
:1017600026C030953E233C938FBF08952730A9F0C3
:101770002830C9F0243049F7809180008F7D03C064
:10178000809180008F7780938000DFCF84B58F7742
:1017900084BDDBCF84B58F7DFBCF8091B0008F7788
:1017A0008093B000D2CF8091B0008F7DF9CF3E2BD7
:1017B000DACFCF92DF92EF92FF920F931F93CF93E6
:1017C000DF931092140210921302E8EECE2EE3E0A3
:1017D000DE2EE12CF12CC0921502D0921602E0927E
:1017E0001702F09218028AE091E09093120280931F
:1017F000110285EC90E090931E0280931D0284EC10
:1018000090E09093200280931F0280EC90E09093F0
:1018100022028093210281EC90E090932402809335
:10182000230282EC90E0909326028093250286ECBE
:1018300090E0909328028093270210922A0210923F
:101840002B0210922C0210922D0210928003109203
:101850007F0386E090E00E94B61AFC01118210829C
:10186000138212821582148290937C0380937B03EF
:1018700090937E0380937D0389E195E090938303A9
:101880008093820362E571E089E893E00E94470556
:1018900062E571E08FE893E00E94470562E571E040
:1018A00085E993E00E94470510925E0310925D0364
:1018B000C0925F03D0926003E0926103F0926203F2
:1018C0008CE191E090935C0380935B031092720330
:1018D00010927103109274031092730310927603A6
:1018E0001092750310927803109277036091790338
:1018F0006E7F6D7F609379036695617081E06827E4
:101900008BE00E948D0B43EB51E0FA0164918FE96B
:1019100091E0FC012491222399F030E0220F331F43
:10192000F901E058FE4FA591B491F901E657FE4F39
:10193000259134912FB7F8943C91632B6C932FBF72
:10194000FA01449140936B03FC018491E82FF0E08D
:10195000EE0FFF1FE657FE4F8591949190936D0314
:1019600080936C0302EB11E0F8012491CEE9D1E001
:10197000FE0184918823C9F090E0880F991FFC0133
:10198000E058FE4FA591B491FC01E657FE4F4591FA
:1019900054913FB7F8949C91822F809598239C9303
:1019A000FA019081892380833FBF8091790381FD73
:1019B00004C061E08AE00E948D0B8AE08093670397
:1019C000F801049100936803FE01C491EC2FF0E04C
:1019D000EE0FFF1FEA58FE4F8591949190936A0392
:1019E000809369031092AE021092AF021092B1027E
:1019F0001092B0021092B2021092B3021092B4028E
:101A00001092B5021092B6021092B8021092B7026C
:101A10001092B9021092BA021092BB021092BC024C
:101A20001092BD021092BF021092BE021092C0022C
:101A30001092C1021092C2021092C3021092C4020C
:101A40001092C6021092C5021092C7021092C802EC
:101A50001092C9021092CA021092CB021092D002C8
:101A60001092D1021092D2021092D3021092D4029C
:101A70001092D5021092DE021092DF021092E00264
:101A80001092E1021092E2021092E3021092EC0234
:101A90001092ED021092F2021092F3021092F402F0
:101AA0001092F5021092FA021092FB0210920003BB
:101AB0001092010310920203109203031092080384
:101AC0001092090310920E0310920F03109210034C
:101AD00010921103109216031092170310921C0318
:101AE00010921D0310921E0310921F0310922403E4
:101AF0001092250310922A0310922B0310922C03AC
:101B000010922D03109232031092330382E08093DF
:101B1000430310924403109245031092460310921F
:101B200048031092470310924A03109249031092FF
:101B30004B0310924C0310924D0310924E031092DF
:101B40004F031092500310925103109252031092BF
:101B5000530310925403109255031092560310929F
:101B60005703109258031092590310925A0310927F
:101B70003403DF91CF911F910F91FF90EF90DF9091
:101B8000CF900895CF93DF93CDB7DEB7E0970FB630
:101B9000F894DEBF0FBECDBF789484B5826084BD5B
:101BA00084B5816084BD85B5826085BD85B5816061
:101BB00085BD80916E00816080936E0010928100DF
:101BC000809181008260809381008091810081609A
:101BD000809381008091800081608093800080915B
:101BE000B10084608093B1008091B00081608093E7
:101BF000B00080917A00846080937A0080917A00AE
:101C0000826080937A0080917A00816080937A006C
:101C100080917A00806880937A001092C1001092BF
:101C2000760310927503109274031092730310924E
:101C30007203109271038DE991E090937803809381
:101C4000770390916703963108F047C02DEB30E0A1
:101C500030937203209371032BE931E030937403C6
:101C6000209373032CE231E03093760320937503C5
:101C70002091680084E0983048F031E09E3008F40C
:101C800030E081E001C0880F3A95EAF7822B80931B
:101C900068002DE630E0983050F02BE630E09E30C2
:101CA00030F02CE630E0963110F030E020E0309358
:101CB0006F0320936E03292F30E0983008F015C28F
:101CC00081E001C0880F9A95EAF7809370038091B4
:101CD0007703909178030197F1F7809175039091C4
:101CE0007603892B49F1E0910F02F091100223E075
:101CF000EB35F20709F1309739F0A389B4899C914B
:101D00008589809589238C93809179038E7F809338
:101D1000790310920E0210920D028BE593E09093DE
:101D2000100280930F02E0916E03F0916F038081A7
:101D300090917003892B80838CE296E09093A003AE
:101D400080939F036FEF70E089E893E00E94FF03A8
:101D500062E571E08FE893E00E94C20462E571E001
:101D600089E893E00E94C20462E571E085E993E0AE
:101D70000E94C20410928803109287031092860377
:101D8000109285031092840310929B0310929C037F
:101D900010929D0310929E03E0912102F091220285
:101DA00082E08083E0911D02F0911E021082E0919A
:101DB0001F02F09120028FEC808310922902E091A3
:101DC0002502F091260286E08083E0912302F091C3
:101DD0002402808180618083E0912302F0912402BB
:101DE000808188608083E0912302F09124028081C9
:101DF00080688083E0912302F091240280818F7DAE
:101E000080838E01075E1F4FAA24A394B12C22EA7F
:101E1000E22E21E0F22E33E0532E662463947724E1
:101E200073948091880310928803882309F46CC00E
:101E300069E873E0CE0101960E9410058D819E81B4
:101E4000892B51F066E971E089819A810E94A11C79
:101E5000DD24D394892B09F0D12CCE0101960E9468
:101E60005805DD2009F44EC1E0919F03F091A003D5
:101E7000099565E973E0CE0141960E9410058E89AF
:101E80008F938D898F93FF92EF921F925F921F9392
:101E90000F930E94C01CB801CE0109960E9447050D
:101EA00067EA71E0CE0101960E944705BE01675FB7
:101EB0007F4FCE0101960E948E04BE016F5E7F4F60
:101EC0000E948E04DC0114964D915C9115976D91E2
:101ED0007C9181E192E00E940A01CE0101960E946C
:101EE0005805CE0109960E945805CE0141960E94E0
:101EF000580562E571E085E993E00E94C2040FB6DF
:101F0000F894DEBF0FBECDBF82E0882E8BE593E054
:101F10000E94BC02181619060CF00DC48BE593E064
:101F20000E94D402982E80914B0390914C03A09173
:101F30004D03B0914E030196A11DB11D80934B033B
:101F400090934C03A0934D03B0934E03F4E29F167D
:101F500009F4D0C3E0914503F9150CF406C22AE058
:101F6000921619F08DE09812D2C3EF3008F07BC2C0
:101F7000F0E0EC5CFC4F108280913303882309F47D
:101F800080C220913403822F022E000C990B3FEB6C
:101F9000320F363008F0F6C1C7978295807F909156
:101FA0003503292F092E000C330B4FEB490F463018
:101FB00008F0F0C127533109820F90913203891341
:101FC0003FC28091570390915803A0915903B0915B
:101FD0005A030196A11DB11D809357039093580396
:101FE000A0935903B0935A0380914603882399F034
:101FF00080914F0390915003A0915103B0915203EF
:102000000196A11DB11D80934F0390935003A0939F
:102010005103B0935203D0904303DD2009F4C3C1B0
:10202000B1E0DB1234C080ED92E00E9430028EED10
:1020300092E00E94300280914603882341F187E0BC
:10204000EEEBF2E0A0EBB2E001900D928A95E1F7A1
:1020500087E0E5ECF2E0A7EBB2E001900D928A9503
:10206000E1F70E940D026093CC027093CD02809341
:10207000CE029093CF02D092AF02D092AE028CEEFD
:1020800092E00E9419028AEF92E00E941902C09029
:102090004903D0904A03C114D10409F4E4C1E0918A
:1020A0004903F0914A0366A177A1F60186A197A1A1
:1020B0000E94A11C892B09F0D6C1B601C601409629
:1020C0000E94AA1C0E940D02D60190966D937D93EA
:1020D0008D939C93939795966C92959794966C920A
:1020E00094979A96CD90DC90D6CF9E3040F42850AD
:1020F000310981E001C0880F2A95EAF7E6CD2E501C
:102100003109F7CF69E873E0CE0185960E9410058A
:10211000BE016B5D7F4FCE018E960E946005EFA5DC
:10212000F8A980917D0390917E038E179F0741F05F
:1021300064817581CE0185960E94F80297FF6AC07E
:10214000BE016B5D7F4FCE0141960E941005188E37
:102150001F8AC0908203D0908303BE016F5E7F4FC1
:10216000CE0101960E9410058F89988D98878F83E4
:10217000BE016F5F7F4FCE010996F6010995BE0142
:10218000675F7F4FCE018B960E946005CE01099656
:102190000E945805CE0101960E945805ECA5FDA5A8
:1021A00080917D0390917E038E179F0709F06AC08E
:1021B00080917F0390918003892BD1F586E090E098
:1021C0000E94B61A6C01BE016F5E7F4F0E9422050D
:1021D000D0927C03C0927B03E0917D03F0917E035B
:1021E000D182C082D60111961C921E921396FC9346
:1021F000EE931297B0928003A0927F03E0917D034B
:10220000F0917E03C080D180D8AACFA6CE0141969E
:102210000E945805EFA5F8A90480F581E02D0680FD
:10222000F781E02D0995CE0185960E9458056CCE68
:1022300086E090E00E94B61A6C01BE016F5E7F4F8F
:102240000E942205E0917D03F0917E0380819181BF
:10225000D60111969C938E931396FC93EE9312974E
:10226000A081B1811396DC92CE921297D182C08266
:1022700080917F03909180030196909380038093D7
:102280007F03BCCF8090820390908303C480D5806D
:10229000B601CE0109960E941005F601868197814C
:1022A000988B8F87BE01675F7F4FCE014F96F401F9
:1022B0000995C0908203D0908303BE016F5E7F4F6B
:1022C000CE0101960E9410058F89988D98878F8383
:1022D000BE016F5F7F4FC801F6010995BE01615EC7
:1022E0007F4FC8010E94F8026C01C8010E94580586
:1022F000CE0101960E945805CE014F960E945805C6
:10230000CE0109960E9458058CA49DA4D7FE2BC02F
:1023100086E090E00E94B61A6C01BE016F5E7F4FAE
:102320000E942205D4018D919C911197F601918311
:10233000808393828282892B89F4D0927C03C0921D
:102340007B03F401D182C08280917F03909180034E
:1023500001969093800380937F0356CFED91FC917B
:10236000D382C282EECF64014FCF9AE2991609F46C
:10237000FCCDACE29A12CBC18091320389258093C7
:102380003203F3CD2156263018F48755910905CE36
:10239000C09703CE9156963018F4275531090CCECC
:1023A0002053310909CE8EED92E00E9430028091D7
:1023B0004603882321F187E0EEEBF2E0A0EBB2E0E8
:1023C00001900D928A95E1F787E0E5ECF2E0A7EB4A
:1023D000B2E001900D928A95E1F70E940D026093A0
:1023E000CC027093CD028093CE029093CF02709274
:1023F000AF027092AE0288E093E00E9419028091D1
:10240000200390912103A0912203B0912303809394
:102410001C0390931D03A0931E03B0931F030E94FF
:102420000D02609318037093190380931A0390931D
:102430001B03709217037092160384E293E025CE7B
:102440008091530390915403A0915503B09156038A
:102450000196A11DB11D8093530390935403A09343
:102460005503B0935603809144038F5F80934403D8
:102470001092450381E0FAE29F1280E080933303DB
:1024800045CD90914403911145C06CEA71E084E31D
:1024900093E00E94A11C892B41F062EB71E084E380
:1024A00093E00E94A11C892BF9F470924303809160
:1024B00047039091480390934A0380934903C09047
:1024C0004903D0904A03C114D10469F264E373E074
:1024D000F60186A197A10E94A11C97FF34C1D601E5
:1024E0009A968D919C91E7CF68EB71E084E393E03D
:1024F0000E94A11C892B41F06EEB71E084E393E014
:102500000E94A11C892B19F410924303D0CF809212
:102510004303CDCFE0914303E23009F448C08091FA
:102520003403882309F443C0B0E2EB9FF001112487
:10253000E92B3197E932F10508F039C0EE55FD4E2F
:102540000C94941ACB120D1314131B131E134C135B
:10255000531360136D13D712D712D712D712D71295
:10256000D712D712D712D712D712D712D712D71223
:10257000D712D712D712D712D712D712D712D71213
:10258000D712D712CB1207130D1314131B131E13DC
:10259000251332133F1384E393E00E94AC0360934E
:1025A000E4027093E5028093E6029093E702C09004
:1025B0004903D0904A0340904403C114D10409F464
:1025C00052CFE0914903F0914A0366A177A1F60149
:1025D00086A197A10E94A11C892B09F044CFD601A6
:1025E00098962D913C91842D90E0821793070CF4DE
:1025F0003ACF2817390739F440E150E064E373E03B
:10260000C6010E94B11CF601C2A4D3A4D4CF91E0AC
:10261000813409F445C090E043C06EEB72E084E37E
:1026200093E00E942503C3CF91E0833509F090E049
:102630009093C402BCCF65EC72E0F1CF91E0873596
:1026400009F090E09093CB02B2CF84E393E00E9434
:10265000AC036093F6027093F7028093F8029093B4
:10266000F902A5CF84E393E00E94AC0360930403D6
:1026700070930503809306039093070398CF84E338
:1026800093E00E9458156093D6027093D70280930E
:10269000D8029093D9028BCF91E081330CF4BBCF59
:1026A0009093460384CF84E393E00E94581560938F
:1026B000200370932103809322039093230377CF09
:1026C00084E393E00E94AC0360932E0370932F0386
:1026D00080933003909331036ACF84E393E00E94A8
:1026E000AC036093120370931303809314039093CD
:1026F00015035DCF109245031092440310923203EC
:10270000809243031092330310924603FFCBEE30C6
:1027100040F481E08E0F80934503F0E0EC5CFC4FC9
:102720009082809133038111F1CB809132039826FE
:1027300090923203EBCB0E947401882309F471CB91
:102740000E9480095ECB892B09F48DCE10924A033A
:102750001092490388CECF93DF938CE191E0909360
:102760005C0380935B0380910F02909110028B5564
:10277000934071F4E0916E03F0916F03908180912A
:1027800070038095892380831092100210920F02AB
:1027900085E993E00E9458058FE893E00E94580570
:1027A00089E893E00E945805E0917B03F0917C0357
:1027B00080917F0390918003892B71F10280F381D6
:1027C000E02DF0937C03E0937B030190F081E02DFA
:1027D000C481D581209731F0CE010E945805CE01E9
:1027E0000E94521BE0917B03F0917C0380819181D8
:1027F000009711F00E94521BE0917B03F0917C0343
:102800001182108280917F039091800301979093B1
:10281000800380937F03C8CFC481D581209731F096
:10282000CE010E945805CE010E94521B80917B036D
:1028300090917C03009721F0DF91CF910C94521B73
:10284000DF91CF910895EF920F931F93CF93DF9372
:10285000E80134E047FD34E1042E000C550B57FF2E
:1028600003C0519541955109E32E022F242FAE014B
:102870000E94D915CE01DF91CF911F910F91EF905A
:102880000895B0E0A0E0E7E4F4E10C945C195C0189
:102890006B017A016115710519F0FB019183808349
:1028A000E114F10451F0C7010297839730F040E042
:1028B00030E020E090E072C05E01E5012196F50174
:1028C0001081812F90E00E947F15892BA9F71D327E
:1028D00001F52196F501118101E0E114F10409F4FB
:1028E000DAC0F0E1EF16F10409F082C0103359F4B8
:1028F00088818F7D883509F076C019812296026023
:10290000F0E1EF2EF12C812C912CA12C88E0B82E37
:102910008CC01B3221F4E5012296F501118100E003
:10292000DCCFEAE0EE16F10409F4BBC0F0E1EF16EB
:10293000F10409F06DC0E7CF78E0E72EF12C812C8F
:10294000912CA12C60E1B62E70C03FE9310F3A31D5
:1029500028F439EA332E80C021E09AC0302F31703C
:10296000C114D10431F0222309F12197F601D1835A
:10297000C08327FF21C060E070E080E090E8311163
:1029800004C06FEF7FEF8FEF9FE722E230E03093DC
:10299000A2032093A103462F372F282F642F732FD4
:1029A000822FCDB7DEB7E1E10C94781901FF04C0A6
:1029B0002297F601D183C083332341F0909580950F
:1029C000709561957F4F8F4F9F4FE5CF97FFE3CF76
:1029D00082E290E09093A2038093A1036FEF7FEFD8
:1029E0008FEF9FE7D8CF10E3E114F10409F4A4CFEF
:1029F00028E0E216F10409F4A2CF0CF092CF812C6A
:102A0000912CA12CE0E4BE2E82E0E816F10469F0DE
:102A100060E070E080E090E897010F2C000C440B20
:102A2000550B0E942E1949015A0120E060E070E028
:102A3000CB0127010F2C000C66087708FE0150ED32
:102A4000352E310E39E0331540F43FEB310F3A317A
:102A500008F07BCF49EC342E310E3E141F040CF0ED
:102A60007DCF27FD15C086169706A806B90678F013
:102A7000A30192010E941E19630D711D811D911DFC
:102A800061307105810520E8920708F465CF2FEFCA
:102A900021961081D3CF103309F42ACF2AE0E22EF9
:102AA000F12C9CEC892E982CA82C9CE0B92EBDCF43
:102AB0001F93FC0199278827BC01E89411911032DB
:102AC000E9F3193010F01E30C8F31B3251F01D32FB
:102AD00049F4689406C00E948815610F711D811D1C
:102AE000911D119110531A30B0F33EF490958095DA
:102AF000709561957F4F8F4F9F4F1F910895911152
:102B00000C941018803219F089508550C8F7089538
:102B1000592F482F372F262F660F771F881F991F91
:102B2000660F771F881F991F620F731F841F951FE1
:102B3000660F771F881F991F0895BB27FA01A62FDC
:102B40006217710581059105330B30FB66F0AA27EA
:102B5000660F771F881F991FAA1FA21710F0A21BCC
:102B600063953850A9F7A05DAA3308F0A95DA19339
:102B700036F7B111B1931082CA010C941318BB2718
:102B8000FB015527AA27880F991FAA1FA41710F029
:102B9000A41B83955051B9F7A05DAA3308F0A95D35
:102BA000A193009779F7B111B1931192CB010C94D5
:102BB0001318A9E0B0E0EFEDF5E10C9461196A019A
:102BC000F22EB02E102FFBE3AF2EA01608F41BE35D
:102BD0001F5F012F27E0AE014F5F5F4F0E94381744
:102BE000BC018981982F9970913009F43FC09BE214
:102BF000E1FC04C09E2D9170E0FC3AC05E2D507146
:102C0000E82FE87083FF46C084E0911101C083E0A3
:102C1000EF2DE81B8F1508F0E0E0D6018E2F20E2A3
:102C2000552351F1992329F0D6019C93C6010196B1
:102C30006C0196012D5F3F4FE2FE24C08EE4D60169
:102C40008C9391E411969C93119712968C93D901D1
:102C50008E2F90E281111BC0E20FF32FF11D108225
:102C60008EEF9FEF2996ECE00C947D199DE2C6CF84
:102C700090E2C4CF2D9381508111FCCFCE0ED11C98
:102C8000E0E0D0CF8EE6D6018C9391E6DBCF9D932A
:102C90008150E0CF482F447082FF3DC084E0911105
:102CA00001C083E08F1510F4EF2DE81BD6018E2FA5
:102CB00020E2552309F1992329F0D6019C93C601FE
:102CC00001966C0196012D5F3F4FE2FE1BC089E427
:102CD000D6018C938EE411968C93119786E412960C
:102CE0008C93D9018E2F90E2882309F4B5CF9D9360
:102CF0008150FACF2D9381508111FCCFCE0ED11C83
:102D0000E0E0D9CF89E6D6018C938EE611968C93BC
:102D1000119786E6E4CF9B0177FF02C030E020E008
:102D2000A1E0B0E0911102C0B0E0A0E0F90131965D
:102D3000AE0FBF1F8B2C912CBB2009F461C0540136
:102D4000EFEFAE1ABE0AAA0DBB1DFA161B0619F04C
:102D500014F04F2D4A1B511188C0E3FC59C0760175
:102D6000A42FB0E2A1114FC0C40ED11C992309F4C5
:102D70005BC040E0D6011196F60190836D015523AA
:102D800009F448C0012F060F9A81582F507184FF13
:102D900003C0913309F4015010160CF047C00930FC
:102DA00008F008E0EEE2FE2E5B01A01AB1088501F2
:102DB0009194819491082F3F320729F4D601FC9217
:102DC000F60131966F016217730794F1021713072A
:102DD0007CF5DB01A21BB30BAA24A394B12CAC0E8F
:102DE000BD1EAA0DBB1D11968C9121503109D60133
:102DF000119628153905F4F0F60180836D01DBCFBB
:102E0000B12CA12CA0CFF701B1937F01A150AACF83
:102E10009111B0CFD601942F50E302C05D93915031
:102E20009111FCCFC40ED11C40E0ACCF01E0BACF71
:102E300080E3DBCF6217730731F4963388F4953360
:102E400011F4552369F0F6018083FD01842F90E28F
:102E5000811108C0A40FB11D1C9290E080E002CF48
:102E600081E3F1CF91938150F3CF911183CF8ACF3A
:102E7000283008F027E03327DA01990F311D87FD4C
:102E8000916000966105710539F432602E5F3D93C3
:102E900030E32A95E1F708959F3F30F080387105BF
:102EA000610509F03C5F3C5F3D93913008F080681C
:102EB000911DDF93CF931F930F93FF92EF92192FE2
:102EC000987F9695E92F96959695E90FFF27EE53F3
:102ED000FF4F99273327EE24FF24A701E701059030
:102EE0000894079428F4360FE71EF81E491F511D59
:102EF000660F771F881F991F0694A1F70590079406
:102F000028F4E70EF81E491F561FC11D770F881FB2
:102F1000991F661F0694A1F70590079428F4F80EF0
:102F2000491F561FC71FD11D880F991F661F771F86
:102F30000694A1F70590079420F4490F561FC71F68
:102F4000D81F990F661F771F881F0694A9F78491D1
:102F50001095177041F0D695C79557954795F794FA
:102F6000E7941A95C1F7E8E6F0E06894159015919A
:102F700035916591959105907FE27395E118F10A7D
:102F8000430B560BC90BD009C0F7E10CF11E431FD0
:102F9000561FC91FD01D7EF4703311F48A95E6CFF9
:102FA000E894015030F0080F0AF40027021708F4E3
:102FB000202F2395022F7A3328F079E37D932A95E9
:102FC000E9F710C07D932A9589F606949795679541
:102FD000379517951794E118F10A430B560BC90B57
:102FE000D00998F023957E9173957A3308F070E3B9
:102FF0007C932013B8F77E9170617D9330F08395B8
:1030000071E37D9370E32A95E1F71124EF90FF902F
:103010000F911F91CF91DF91992787FD909508958A
:10302000992788270895DC01FC01672F7191772388
:10303000E1F7329704C07C916D9370836291AE1773
:10304000BF07C8F30895E89409C097FB3EF4909534
:103050008095709561957F4F8F4F9F4F9923A9F071
:10306000F92F96E9BB279395F69587957795679500
:10307000B795F111F8CFFAF4BB0F11F460FF1BC044
:103080006F5F7F4F8F4F9F4F16C0882311F096E9D7
:1030900011C0772321F09EE8872F762F05C0662385
:1030A00071F096E8862F70E060E02AF09A95660F3E
:1030B000771F881FDAF7880F9695879597F90895F7
:1030C0000E9473180C94E4180E94D61838F00E94DD
:1030D000DD1820F0952311F00C94CD180C94D31822
:1030E00011240C9418190E94F51870F3959FC1F3E0
:1030F000950F50E0551F629FF001729FBB27F00DA6
:10310000B11D639FAA27F00DB11DAA1F649F6627FA
:10311000B00DA11D661F829F2227B00DA11D621F49
:10312000739FB00DA11D621F839FA00D611D221F03
:10313000749F3327A00D611D231F849F600D211DE7
:10314000822F762F6A2F11249F5750409AF0F1F06A
:1031500088234AF0EE0FFF1FBB1F661F771F881FD3
:1031600091505040A9F79E3F510580F00C94CD1826
:103170000C9418195F3FE4F3983ED4F38695779545
:103180006795B795F795E7959F5FC1F7FE2B880F79
:10319000911D9695879597F9089597F99F6780E80F
:1031A00070E060E008959FEF80EC089500240A9499
:1031B0001616170618060906089500240A94121612
:1031C0001306140605060895092E0394000C11F445
:1031D000882352F0BB0F40F4BF2B11F460FF04C0F2
:1031E0006F5F7F4F8F4F9F4F089557FD9058440F4B
:1031F000551F59F05F3F71F04795880F97FB991F56
:1032000061F09F3F79F08795089512161306140612
:10321000551FF2CF4695F1DF08C01616170618069F
:10322000991FF1CF86957105610508940895E8947A
:10323000BB2766277727CB0197F90895DB018F938A
:103240009F930E945019BF91AF91A29F800D911D35
:10325000A39F900DB29F900D11240895A1E21A2E04
:10326000AA1BBB1BFD010DC0AA1FBB1FEE1FFF1F2A
:10327000A217B307E407F50720F0A21BB30BE40B7A
:10328000F50B661F771F881F991F1A9469F76095C1
:103290007095809590959B01AC01BD01CF0108957B
:1032A0000E949219A59F900DB49F900DA49F800D30
:1032B000911D112408952F923F924F925F926F9229
:1032C0007F928F929F92AF92BF92CF92DF92EF92B6
:1032D000FF920F931F93CF93DF93CDB7DEB7CA1B37
:1032E000DB0B0FB6F894DEBF0FBECDBF09942A8862
:1032F000398848885F846E847D848C849B84AA840A
:10330000B984C884DF80EE80FD800C811B81AA8196
:10331000B981CE0FD11D0FB6F894DEBF0FBECDBF61
:10332000ED010895A29FB001B39FC001A39F700D4E
:10333000811D1124911DB29F700D811D1124911DBD
:1033400008955058BB27AA270E94B9190C94E41875
:103350000E94D61838F00E94DD1820F039F49F3F03
:1033600019F426F40C94D3180EF4E095E7FB0C94B2
:10337000CD18E92F0E94F51858F3BA1762077307A2
:103380008407950720F079F4A6F50C9417190EF42C
:10339000E0950B2EBA2FA02D0B01B90190010C0165
:1033A000CA01A0011124FF27591B99F0593F50F47D
:1033B000503E68F11A16F040A22F232F342F4427D5
:1033C000585FF3CF469537952795A795F0405395CD
:1033D000C9F77EF41F16BA0B620B730B840BBAF09D
:1033E0009150A1F0FF0FBB1F661F771F881FC2F708
:1033F0000EC0BA0F621F731F841F48F4879577951C
:103400006795B795F7959E3F08F0B0CF9395880FD5
:1034100008F09927EE0F9795879508950E94221A34
:103420000C94E4180E94DD1858F00E94D61840F061
:1034300029F45F3F29F00C94CD1851110C94181900
:103440000C94D3180E94F51868F39923B1F355230F
:1034500091F3951B550BBB27AA27621773078407A7
:1034600038F09F5F5F4F220F331F441FAA1FA9F33D
:1034700035D00E2E3AF0E0E832D091505040E6952B
:10348000001CCAF72BD0FE2F29D0660F771F881F8C
:10349000BB1F261737074807AB07B0E809F0BB0B7F
:1034A000802DBF01FF2793585F4F3AF09E3F510593
:1034B00078F00C94CD180C9418195F3FE4F3983E03
:1034C000D4F3869577956795B795F7959F5FC9F77C
:1034D000880F911D9695879597F90895E1E0660FFD
:1034E000771F881FBB1F621773078407BA0720F076
:1034F000621B730B840BBA0BEE1F88F7E0950895DF
:1035000097FB072E16F4009407D077FD09D00E9490
:10351000A21A07FC05D03EF4909581959F4F08951F
:10352000709561957F4F0895EE0FFF1F0590F49100
:10353000E02D0994B7FF0C9450190E945019821B7A
:10354000930B0895AA1BBB1B51E107C0AA1FBB1F09
:10355000A617B70710F0A61BB70B881F991F5A951F
:10356000A9F780959095BC01CD0108950F931F9305
:10357000CF93DF938230910510F482E090E0E091E8
:10358000A503F091A60330E020E0B0E0A0E0309782
:1035900099F42115310509F44AC0281B390B243050
:1035A0003105D8F58A819B816115710589F1FB018F
:1035B00093838283FE0111C0408151810281138176
:1035C00048175907E0F04817590799F4109761F028
:1035D00012960C93129713961C933296CF01DF919B
:1035E000CF911F910F9108950093A5031093A60307
:1035F000F4CF2115310551F04217530738F0A901D6
:10360000DB019A01BD01DF01F801C1CFEF01F9CF64
:103610009093A6038093A503CDCFFE01E20FF31F85
:10362000819391932250310939832883D7CF2091F8
:10363000A3033091A403232B41F420910201309184
:1036400003013093A4032093A30320910001309140
:1036500001012115310541F42DB73EB74091040118
:1036600050910501241B350BE091A303F091A403B5
:10367000E217F307A0F42E1B3F0B2817390778F049
:10368000AC014E5F5F4F2417350748F04E0F5F1FA8
:103690005093A4034093A303819391939FCFF0E0B1
:1036A000E0E09CCFCF93DF930097E9F0FC013297E5
:1036B00013821282A091A503B091A603ED0130E020
:1036C00020E01097A1F420813181820F931F209177
:1036D000A3033091A4032817390709F061C0F093C0
:1036E000A403E093A303DF91CF910895EA01CE17DD
:1036F000DF07E8F54A815B819E0141155105B1F76D
:10370000E901FB83EA8349915991C40FD51FEC1756
:10371000FD0761F4808191810296840F951FE90174
:1037200099838883828193819B838A83F0E0E0E0A0
:1037300012968D919C9113970097B9F52D913C911C
:103740001197CD010296820F931F2091A303309110
:10375000A4032817390739F6309751F51092A603BC
:103760001092A503B093A403A093A303BCCFD3836B
:10377000C28340815181840F951FC817D90761F416
:103780004E5F5F4F88819981480F591F5183408355
:103790008A819B81938382832115310509F0B0CF03
:1037A000F093A603E093A5039ECFFD01DC01C0CFFB
:1037B00013821282D7CFB0E0A0E0E1EEFBE10C94DF
:1037C0005D198C01009751F4CB010E94B61A8C014F
:1037D000C801CDB7DEB7E0E10C947919FC01E60F22
:1037E000F71F9C0122503109E217F30708F49DC02E
:1037F000D901CD91DC911197C617D70798F0C53044
:10380000D10530F3CE0104978617970708F3C61B3E
:10381000D70B2297C193D1936D937C93CF010E94D4
:10382000521BD6CF5B01AC1ABD0A4C018C0E9D1EFB
:10383000A091A503B091A603512C412CF12CE12CB1
:10384000109731F58091A3039091A40388159905F1
:1038500009F05CC04616570608F058C08091000178
:1038600090910101009741F48DB79EB740910401FA
:1038700050910501841B950BE817F90708F055C016
:10388000F093A403E093A303F90171836083A0CFB5
:103890008D919C91119712966C90129713967C9033
:1038A0001397A815B90559F56C0142E0C40ED11C57
:1038B000CA14DB0420F1AC014A195B09DA01129643
:1038C000159780F06282738251834083D9016D9392
:1038D0007C93E114F10471F0D7011396FC93EE93FD
:1038E000129776CF22968C0F9D1FF90191838083CA
:1038F000F301EFCFF093A603E093A50369CF481639
:10390000590608F42C017D01D3019ACFCB010E9406
:10391000B61A7C01009749F0AE01B8010E94981CCC
:10392000C8010E94521B870153CF10E000E050CF26
:10393000FB01DC0102C001900D9241505040D8F7CC
:103940000895FB01DC018D91019080190110D9F3DC
:10395000990B0895FB01DC0101900D920020E1F725
:103960000895FB01DC014150504048F001900D9258
:103970000020C9F701C01D9241505040E0F7089562
:10398000AEE0B0E0E6ECFCE10C9469190D891E890B
:103990008F89988D26E02C831A83098397FF02C0B4
:1039A00080E090E801979E838D83AE01455E5F4F76
:1039B000698D7A8DCE0101960E94F01C4D815E8149
:1039C00057FD0AC02F813885421753070CF49A011E
:1039D000020F131FF80110822E96E4E00C94851953
:1039E000ABE0B0E0E6EFFCE10C945B197C013B013D
:1039F0008A01FC0117821682838181FFC8C1CE0132
:103A000001965C01F7019381F30193FD859193FF8A
:103A100081913F01882309F453C1853239F493FD24
:103A2000859193FF81913F01853229F4B70190E0A0
:103A30000E94E01EE7CF912C212C312CFFE1F315E1
:103A400038F08B3211F190F4803209F1833229F190
:103A500037FC3CC020ED280F2A3050F536FE20C040
:103A60008AE0989E200D1124922E06C08D3291F08E
:103A7000803371F7689430F8F30193FD859193FFDB
:103A800081913F018111DACF21C0689431F86894A7
:103A900032F8F2CF689433F8EFCF689434F8ECCF73
:103AA000EAE02E9E200D1124222E689435F8E4CFF2
:103AB0008E3229F436FC04C1689436F8DDCF8C369A
:103AC00019F4689437F8D8CF8836B1F2982F9F7DD3
:103AD00095549330E0F08336A1F18337C1F18335FB
:103AE00009F063C02801F2E04F0E511CF801C080BC
:103AF000D180692D70E036FC02C06FEF7FEFC60108
:103B00000E94CA1E4C01689437F882010AC00C5FFB
:103B10001F4FFFE3F98388248394912C6501E89477
:103B200037F833FE2DC0522C8114910471F55520C5
:103B300009F468CFB70180E290E00E94E01E5A9439
:103B4000F6CFF801808189830E5F1F4FE4CF2801F3
:103B5000F2E04F0E511CF801C080D180692D70E059
:103B600036FC02C06FEF7FEFC6010E94D51E4C01EC
:103B70008201D5CFB70180E290E00E94E01E2A9436
:103B80002814190409F0B0F7CECFF60137FC85915F
:103B900037FE81916F01B70190E00E94E01E511045
:103BA0005A94F1E08F1A9108BFCF843619F0893604
:103BB00009F077C0F80137FE6BC0608171818281A6
:103BC00093810C5F1F4FF32DFF763F2E97FF09C0A7
:103BD00090958095709561957F4F8F4F9F4F68941A
:103BE00037F82AE030E0A5010E94101FC82ECA183D
:103BF0008C2C432C36FE0CC0E89440F8C91440F4D9
:103C000034FE05C032FC03C0F32DFE7E4F2E892CFE
:103C100044FE95C0FE01EC0DF11D8081803309F05A
:103C200087C0242D297E422E842D8870582E43FC77
:103C300095C040FE8FC09C2C821418F42C0C922C42
:103C4000981844FE91C0B70180E390E00E94E01E06
:103C500042FE09C088E790E041FE02C088E590E09E
:103C6000B7010E94E01EC91408F48AC0CA94D12C7E
:103C70009FEFC91AD90ACA0CDB1CF60182916F01A9
:103C8000B70190E00E94E01EAC14BD04B1F74FCF25
:103C900060817181072E000C880B990B0E5F1F4FFE
:103CA00092CFD32CE894D4F82AE030E0853739F16C
:103CB000232D297FD22E8F3601F148F48835A9F0C3
:103CC000F701868197812B96E2E10C947719803772
:103CD00049F08837A9F7D4FE02C06894D2F820E1F1
:103CE00030E00DC06894D4F8F6CF34FE03C0822FC4
:103CF0008660D82E20E132E002C028E030E0F801F2
:103D0000D7FE0FC060817181828193810C5F1F4F4C
:103D1000A5010E94101FC82ECA183D2CE89437F840
:103D200067CF6081718190E080E00E5F1F4FF0CF20
:103D300042FC02C0839478CF8394839475CF842D02
:103D4000867809F471CFF6CFB70180E290E00E9447
:103D5000E01E83948214C0F3512C73CF522C581858
:103D6000821408F46ECFF8CF842D867809F47BCFC7
:103D70008BE241FE80E247FC8DE2B70190E071CF1B
:103D8000B70180E390E00E94E01E9A946CCF8FEF21
:103D90009FEF99CFFC010590615070400110D8F75A
:103DA000809590958E0F9F1F0895FC016150704083
:103DB00001900110D8F7809590958E0F9F1F089560
:103DC0000F931F93CF93DF93182F092FEB018B8154
:103DD00081FD09C01FEF0FEF812F902FDF91CF9151
:103DE0001F910F91089582FF14C02E813F818C8115
:103DF0009D81281739073CF4E881F981CF010196AC
:103E00009983888310838E819F8101969F838E83FF
:103E1000E3CFE885F985812F0995892BA1F3DACFC6
:103E2000FA01AA27283051F1203181F1E8946F93EB
:103E30006E7F6E5F7F4F8F4F9F4FAF4FB1E03ED091
:103E4000B4E03CD0670F781F891F9A1FA11D680F2F
:103E5000791F8A1F911DA11D6A0F711D811D911D62
:103E6000A11D20D009F468943F912AE0269F1124D7
:103E70003019305D3193DEF6CF010895462F47703B
:103E8000405D4193B3E00FD0C9F7F6CF462F4F7096
:103E9000405D4A3318F0495D31FD4052419302D0F4
:103EA000A9F7EACFB4E0A69597958795779567959A
:103EB000BA95C9F700976105710508959B01AC019A
:103EC0000A2E06945795479537952795BA95C9F7C1
:103ED000620F731F841F951FA01D089510E0CFED82
:103EE000D0E004C0FE010E94941A2196C03ED10782
:063EF000C9F7F894FFCFB2
:103EF6000000A703800000000000A0010A013701AE
:103F0600ED01680146015A010000000060020A0145
:103F1600F5025F02BC02D40247023B006465766983
:103F260063652867707352656164657229006C6108
:103F360074697475646528006C6F6E67697475645E
:103F460065280064617465280074696D65280061E0
:103F56006C746974756465286D65746572732C007C
:103F66007370656564286B6D70682C00636F75727D
:103F760073652800736174656C6C697465732800D9
:103F860068646F7028006765745065726365707445
:103F96007300253032580066666665004750524DFC
:103FA6004300474E524D4300475047474100474E56
:043FB6004747410038
:00000001FF
