:100000000C94E0000C9408010C9408010C94080175
:100010000C9408010C9408010C9408010C9408013C
:100020000C9408010C9408010C9408010C9408012C
:100030000C9408010C9408010C9408010C9408011C
:100040000C94620A0C9408010C94300A0C940A0A6D
:100050000C9408010C9408010C9408010C940801FC
:100060000C9408010C94080100407A10F35A00A087
:10007000724E18090010A5D4E80000E87648170071
:1000800000E40B54020000CA9A3B000000E1F505B1
:10009000000080969800000040420F000000A086FB
:1000A00001000000102700000000E803000000002D
:1000B0006400000000000A000000000001000000D1
:1000C00000002C76D888DC674F0823DFC1DFAE59EB
:1000D000E1B1B796E5E3E453C63AE651997696E87E
:1000E000E6C28426EB898C9B62ED407C6FFCEFBC02
:1000F0009C9F40F2BAA56FA5F490055A2AF75C932D
:100100006B6CF9676DC11BFCE0E40D47FEF520E662
:10011000B500D0ED902E0300943577050080841E45
:10012000080000204E0A000000C80C333333330FA0
:10013000986E12831141EF8D2114893BE65516CF3D
:10014000FEE6DB18D1844B381BF77C1D901DA4BB49
:10015000E424203284725E228100C9F124ECA1E5FE
:100160003D2700000000240027002A0000000000B6
:10017000250028002B000000000023002600290095
:10018000040404040404040402020202020203033D
:100190000303030301020408102040800102040845
:1001A00010200102040810200000000800020100D5
:1001B000000304070000000000000000F10A7B0DAE
:1001C00011241FBECFEFD8E0DEBFCDBF22E0A4E1F7
:1001D000B2E001C01D92A13FB207E1F712E0A0E03A
:1001E000B1E0E2E2F1E302C005900D92A431B10763
:1001F000D9F710E0CFEDD0E004C02197FE010E94B6
:10020000D513CE3DD107C9F70E94690B0C94841811
:100210000C940000AF92BF92CF92DF92EF92FF92C8
:100220000F931F93CF93DF936C017B018B01040F1E
:10023000151FEB015E01AE18BF08C017D10759F0BA
:100240006991D601ED91FC910190F081E02DC601FC
:100250000995892B79F7C501DF91CF911F910F91F6
:10026000FF90EF90DF90CF90BF90AF900895FC018A
:10027000538D448D252F30E0842F90E0821B930B0B
:10028000541710F0CF96089501970895FC01918DB1
:10029000828D981761F0A28DAE0FBF2FB11D5D96B4
:1002A0008C91928D9F5F9F73928F90E008958FEF56
:1002B0009FEF0895FC01918D828D981731F0828D0A
:1002C000E80FF11D858D90E008958FEF9FEF089561
:1002D000FC01918D228D892F90E0805C9F4F821BC5
:1002E00091098F739927089581E292E00E94680135
:1002F00021E0892B09F420E0822F0895FC01A48DD0
:10030000A80FB92FB11DA35ABF4F2C91848D90E037
:1003100001968F739927848FA689B7892C93A0891A
:10032000B1898C91837080648C93938D848D9813A4
:1003300006C00288F389E02D80818F7D8083089537
:10034000EF92FF920F931F93CF93DF93EC0181E025
:10035000888F9B8D8C8D98131AC0E889F9898081CC
:1003600085FF15C09FB7F894EE89FF896083E889FF
:10037000F98980818370806480839FBF81E090E0F1
:10038000DF91CF911F910F91FF90EF900895F62E7E
:100390000B8D10E00F5F1F4F0F731127E02E8C8D18
:1003A0008E110CC00FB607FCFACFE889F98980815D
:1003B00085FFF5CFCE010E947E01F1CFEB8DEC0FD2
:1003C000FD2FF11DE35AFF4FF0829FB7F8940B8F7A
:1003D000EA89FB8980818062CFCFCF93DF93EC01E4
:1003E000888D8823B9F0AA89BB89E889F9898C911D
:1003F00085FD03C0808186FD0DC00FB607FCF7CFD9
:100400008C9185FFF2CF808185FFEDCFCE010E94D8
:100410007E01E9CFDF91CF910895833081F028F4F8
:10042000813099F08230A9F008958730A9F08830A2
:10043000C9F08430B1F4809180008F7D03C0809139
:1004400080008F7780938000089584B58F7784BD76
:10045000089584B58F7DFBCF8091B0008F77809316
:10046000B00008958091B0008F7DF9CFCF93DF93D6
:10047000282F30E0F901E855FE4F8491F901EC5640
:10048000FE4FD491F901E058FE4FC491CC23A1F066
:1004900081110E940D02EC2FF0E0EE0FFF1FEA58D1
:1004A000FE4FA591B491EC91ED2381E090E009F429
:1004B00080E0DF91CF91089580E090E0FACF1F9324
:1004C000CF93DF93282F30E0F901E855FE4F849158
:1004D000F901EC56FE4FD491F901E058FE4FC4915A
:1004E000CC23A9F0162F81110E940D02EC2FF0E011
:1004F000EE0FFF1FE459FE4FA591B4918FB7F8940A
:10050000EC91111108C0D095DE23DC938FBFDF91F1
:10051000CF911F910895DE2BF8CFCF93DF9390E01A
:10052000FC01EC56FE4F249180589E4FFC018491B3
:100530008823D1F090E0880F991FFC01EE59FE4FFF
:10054000A591B491FC01E459FE4FC591D49161117C
:100550000EC09FB7F8948C91E22FE0958E238C9378
:100560002881E223E8839FBFDF91CF9108958FB761
:10057000F894EC91E22BEC938FBFF6CF1F93CF93BF
:10058000DF93182FEB0161E00E948D02209739F470
:1005900060E0812FDF91CF911F910C945F02CF3FDC
:1005A000D10511F461E0F5CFE12FF0E0E855FE4F01
:1005B000E491E33031F140F4E130B1F0E230E1F0C8
:1005C000C038D1057CF7E4CFE73029F1E83059F1A4
:1005D000E430B1F780918000806280938000D093F6
:1005E0008B00C0938A0004C084B5806884BDC7BDF9
:1005F000DF91CF911F91089584B5806284BDC8BDFD
:10060000F7CF80918000806880938000D09389002C
:10061000C0938800EDCF8091B00080688093B000D7
:10062000C093B300E5CF8091B00080628093B000AA
:10063000C093B400DDCF6FEF70E085E00E94BE0292
:1006400070E060E086E00E94BE026FEF70E089E03B
:100650000E94BE0270E060E08AE00C94BE0270E08E
:1006600060E085E00E94BE026FEF70E086E00E94CD
:10067000BE0270E060E089E00E94BE026FEF70E0B1
:100680008AE00C94BE0270E060E085E00E94BE0249
:1006900070E060E086E00E94BE0270E060E089E009
:1006A0000E94BE0270E060E08AE00C94BE026FEF30
:1006B00070E085E00E94BE0270E060E086E00E948B
:1006C000BE0270E060E089E00E94BE026FEF70E061
:1006D0008AE00C94BE0270E060E085E00E94BE02F9
:1006E0006FEF70E086E00E94BE026FEF70E089E07D
:1006F0000E94BE0270E060E08AE00C94BE028E3080
:1007000008F08E508770806480937C0080917A001E
:10071000806480937A0080917A0086FDFCCF80917E
:1007200078009091790008952FB7F894609119029C
:1007300070911A0280911B0290911C022FBF0895A4
:10074000FC0124813581232B69F068E171E080810F
:1007500091810E94C615892B29F46FEB70E08BE024
:100760000C94BE0260E08BE00C945F02CF93DF93A9
:10077000EC01A881B981EB01E881F9811097F1F0D2
:100780003097B1F4EC018C819D81892BC9F08C915B
:1007900090E00BC0DB0114968D919C91892B81F028
:1007A000808190E0919581959109DF91CF91089595
:1007B000BF01CD01DF91CF910C94C615309751F751
:1007C00090E080E0F2CF0F931F93CF93DF93EC0183
:1007D00088819981009759F02A813B812617370734
:1007E00030F081E0DF91CF911F910F9108958B013F
:1007F0006F5F7F4F0E940015009759F0998388839F
:100800001B830A832C813D81232B59F7FC01108225
:10081000E8CF80E0E7CFEF92FF920F931F93CF9343
:10082000DF936115710541F480E0DF91CF911F9155
:100830000F91FF90EF90089541155105B1F07B01A4
:10084000EC010C811D81040F151FB8010E94E30308
:10085000882351F3288139818C819D81B701820FD2
:10086000931F0E94CF151D830C8381E0DECFCF93B1
:10087000DF9300D0CDB7DEB769831A8241E050E044
:10088000BE016F5F7F4F0E940B040F900F90DF91AE
:10089000CF910895CF93DF93EC01888199810097E0
:1008A00011F00E947714198218821D821C821B820B
:1008B0001A82DF91CF910895CF93DF93EC01FB0172
:1008C00001900020E9F73197AF01461B570B0E94BA
:1008D0000B04811103C0CE010E944A04CE01DF91B6
:1008E000CF910895CF93DF93EC01FB0144815581B3
:1008F000608171810E940B04811103C0CE010E94AE
:100900004A04CE01DF91CF910895EF92FF920F93A9
:100910001F93CF93DF93EC017B018A01BA010E9400
:10092000E30381110BC0CE010E944A04CE01DF9186
:10093000CF911F910F91FF90EF9008951D830C832D
:10094000B701888199810E94CF15F0CFFB010190FA
:100950000020E9F73197AF01461B570B0C94850433
:100960000F931F93CF93DF93CDB7DEB762970FB688
:10097000F894DEBF0FBECDBF8C01CB01F801118210
:10098000108213821282158214824AE0BE016F5FC8
:100990007F4F0E941E0FBE016F5F7F4FC8010E94F4
:1009A000A60462960FB6F894DEBF0FBECDBFDF91EE
:1009B000CF911F910F910895CF93DF93EC01FB012D
:1009C0008617970749F0608171816115710541F0C3
:1009D000448155810E948504CE01DF91CF91089515
:1009E0000E944A04F9CFFC01118210821382128204
:1009F000158214820C94DC04CF93DF93EC010E94E7
:100A0000F304CE01DF91CF910895EF92FF920F93FF
:100A10001F93CF93DF93EC017B01198218821B8215
:100A20001A821D821C8288E090E00E94DB138C01F8
:100A3000B7010E94F304F70186819781F80197833B
:100A400086831D830C83DF91CF911F910F91FF90BF
:100A5000EF900895FC011182108213821282158298
:100A60001482FB0101900020E9F73197AF01461B8A
:100A7000570B0C948504FC0180819181009711F043
:100A80000C9477140895AF92BF92CF92DF92EF92B9
:100A9000FF920F931F93CF93DF93CDB7DEB72E97BF
:100AA0000FB6F894DEBF0FBECDBF8C016B018091F5
:100AB000C5029091C602D80112969C938E9311970D
:100AC000D8011196ED91FC918091C7029091C802D6
:100AD0008E179F0779F1A090CC02B090CD02E480F0
:100AE000F580B701CE0101960E94F304F7018681DB
:100AF000978198878F83BE016F5F7F4FCE010996E4
:100B0000F5010995B601CE0109960E94B6037C0154
:100B1000CE0109960E943B05CE0101960E943B053D
:100B2000F7FE08C0D8011196ED91FC9112978281D1
:100B30009381C2CFC8012E960FB6F894DEBF0FBEC8
:100B4000CDBFDF91CF911F910F91FF90EF90DF907C
:100B5000CF90BF90AF900895CF93DF9300D000D097
:100B600000D0CDB7DEB768E171E0CE0101960E94FA
:100B70002A05CE0101960E94A003CE0101960E9493
:100B80003B0526960FB6F894DEBF0FBECDBFDF91B2
:100B9000CF910895CF93DF9300D000D000D0CDB790
:100BA000DEB76BE171E0CE0101960E942A05CE010D
:100BB00001960E94A003CE0101960E943B05269655
:100BC0000FB6F894DEBF0FBECDBFDF91CF91089571
:100BD000EF92FF920F931F93CF93DF93CDB7DEB7C2
:100BE000AA970FB6F894DEBF0FBECDBF7C018B0174
:100BF000CE0188960E944305E9A5FAA5D701139670
:100C00008D919C91E817F90739F064817581C801CD
:100C10000E94B60397FF6BC0B801CE0141960E94B7
:100C2000F304188E1F8A0091CC021091CD02BE01F0
:100C30006F5E7F4FCE0101960E94F3048F89988DDD
:100C400098878F83BE016F5F7F4FCE010996F801B1
:100C50000995BE01675F7F4FCE0185960E944305CF
:100C6000CE0109960E943B05CE0101960E943B05EC
:100C7000EEA1FFA18091C7029091C8028E179F0735
:100C800009F06DC08091C9029091CA02892B09F0C8
:100C900040C086E090E00E94DB138C01BE016F5ED5
:100CA0007F4F0E9405051093C6020093C502E09194
:100CB000C702F091C80211830083D80111961C92DB
:100CC0001E921396FC93EE93129781E090E090931E
:100CD000CA028093C902E091C702F091C802008164
:100CE00011811AA709A7CE0141960E943B05E9A5EB
:100CF000FAA5848195810696AA960FB6F894DEBF70
:100D00000FBECDBFDF91CF911F910F91FF90EF905C
:100D1000089586E090E00E94DB138C01BE016F5EB7
:100D20007F4F0E940505E091C702F091C8028081C3
:100D30009181D80111969C938E931396FC93EE9318
:100D40001297A081B18113961C930E931297118371
:100D500000838091C9029091CA020196B8CFE090B9
:100D6000CC02F090CD0204811581B801CE01099624
:100D70000E94F304F80186819781988B8F87BE01CA
:100D8000675F7F4FCE014F96F70109950091CC0226
:100D90001091CD02BE016F5E7F4FCE0101960E9481
:100DA000F3048F89988D98878F83BE016F5F7F4F83
:100DB000CE014996F8010995BE01615E7F4FCE01D3
:100DC00049960E94B6038C01CE0149960E943B05CC
:100DD000CE0101960E943B05CE014F960E943B0535
:100DE000CE0109960E943B05EEA0FFA017FF2BC085
:100DF00086E090E00E94DB138C01BE016F5E7F4FA6
:100E00000E940505D7018D919C911197F80191835E
:100E10008083F382E282892B89F41093C6020093C7
:100E2000C502F701118300838091C9029091CA0223
:100E300001969093CA028093C90253CFED91FC9121
:100E400013830283EECF87014CCF0F931F93CF9371
:100E5000DF9300D000D000D0CDB7DEB78C016FEDAE
:100E600072E0CE0101960E94F304B801CE01019612
:100E70000E9472046FE171E00E945C04BC018FED7E
:100E800092E00E94DC04CE0101960E943B0526966A
:100E90000FB6F894DEBF0FBECDBFDF91CF911F918B
:100EA0000F9108950F931F93CF93DF93CDB7DEB7C4
:100EB000AD970FB6F894DEBF0FBECDBF60E0809156
:100EC000BE020E945F0283E090E00197F1F761E0CB
:100ED0008091BE020E945F0283E290E00197F1F7E9
:100EE00060E08091BE020E945F02F894E091C0022F
:100EF000F091C102808191819927FC01EC56FE4F4F
:100F00006491FC01E058FE4FE491F0E0EE0FFF1F0A
:100F1000EA58FE4F8591949109EE1BE520E030E000
:100F2000462F0E94AC0A611571058105910529F0D3
:100F30006F5F7F4F8F4F9F4F9F7078940E94AF11CC
:100F400024E43BE44BE652E40E942D130E949F13DD
:100F5000CE0182960E94B00461E271E0CE018896D3
:100F60000E942A05BE016E5D7F4FCE0188960E94C9
:100F700072046CE871E00E945C04BC01CE01019631
:100F80000E94F304CE0101960E942507CE0101962E
:100F90000E943B05CE0188960E943B05CE018296B9
:100FA0000E943B058EE00E947F03BC01CE01829629
:100FB0000E94B0046BE271E0CE0188960E942A057F
:100FC000BE016E5D7F4FCE0188960E9472046CE870
:100FD00071E00E945C04BC01CE0101960E94F30402
:100FE000CE0101960E942507CE0101960E943B0585
:100FF000CE0188960E943B05CE0182960E943B0559
:1010000083E10E947F031BA21AA21DA21CA21FA2A1
:101010001EA2BC01990F880B990B0E94B11120E010
:1010200030E040E85AE30E94EC118E010F5F1F4F41
:1010300022E044E00E94E00D009709F4BCC0BC012E
:10104000CE0182960E94A60467E371E0CE018896E5
:101050000E942A05BE016E5D7F4FCE0188960E94D8
:1010600072046CE871E00E945C04BC01CE01019640
:101070000E94F304CE0101960E942507CE0101963D
:101080000E943B05CE0188960E943B05CE018296C8
:101090000E943B050E94940300911D0210911E02C4
:1010A00020911F0230912002601B710B820B930B69
:1010B00028EE33E040E050E00E94BA12CA01B901C4
:1010C0001BA21AA21DA21CA21FA21EA22AE0AE01F0
:1010D0004F5F5F4F0E94290FBE016F5F7F4FCE01B0
:1010E00082960E94A60460E471E0CE0188960E9478
:1010F0002A05BE016E5D7F4FCE0188960E94720464
:101100006CE871E00E945C04BC01CE0101960E9473
:10111000F304CE0101960E942507CE0101960E949C
:101120003B05CE0188960E943B05CE0182960E9427
:101130003B0568E471E0CE0101960E942A05CE01CC
:1011400001960E942507CE0101960E943B058BE087
:101150000E947F036AE571E08739910514F465E622
:1011600071E0CE0101960E942A05CE0101960E94EF
:101170002507CE0101960E943B0585E00E943602BC
:10118000019739F489E00E94360261E771E0019726
:10119000F1F086E00E943602019791F085E00E940E
:1011A0003602019759F58AE00E943602019731F51F
:1011B0006EE871E00CC0CE0182960E944A0444CFD2
:1011C0008AE00E943602019749F76FE771E0CE018D
:1011D00001960E942A05CE0101960E942507CE01A4
:1011E00001960E943B05AD960FB6F894DEBF0FBE88
:1011F000CDBFDF91CF911F910F91089586E00E949E
:101200003602019739F489E00E9436026FE971E0F5
:101210000197E9F285E00E943602892BE1F686E02B
:101220000E943602892BB9F66FEA71E0D0CFCF92D7
:10123000DF92EF92FF92CF93C1E081E292E00E94B1
:101240006801892B09F4DAC08091CE029091CF0217
:10125000892B09F047C00E9494036093E5027093C4
:10126000E6028093E7029093E8026AE271E083ED80
:1012700092E00E94A60481E292E00E944601682F5B
:101280008091CE029091CF029C012F5F3F4F30930F
:10129000CF022093CE028330910508F0A9C041E02F
:1012A000663609F440E02430310511F4653619F44E
:1012B000442309F44EC01092CF021092CE02109235
:1012C000D1021092D0026AE271E083ED92E00E94B6
:1012D000A6046AE271E089ED92E00E94A6041092F1
:1012E000D202ABCFC090E502D090E602E090E702D8
:1012F000F090E8028CE2C80E81E0D81EE11CF11CDF
:101300000E949403C616D706E806F90608F0B3CF84
:101310006AE271E089ED92E00E94A6041092CF0289
:101320001092CE021092D1021092D0026AE271E0C5
:1013300083ED92E00E94A6041092D2020E949403D0
:101340006093E5027093E6028093E7029093E802CF
:1013500092CF0497029720F51092D20289ED92E085
:101360000E9437048091CE029091CF02069709F037
:1013700064CF40E150E070E060E08091D90290914C
:10138000DA020E94FE0D6A5F7F4F7093D102609374
:10139000D0026AE271E089ED92E00E94A6044DCF8E
:1013A0002730310508F449CF8091D0029091D102C5
:1013B0002817390738F41092D20283ED92E00E9488
:1013C00037043BCF9093CF028093CE02892B09F450
:1013D00034CF83ED92E00E9437041092CF02109236
:1013E000CE021092D1021092D002C093D20225CF29
:1013F0002430310509F0ADCF40E058CFCF91FF90B8
:10140000EF90DF90CF9008950E94740181110C94A9
:10141000170908951F920F920FB60F9211242F9360
:101420003F934F935F936F937F938F939F93AF936C
:10143000BF93EF93FF9381E292E00E947E01FF91C0
:10144000EF91BF91AF919F918F917F916F915F913C
:101450004F913F912F910F900FBE0F901F901895B5
:101460001F920F920FB60F9211242F938F939F9379
:10147000EF93FF93E0913102F09132028081E0918D
:101480003702F091380282FD1BC0908180913A02B0
:101490008F5F8F7320913B02821741F0E0913A02F7
:1014A000F0E0EF5DFD4F958F80933A02FF91EF9151
:1014B0009F918F912F910F900FBE0F901F901895B5
:1014C0008081F4CF1F920F920FB60F9211242F93A9
:1014D0003F938F939F93AF93BF9380911902909105
:1014E0001A02A0911B02B0911C023091180223E055
:1014F000230F2D3758F50196A11DB11D2093180219
:101500008093190290931A02A0931B02B0931C02BD
:101510008091140290911502A0911602B0911702C9
:101520000196A11DB11D8093140290931502A09302
:101530001602B0931702BF91AF919F918F913F9187
:101540002F910F900FBE0F901F90189526E8230F34
:101550000296A11DB11DD2CFCF92DF92EF92FF92E2
:101560000F931F93E82FF92F05C00150110921098E
:10157000310961F1908196239417B9F305C00150A8
:1015800011092109310911F1908196239413F7CFA4
:10159000C12CD12CE12CF12C0AC08FEFC81AD80A2B
:1015A000E80AF80A0C151D052E053F0579F0808123
:1015B0008623841791F36C2D7D2D8E2D9F2D1F91E9
:1015C0000F91FF90EF90DF90CF90089560E070E072
:1015D00080E090E01F910F91FF90EF90DF90CF900F
:1015E0000895CF93DF93E1E2F2E01382128288EE56
:1015F00093E0A0E0B0E084839583A683B7838AE07C
:1016000091E09183808385EC90E09587848784ECDA
:1016100090E09787868780EC90E0918B808B81ECBF
:1016200090E0938B828B82EC90E0958B848B86ECA0
:1016300090E0978B868B118E128E138E148EC4ECD5
:10164000D2E01E821D8286E090E00E94DB13FC0146
:101650001182108213821282158214829A838983E6
:101660009C838B838CEF94E0998788876AE271E092
:1016700083ED92E00E942A056AE271E089ED92E032
:101680000E942A056AE271E08FED92E00E942A052D
:1016900082E090E00E94DB1327E030E0FC01318320
:1016A0002083CEEBD2E028E030E0398328839B838F
:1016B0008A8381E090E09D838C8361E088E00E94D2
:1016C0008D02EA81FB8160E08081DF91CF910C94F3
:1016D0008D02CF93DF93CDB7DEB765970FB6F89441
:1016E000DEBF0FBECDBF789484B5826084BD84B563
:1016F000816084BD85B5826085BD85B5816085BD0D
:1017000080916E00816080936E00109281008091C4
:10171000810082608093810080918100816080934C
:101720008100809180008160809380008091B10071
:1017300084608093B1008091B00081608093B0009C
:1017400080917A00846080937A0080917A00826030
:1017500080937A0080917A00816080937A008091F2
:101760007A00806880937A001092C10060E08EE079
:101770000E948D0260E083E10E948D0261E085E0BD
:101780000E948D0261E086E00E948D0260E087E0A9
:101790000E948D0261E088E00E948D0261E089E094
:1017A0000E948D0261E08AE00E948D0261E08BE080
:1017B0000E948D0282E597E09093EA028093E9020D
:1017C0006BEB71E0CE0101960E942A05BE016F5FAE
:1017D0007F4F84EC92E00E94E8052CEA35E0DC01C2
:1017E0002D933C93CE0101960E943B0564EC71E081
:1017F000CE0101960E942A05BE016F5F7F4F84ECE7
:1018000092E00E94E8052AEC35E0FC013183208358
:10181000CE0101960E943B056EEC71E0CE0101966F
:101820000E942A05BE016F5F7F4F84EC92E00E9408
:10183000E8052BE133E0DC012D933C93CE010196CA
:101840000E943B0565ED71E0CE0101960E942A05DC
:10185000BE016F5F7F4F84EC92E00E94E8052FE2AB
:1018600033E0FC0131832083CE0101960E943B05C9
:101870006DED71E0CE0101960E942A05BE016F5FF9
:101880007F4F84EC92E00E94E80523E433E0DC0122
:101890002D933C93CE0101960E943B056AEE71E0C8
:1018A000CE0101960E942A05BE016F5F7F4F84EC36
:1018B00092E00E94E80527E533E0FC0131832083B4
:1018C000CE0101960E943B0564EF71E0CE010196C6
:1018D0000E942A05BE016F5F7F4F84EC92E00E9458
:1018E000E8052BE633E0DC012D933C93CE01019615
:1018F0000E943B056FEF70E083ED92E00E94E303EE
:101900006AE271E089ED92E00E94A6046AE271E069
:1019100083ED92E00E94A6046AE271E08FED92E00E
:101920000E94A6041092D2021092D1021092D0020C
:101930001092CF021092CE021092E5021092E602AF
:101940001092E7021092E802E0913102F091320227
:1019500082E08083E0912D02F0912E021082E091CE
:101960002F02F09130028FEC808310923902E091C7
:101970003502F091360286E08083E0913302F091E7
:101980003402808180618083E0913302F0913402DF
:10199000808188608083E0913302F09134028081FD
:1019A00080688083E0913302F091340280818F7DE2
:1019B00080830E94940360931D0270931E028093A3
:1019C0001F029093200289E0C82E82E0D82E93E077
:1019D000E92E8E010D5E1F4F8091D2021092D2022D
:1019E000882309F46AC063ED72E0CE0101960E947B
:1019F000F3048D819E81892B51F06DEF71E0898117
:101A00009A810E94C615FF24F394892B09F0F12CCA
:101A1000CE0101960E943B05FF2009F456C0E091DB
:101A2000E902F091EA0209956FED72E0CE010D96A0
:101A30000E94F3048A898F9389898F93DF92CF92D2
:101A40001F92EF921F930F930E94D615B801CE01FB
:101A500007960E942A056EE072E0CE0101960E9470
:101A60002A05BE01695F7F4FCE0101960E94720474
:101A7000BE01635F7F4F0E947204FC014481558167
:101A80006081718181E292E00E940A01CE0101969B
:101A90000E943B05CE0107960E943B05CE010D96A4
:101AA0000E943B056AE271E08FED92E00E94A6047D
:101AB0000FB6F894DEBF0FBECDBF0E94740188231D
:101AC00009F48ACF0E94170987CF63ED72E0CE0137
:101AD00001960E94F304BE016F5F7F4F84EC92E099
:101AE0000E94E805DC01ED91FC910995CE0101967B
:101AF0000E943B05E2CFCF93DF938091C00290918B
:101B0000C102009711F00E9477148FED92E00E94BD
:101B10003B0589ED92E00E943B0583ED92E00E9437
:101B20003B05E091C502F091C6028091C9029091F7
:101B3000CA02892B71F10280F381E02DF093C60275
:101B4000E093C5020190F081E02DC481D5812097FA
:101B500031F0CE010E943B05CE010E947714E09146
:101B6000C502F091C60280819181009711F00E9418
:101B70007714E091C502F091C60211821082809123
:101B8000C9029091CA0201979093CA028093C90238
:101B9000C8CFC481D581209731F0CE010E943B058A
:101BA000CE010E9477148091C5029091C6020097E1
:101BB00021F0DF91CF910C947714DF91CF910895AC
:101BC000EF920F931F93CF93DF93E80134E047FD2B
:101BD00034E1042E000C550B57FF03C0519541957D
:101BE0005109E32E022F242FAE010E94650FCE0172
:101BF000DF91CF911F910F91EF900895B0E0A0E099
:101C0000E4E0FEE00C94E8125C016B017A016115DE
:101C1000710519F0FB0191838083E114F10451F007
:101C2000C7010297839730F040E030E020E090E079
:101C300072C05E01E5012196F5011081812F90E0CF
:101C40000E94150F892BA9F71D3201F52196F50188
:101C5000118101E0E114F10409F4DAC0F0E1EF16BA
:101C6000F10409F082C0103359F488818F7D8835E2
:101C700009F076C0198122960260F0E1EF2EF12C76
:101C8000812C912CA12C88E0B82E8CC01B3221F421
:101C9000E5012296F501118100E0DCCFEAE0EE16C5
:101CA000F10409F4BBC0F0E1EF16F10409F06DC0D6
:101CB000E7CF78E0E72EF12C812C912CA12C60E16C
:101CC000B62E70C03FE9310F3A3128F439EA332E8D
:101CD00080C021E09AC0302F3170C114D10431F09E
:101CE000222309F12197F601D183C08327FF21C068
:101CF00060E070E080E090E8311104C06FEF7FEFAA
:101D00008FEF9FE722E230E03093EC022093EB026A
:101D1000462F372F282F642F732F822FCDB7DEB792
:101D2000E1E10C94041301FF04C02297F601D18372
:101D3000C083332341F090958095709561957F4FD6
:101D40008F4F9F4FE5CF97FFE3CF82E290E09093D4
:101D5000EC028093EB026FEF7FEF8FEF9FE7D8CF1E
:101D600010E3E114F10409F4A4CF28E0E216F10431
:101D700009F4A2CF0CF092CF812C912CA12CE0E49D
:101D8000BE2E82E0E816F10469F060E070E080E0C9
:101D900090E897010F2C000C440B550B0E94BA12CF
:101DA00049015A0120E060E070E0CB0127010F2CCF
:101DB000000C66087708FE0150ED352E310E39E033
:101DC000331540F43FEB310F3A3108F07BCF49EC4B
:101DD000342E310E3E141F040CF07DCF27FD15C0AC
:101DE00086169706A806B90678F0A30192010E940C
:101DF000AA12630D711D811D911D61307105810550
:101E000020E8920708F465CF2FEF21961081D3CFF9
:101E1000103309F42ACF2AE0E22EF12C9CEC892E13
:101E2000982CA82C9CE0B92EBDCF91110C949C113C
:101E3000803219F089508550C8F70895BB274A3081
:101E400031F4992322F4BDE2909581959F4F0C9433
:101E50004C0FBB27FA01A62F62177105810591056A
:101E6000330B30FB66F0AA27660F771F881F991F78
:101E7000AA1FA21710F0A21B63953850A9F7A05D06
:101E8000AA3308F0A95DA19336F7B111B19310827E
:101E9000CA010C949F11BB27FB015527AA27880F65
:101EA000991FAA1FA41710F0A41B83955051B9F7CE
:101EB000A05DAA3308F0A95DA193009779F7B1114D
:101EC000B1931192CB010C949F11A9E0B0E0EBE625
:101ED000FFE00C94ED126A01F22EB02E102FFBE3FE
:101EE000AF2EA01608F41BE31F5F012F27E0AE0101
:101EF0004F5F5F4F0E94C410BC018981982F997079
:101F0000913009F43FC09BE2E1FC04C09E2D91702A
:101F1000E0FC3AC05E2D5071E82FE87083FF46C0A8
:101F200084E0911101C083E0EF2DE81B8F1508F0CC
:101F3000E0E0D6018E2F20E2552351F1992329F0BC
:101F4000D6019C93C60101966C0196012D5F3F4F0F
:101F5000E2FE24C08EE4D6018C9391E411969C930A
:101F6000119712968C93D9018E2F90E281111BC08C
:101F7000E20FF32FF11D10828EEF9FEF2996ECE018
:101F80000C9409139DE2C6CF90E2C4CF2D938150EB
:101F90008111FCCFCE0ED11CE0E0D0CF8EE6D60171
:101FA0008C9391E6DBCF9D938150E0CF482F447016
:101FB00082FF3DC084E0911101C083E08F1510F4D1
:101FC000EF2DE81BD6018E2F20E2552309F199232E
:101FD00029F0D6019C93C60101966C0196012D5FF4
:101FE0003F4FE2FE1BC089E4D6018C938EE411962C
:101FF0008C93119786E412968C93D9018E2F90E2E0
:10200000882309F4B5CF9D938150FACF2D93815049
:102010008111FCCFCE0ED11CE0E0D9CF89E6D601EC
:102020008C938EE611968C93119786E6E4CF9B01F4
:1020300077FF02C030E020E0A1E0B0E0911102C0E3
:10204000B0E0A0E0F9013196AE0FBF1F8B2C912CB0
:10205000BB2009F461C05401EFEFAE1ABE0AAA0D0D
:10206000BB1DFA161B0619F014F04F2D4A1B511117
:1020700088C0E3FC59C07601A42FB0E2A1114FC083
:10208000C40ED11C992309F45BC040E0D60111961F
:10209000F60190836D01552309F448C0012F060F06
:1020A0009A81582F507184FF03C0913309F4015075
:1020B00010160CF047C0093008F008E0EEE2FE2EE2
:1020C0005B01A01AB10885019194819491082F3F7A
:1020D000320729F4D601FC92F60131966F0162179E
:1020E000730794F1021713077CF5DB01A21BB30BF6
:1020F000AA24A394B12CAC0EBD1EAA0DBB1D119633
:102100008C9121503109D601119628153905F4F02A
:10211000F60180836D01DBCFB12CA12CA0CFF7019C
:10212000B1937F01A150AACF9111B0CFD601942FC6
:1021300050E302C05D9391509111FCCFC40ED11CAD
:1021400040E0ACCF01E0BACF80E3DBCF621773078A
:1021500031F4963388F4953311F4552369F0F60180
:102160008083FD01842F90E2811108C0A40FB11D6E
:102170001C9290E080E002CF81E3F1CF91938150F7
:10218000F3CF911183CF8ACF283008F027E033278F
:10219000DA01990F311D87FD916000966105710587
:1021A00039F432602E5F3D9330E32A95E1F70895CC
:1021B0009F3F30F080387105610509F03C5F3C5F5E
:1021C0003D93913008F08068911DDF93CF931F936A
:1021D0000F93FF92EF92192F987F9695E92F96957E
:1021E0009695E90FFF27EE53FF4F99273327EE24EB
:1021F000FF24A701E70105900894079428F4360FFF
:10220000E71EF81E491F511D660F771F881F991F73
:102210000694A1F70590079428F4E70EF81E491FCD
:10222000561FC11D770F881F991F661F0694A1F7BF
:102230000590079428F4F80E491F561FC71FD11D9B
:10224000880F991F661F771F0694A1F705900794C2
:1022500020F4490F561FC71FD81F990F661F771FFD
:10226000881F0694A9F784911095177041F0D695B0
:10227000C79557954795F794E7941A95C1F7E8E6FF
:10228000F0E06894159015913591659195910590C0
:102290007FE27395E118F10A430B560BC90BD00985
:1022A000C0F7E10CF11E431F561FC91FD01D7EF45D
:1022B000703311F48A95E6CFE894015030F0080F9E
:1022C0000AF40027021708F4202F2395022F7A33EF
:1022D00028F079E37D932A95E9F710C07D932A953C
:1022E00089F6069497956795379517951794E11891
:1022F000F10A430B560BC90BD00998F023957E9138
:1023000073957A3308F070E37C932013B8F77E91CD
:1023100070617D9330F0839571E37D9370E32A952E
:10232000E1F71124EF90FF900F911F91CF91DF9172
:10233000992787FD90950895992788270895DC01AE
:10234000FC01672F71917723E1F7329704C07C91EC
:102350006D9370836291AE17BF07C8F30895E89438
:1023600009C097FB3EF490958095709561957F4FDD
:102370008F4F9F4F9923A9F0F92F96E9BB2793958B
:10238000F695879577956795B795F111F8CFFAF49B
:10239000BB0F11F460FF1BC06F5F7F4F8F4F9F4FCC
:1023A00016C0882311F096E911C0772321F09EE82A
:1023B000872F762F05C0662371F096E8862F70E090
:1023C00060E02AF09A95660F771F881FDAF7880F6A
:1023D0009695879597F908950E94FF110C947012B5
:1023E0000E94621238F00E94691220F0952311F0C9
:1023F0000C9459120C945F1211240C94A4120E9494
:10240000811270F3959FC1F3950F50E0551F629FA5
:10241000F001729FBB27F00DB11D639FAA27F00D3D
:10242000B11DAA1F649F6627B00DA11D661F829F64
:102430002227B00DA11D621F739FB00DA11D621F49
:10244000839FA00D611D221F749F3327A00D611D66
:10245000231F849F600D211D822F762F6A2F112448
:102460009F5750409AF0F1F088234AF0EE0FFF1F7B
:10247000BB1F661F771F881F91505040A9F79E3FD2
:10248000510580F00C9459120C94A4125F3FE4F3B0
:10249000983ED4F3869577956795B795F795E79528
:1024A0009F5FC1F7FE2B880F911D9695879597F931
:1024B000089597F99F6780E870E060E008959FEFC6
:1024C00080EC089500240A941616170618060906CB
:1024D000089500240A94121613061406050608959A
:1024E000092E0394000C11F4882352F0BB0F40F422
:1024F000BF2B11F460FF04C06F5F7F4F8F4F9F4F62
:10250000089557FD9058440F551F59F05F3F71F0E3
:102510004795880F97FB991F61F09F3F79F087954A
:102520000895121613061406551FF2CF4695F1DFD3
:1025300008C0161617061806991FF1CF8695710563
:10254000610508940895E894BB2766277727CB0197
:1025500097F90895DB018F939F930E94DC12BF913E
:10256000AF91A29F800D911DA39F900DB29F900DE2
:1025700011240895A1E21A2EAA1BBB1BFD010DC058
:10258000AA1FBB1FEE1FFF1FA217B307E407F50723
:1025900020F0A21BB30BE40BF50B661F771F881FFF
:1025A000991F1A9469F760957095809590959B0195
:1025B000AC01BD01CF0108950E941E13A59F900D8F
:1025C000B49F900DA49F800D911D112408952F920A
:1025D0003F924F925F926F927F928F929F92AF92B3
:1025E000BF92CF92DF92EF92FF920F931F93CF9300
:1025F000DF93CDB7DEB7CA1BDB0B0FB6F894DEBF97
:102600000FBECDBF09942A88398848885F846E84BC
:102610007D848C849B84AA84B984C884DF80EE8006
:10262000FD800C811B81AA81B981CE0FD11D0FB60F
:10263000F894DEBF0FBECDBFED010895A29FB0019B
:10264000B39FC001A39F700D811D1124911DB29FE6
:10265000700D811D1124911D08950E9441130C9449
:1026600070120E94691258F00E94621240F029F420
:102670005F3F29F00C94591251110C94A4120C9440
:102680005F120E94811268F39923B1F3552391F3ED
:10269000951B550BBB27AA2762177307840738F0D1
:1026A0009F5F5F4F220F331F441FAA1FA9F335D02E
:1026B0000E2E3AF0E0E832D091505040E695001CE2
:1026C000CAF72BD0FE2F29D0660F771F881FBB1F9C
:1026D000261737074807AB07B0E809F0BB0B802D7A
:1026E000BF01FF2793585F4F3AF09E3F510578F0A6
:1026F0000C9459120C94A4125F3FE4F3983ED4F367
:10270000869577956795B795F7959F5FC9F7880F79
:10271000911D9695879597F90895E1E0660F771FCB
:10272000881FBB1F621773078407BA0720F0621B5C
:10273000730B840BBA0BEE1F88F7E09508950E9487
:10274000A6136894B1110C94A41208950E948912E2
:1027500088F09F5798F0B92F9927B751B0F0E1F062
:10276000660F771F881F991F1AF0BA95C9F714C012
:10277000B13091F00E94A312B1E008950C94A3121D
:10278000672F782F8827B85F39F0B93FCCF386954B
:1027900077956795B395D9F73EF4909580957095A8
:1027A00061957F4F8F4F9F4F0895EE0FFF1F05904C
:1027B000F491E02D09940F931F93CF93DF93823010
:1027C000910510F482E090E0E091EF02F091F002C8
:1027D00030E020E0B0E0A0E0309799F42115310519
:1027E00009F44AC0281B390B24303105D8F58A81F9
:1027F0009B816115710589F1FB0193838283FE0141
:1028000011C0408151810281138148175907E0F0BE
:102810004817590799F4109761F012960C93129784
:1028200013961C933296CF01DF91CF911F910F9198
:1028300008950093EF021093F002F4CF21153105B3
:1028400051F04217530738F0A901DB019A01BD018D
:10285000DF01F801C1CFEF01F9CF9093F00280932F
:10286000EF02CDCFFE01E20FF31F8193919322502F
:10287000310939832883D7CF2091ED023091EE02C0
:10288000232B41F420910201309103013093EE0299
:102890002093ED02209100013091010121153105B5
:1028A00041F42DB73EB74091040150910501241B1E
:1028B000350BE091ED02F091EE02E217F307A0F480
:1028C0002E1B3F0B2817390778F0AC014E5F5F4F86
:1028D0002417350748F04E0F5F1F5093EE024093C8
:1028E000ED02819391939FCFF0E0E0E09CCFCF93F6
:1028F000DF930097E9F0FC01329713821282A091D6
:10290000EF02B091F002ED0130E020E01097A1F469
:1029100020813181820F931F2091ED023091EE02D0
:102920002817390709F061C0F093EE02E093ED0239
:10293000DF91CF910895EA01CE17DF07E8F54A81CC
:102940005B819E0141155105B1F7E901FB83EA83E3
:1029500049915991C40FD51FEC17FD0761F480818F
:1029600091810296840F951FE90199838883828162
:1029700093819B838A83F0E0E0E012968D919C9195
:1029800013970097B9F52D913C911197CD010296BF
:10299000820F931F2091ED023091EE022817390724
:1029A00039F6309751F51092F0021092EF02B09381
:1029B000EE02A093ED02BCCFD383C283408151814C
:1029C000840F951FC817D90761F44E5F5F4F888148
:1029D0009981480F591F518340838A819B8193833A
:1029E00082832115310509F0B0CFF093F002E09316
:1029F000EF029ECFFD01DC01C0CF13821282D7CF40
:102A0000B0E0A0E0E6E0F5E10C94E9128C0100975B
:102A100051F4CB010E94DB138C01C801CDB7DEB7A6
:102A2000E0E10C940513FC01E60FF71F9C01225016
:102A30003109E217F30708F49DC0D901CD91DC916B
:102A40001197C617D70798F0C530D10530F3CE01DE
:102A500004978617970708F3C61BD70B2297C193D5
:102A6000D1936D937C93CF010E947714D6CF5B01F5
:102A7000AC1ABD0A4C018C0E9D1EA091EF02B091C4
:102A8000F002512C412CF12CE12C109731F5809162
:102A9000ED029091EE028815990509F05CC046168A
:102AA000570608F058C080910001909101010097ED
:102AB00041F48DB79EB74091040150910501841BEC
:102AC000950BE817F90708F055C0F093EE02E09374
:102AD000ED02F90171836083A0CF8D919C911197D4
:102AE00012966C90129713967C901397A815B905BF
:102AF00059F56C0142E0C40ED11CCA14DB0420F16C
:102B0000AC014A195B09DA011296159780F06282CE
:102B1000738251834083D9016D937C93E114F10456
:102B200071F0D7011396FC93EE93129776CF22960D
:102B30008C0F9D1FF90191838083F301EFCFF093F8
:102B4000F002E093EF0269CF4816590608F42C0111
:102B50007D01D3019ACFCB010E94DB137C0100974A
:102B600049F0AE01B8010E94BD15C8010E9477145A
:102B7000870153CF10E000E050CFFB01DC0102C021
:102B800001900D9241505040D8F70895FB01DC01AF
:102B90008D91019080190110D9F3990B0895FB01D3
:102BA000DC0101900D920020E1F70895AEE0B0E065
:102BB000ECEDF5E10C94F5120D891E898F89988D45
:102BC00026E02C831A83098397FF02C080E090E8F7
:102BD00001979E838D83AE01455E5F4F698D7A8D2F
:102BE000CE0101960E9406164D815E8157FD0AC0F6
:102BF0002F813885421753070CF49A01020F131FD7
:102C0000F80110822E96E4E00C941113ABE0B0E0D2
:102C1000ECE0F6E10C94E7127C013B018A01FC0137
:102C200017821682838181FFC8C1CE0101965C01A3
:102C3000F7019381F30193FD859193FF81913F010A
:102C4000882309F453C1853239F493FD859193FFAC
:102C500081913F01853229F4B70190E00E94F61777
:102C6000E7CF912C212C312CFFE1F31538F08B327A
:102C700011F190F4803209F1833229F137FC3CC024
:102C800020ED280F2A3050F536FE20C08AE0989EAD
:102C9000200D1124922E06C08D3291F0803371F7F1
:102CA000689430F8F30193FD859193FF81913F0182
:102CB0008111DACF21C0689431F8689432F8F2CFEC
:102CC000689433F8EFCF689434F8ECCFEAE02E9EA6
:102CD000200D1124222E689435F8E4CF8E3229F489
:102CE00036FC04C1689436F8DDCF8C3619F468944C
:102CF00037F8D8CF8836B1F2982F9F7D955493300E
:102D0000E0F08336A1F18337C1F1833509F063C068
:102D10002801F2E04F0E511CF801C080D180692DCE
:102D200070E036FC02C06FEF7FEFC6010E94E01733
:102D30004C01689437F882010AC00C5F1F4FFFE313
:102D4000F98388248394912C6501E89437F833FE45
:102D50002DC0522C8114910471F5552009F468CFCF
:102D6000B70180E290E00E94F6175A94F6CFF8017E
:102D7000808189830E5F1F4FE4CF2801F2E04F0E60
:102D8000511CF801C080D180692D70E036FC02C072
:102D90006FEF7FEFC6010E94EB174C018201D5CF88
:102DA000B70180E290E00E94F6172A9428141904D3
:102DB00009F0B0F7CECFF60137FC859137FE81914F
:102DC0006F01B70190E00E94F61751105A94F1E09C
:102DD0008F1A9108BFCF843619F0893609F077C071
:102DE000F80137FE6BC060817181828193810C5F35
:102DF0001F4FF32DFF763F2E97FF09C090958095CA
:102E0000709561957F4F8F4F9F4F689437F82AE0F8
:102E100030E0A5010E942618C82ECA188C2C432C1D
:102E200036FE0CC0E89440F8C91440F434FE05C0E6
:102E300032FC03C0F32DFE7E4F2E892C44FE95C03C
:102E4000FE01EC0DF11D8081803309F087C0242D37
:102E5000297E422E842D8870582E43FC95C040FE5A
:102E60008FC09C2C821418F42C0C922C981844FEC1
:102E700091C0B70180E390E00E94F61742FE09C0BE
:102E800088E790E041FE02C088E590E0B7010E942B
:102E9000F617C91408F48AC0CA94D12C9FEFC91A36
:102EA000D90ACA0CDB1CF60182916F01B70190E0D0
:102EB0000E94F617AC14BD04B1F74FCF6081718149
:102EC000072E000C880B990B0E5F1F4F92CFD32C4F
:102ED000E894D4F82AE030E0853739F1232D297FB2
:102EE000D22E8F3601F148F48835A9F0F70186819A
:102EF00097812B96E2E10C940313803749F08837D1
:102F0000A9F7D4FE02C06894D2F820E130E00DC0E9
:102F10006894D4F8F6CF34FE03C0822F8660D82E92
:102F200020E132E002C028E030E0F801D7FE0FC017
:102F300060817181828193810C5F1F4FA5010E9486
:102F40002618C82ECA183D2CE89437F867CF608140
:102F5000718190E080E00E5F1F4FF0CF42FC02C015
:102F6000839478CF8394839475CF842D867809F4E5
:102F700071CFF6CFB70180E290E00E94F6178394FC
:102F80008214C0F3512C73CF522C5818821408F4B9
:102F90006ECFF8CF842D867809F47BCF8BE241FE8B
:102FA00080E247FC8DE2B70190E071CFB70180E38A
:102FB00090E00E94F6179A946CCF8FEF9FEF99CF15
:102FC000FC010590615070400110D8F780959095F4
:102FD0008E0F9F1F0895FC016150704001900110F9
:102FE000D8F7809590958E0F9F1F08950F931F938C
:102FF000CF93DF93182F092FEB018B8181FD09C03F
:103000001FEF0FEF812F902FDF91CF911F910F9125
:10301000089582FF14C02E813F818C819D812817E5
:1030200039073CF4E881F981CF01019699838883BF
:1030300010838E819F8101969F838E83E3CFE885E5
:10304000F985812F0995892BA1F3DACFFA01AA27F7
:10305000283051F1203181F1E8946F936E7F6E5FDB
:103060007F4F8F4F9F4FAF4FB1E03ED0B4E03CD089
:10307000670F781F891F9A1FA11D680F791F8A1F6C
:10308000911DA11D6A0F711D811D911DA11D20D0D3
:1030900009F468943F912AE0269F11243019305D8D
:1030A0003193DEF6CF010895462F4770405D41937E
:1030B000B3E00FD0C9F7F6CF462F4F70405D4A33CB
:1030C00018F0495D31FD4052419302D0A9F7EACF93
:1030D000B4E0A6959795879577956795BA95C9F7C2
:1030E00000976105710508959B01AC010A2E0694B5
:1030F0005795479537952795BA95C9F7620F731F6E
:10310000841F951FA01D089510E0CFEDD0E004C0EE
:10311000FE010E94D5132196C03ED107C9F7F8944D
:02312000FFCFDF
:103122000000F102800000000000A0010A01370146
:10313200ED01680146015A016F6E006F6666003B41
:103142000064697374616E636528006C756D696EE5
:103152006F736974792800626174746572792800EA
:10316200757074696D6528006465766963652861A8
:1031720067656E74426F6479290062757A7A657246
:10318200286F6E290062757A7A6572286F666629E1
:10319200006D6F746F7228676F4261636B29006DF7
:1031A2006F746F7228676F416865616429006D6F83
:1031B200746F72287475726E526967687429006D33
:1031C2006F746F72287475726E4C65667429006D27
:1031D2006F746F722873746F70290062757A7A65E2
:1031E200724F6E0062757A7A65724F666600676F1B
:1031F2004261636B00676F41686561640073746F5D
:103202007052696768744E6F77007475726E526996
:10321200676874007475726E4C65667400676574D5
:1032220050657263657074730025303258006666AB
:0432320066650000CD
:00000001FF
