:100000000C94E1000C9409010C9409010C94090171
:100010000C9409010C9409010C9409010C94000E34
:100020000C9409010C9409010C9409010C94090128
:100030000C9409010C9409010C9409010C94090118
:100040000C94B40E0C9409010C94820E0C945C0E6A
:100050000C9409010C9409010C9409010C940901F8
:100060000C94FE0E0C94090100407A10F35A00A083
:10007000724E18090010A5D4E80000E87648170071
:1000800000E40B54020000CA9A3B000000E1F505B1
:10009000000080969800000040420F000000A086FB
:1000A00001000000102700000000E803000000002D
:1000B0006400000000000A000000000001000000D1
:1000C00000002C76D888DC674F0823DFC1DFAE59EB
:1000D000E1B1B796E5E3E453C63AE651997696E87E
:1000E000E6C28426EB898C9B62ED407C6FFCEFBC02
:1000F0009C9F40F2BAA56FA5F490055A2AF75C932D
:100100006B6CF9676DC11BFCE0E40D47FEF520E662
:10011000B500D0ED902E0300943577050080841E45
:10012000080000204E0A000000C80C333333330FA0
:10013000986E12831141EF8D2114893BE65516CF3D
:10014000FEE6DB18D1844B381BF77C1D901DA4BB49
:10015000E424203284725E228100C9F124ECA1E5FE
:100160003D2700000000240027002A0000000000B6
:10017000250028002B000000000023002600290095
:10018000040404040404040402020202020203033D
:100190000303030301020408102040800102040845
:1001A00010200102040810200000000800020100D5
:1001B0000003040700000000000000000200191006
:1001C000291211241FBECFEFD8E0DEBFCDBF23E040
:1001D000A6EAB1E001C01D92A236B207E1F711E034
:1001E000A0E0B1E0E4E5F9E302C005900D92A63A83
:1001F000B107D9F710E0C0EED0E004C02197FE01AE
:100200000E94EE17CF3DD107C9F70E949D100C94B4
:100210009D1C0C940000AF92BF92CF92DF92EF92A0
:10022000FF920F931F93CF93DF936C017B018B01A0
:10023000040F151FEB015E01AE18BF08C017D107F0
:1002400059F06991D601ED91FC910190F081E02D7A
:10025000C6010995892B79F7C501DF91CF911F91CF
:100260000F91FF90EF90DF90CF90BF90AF900895E7
:10027000FC01538D448D252F30E0842F90E0821BAC
:10028000930B541710F0CF96089501970895FC0131
:10029000918D828D981761F0A28DAE0FBF2FB11D89
:1002A0005D968C91928D9F5F9F73928F90E00895E1
:1002B0008FEF9FEF0895FC01918D828D981731F09B
:1002C000828DE80FF11D858D90E008958FEF9FEFEF
:1002D0000895FC01918D228D892F90E0805C9F4FC5
:1002E000821B91098F739927089586E792E00E94F7
:1002F000690121E0892B09F420E0822F0895FC0197
:10030000A48DA80FB92FB11DA35ABF4F2C91848D76
:1003100090E001968F739927848FA689B7892C93D3
:10032000A089B1898C91837080648C93938D848D26
:10033000981306C00288F389E02D80818F7D808329
:100340000895EF92FF920F931F93CF93DF93EC01E9
:1003500081E0888F9B8D8C8D98131AC0E889F9896C
:10036000808185FF15C09FB7F894EE89FF8960836F
:10037000E889F98980818370806480839FBF81E0F0
:1003800090E0DF91CF911F910F91FF90EF90089532
:10039000F62E0B8D10E00F5F1F4F0F731127E02E0D
:1003A0008C8D8E110CC00FB607FCFACFE889F98945
:1003B000808185FFF5CFCE010E947F01F1CFEB8DCB
:1003C000EC0FFD2FF11DE35AFF4FF0829FB7F89419
:1003D0000B8FEA89FB8980818062CFCFCF93DF9337
:1003E000EC01888D8823B9F0AA89BB89E889F9894D
:1003F0008C9185FD03C0808186FD0DC00FB607FC82
:10040000F7CF8C9185FFF2CF808185FFEDCFCE01B4
:100410000E947F01E9CFDF91CF910895833081F071
:1004200028F4813099F08230A9F008958730A9F03E
:100430008830C9F08430B1F4809180008F7D03C092
:10044000809180008F7780938000089584B58F77A6
:1004500084BD089584B58F7DFBCF8091B0008F77E8
:100460008093B00008958091B0008F7DF9CFCF9335
:10047000DF93282F30E0F901E855FE4F8491F90110
:10048000EC56FE4FD491F901E058FE4FC491CC23B5
:10049000A1F081110E940E02EC2FF0E0EE0FFF1F81
:1004A000EA58FE4FA591B491EC91ED2381E090E0E4
:1004B00009F480E0DF91CF91089580E090E0FACFD9
:1004C000CF92DF92EF92FF92CF93DF93C12CD12C8A
:1004D0007601C82FD0E0809130030E9437028C173C
:1004E0009D07B1F4B701A6014F5F5F4F6F4F7F4F7C
:1004F0008091310390913203A0913303B091340382
:10050000C816D906EA06FB0660F0C12CD12C76018C
:10051000C701B601DF91CF91FF90EF90DF90CF90B0
:1005200008956A017B01D7CF1F93CF93DF93282FC4
:1005300030E0F901E855FE4F8491F901EC56FE4F89
:10054000D491F901E058FE4FC491CC23A9F0162FA5
:1005500081110E940E02EC2FF0E0EE0FFF1FE45914
:10056000FE4FA591B4918FB7F894EC91111108C08A
:10057000D095DE23DC938FBFDF91CF911F9108953B
:10058000DE2BF8CF9091000189130BC0ECEBF1E06A
:10059000E4919FEF90930001E13049F028F0E230C0
:1005A00061F060E00C94940210926E00FACF90918A
:1005B0006F009D7F90936F00F4CF909170009D7FAE
:1005C0009093700091E09093B0009091B100987F6B
:1005D00094609093B1001092B300E3CF60E085E0A7
:1005E0000E94940261E083E00E9494028BE00C94EC
:1005F000C202CF93DF9390E0FC01EC56FE4F2491B2
:1006000080589E4FFC0184918823C9F090E0880FA8
:10061000991FFC01EE59FE4FA591B491FC01E459DC
:10062000FE4FC591D49161110DC09FB7F8948C9184
:10063000209582238C938881282328839FBFDF9174
:10064000CF910895623051F49FB7F8943C91822F76
:10065000809583238C93E8812E2BEFCF8FB7F8946E
:10066000EC912E2B2C938FBFEACF3FB7F89480915B
:10067000F5019091F601A091F701B091F80126B52E
:10068000A89B05C02F3F19F00196A11DB11D3FBFCA
:10069000BA2FA92F982F8827BC01CD01620F711D99
:1006A000811D911D42E0660F771F881F991F4A9593
:1006B000D1F708958F929F92AF92BF92CF92DF921F
:1006C000EF92FF924B015C010E9435036B017C01AC
:1006D0000E9435036C197D098E099F09683E73409D
:1006E00081059105A8F321E0821A9108A108B108BB
:1006F00088EEC80E83E0D81EE11CF11C8114910421
:10070000A104B10429F7FF90EF90DF90CF90BF9044
:10071000AF909F908F9008951F93CF93DF93C1E088
:10072000C093B001882399F1D091B8001091BA001C
:100730008091BC008A7B8093BC0060E082E10E94D3
:10074000940260E083E10E94940210924802C093F8
:1007500047021092220261E082E10E94940261E06D
:1007600083E10E9494028091B9008E7F8093B9004A
:100770008091B9008D7F8093B90088E48093B800A0
:1007800085E48093BC001093BA00D093B800DF9149
:10079000CF911F9108952091D101260F3327331F48
:1007A00021323105ECF420914802FC0190E080E018
:1007B000243069F082E00895A091D1012191AC012B
:1007C0004F545E4FA40FB52FB11D2C930196861781
:1007D00098F38091D101680F6093D10180E0089572
:1007E00081E008950895E091010280910002E817E8
:1007F00030F4F0E0EE5FFD4F808190E008958FEFE0
:100800009FEF089590910102809100022FEF3FEF3A
:10081000981748F4E92FF0E0EE5FFD4F208130E0BB
:100820009F5F90930102C901089580910002909109
:100830000102891B990B0895CF92DF92EF92FF92EC
:100840000F931F93CF93DF937C01CB018A012091FB
:100850007102222389F0EB016B01C40ED51ECC1569
:10086000DD0569F06991D701ED91FC910190F0816E
:10087000E02DC7010995F3CF642F0E94CB03C80177
:10088000DF91CF911F910F91FF90EF90DF90CF906C
:100890000895CF93DF931F92CDB7DEB76983209180
:1008A00071022223F9F020916E02203258F021E0EB
:1008B00030E0FC013383228390E080E00F90DF91F1
:1008C000CF91089580916F02E82FF0E0E25BFD4F39
:1008D000998190838F5F80936F0280936E0281E095
:1008E00090E0ECCF61E0CE0101960E94CB03F7CF00
:1008F00090E080E00895CF9361E085E00E9494024B
:1009000060E083E00E949402809100018B3021F02E
:100910008F3F59F1CF910895ECEBF1E0C491C7FD01
:10092000F9CF61E08BE00E94F902CC2309F48BC07F
:10093000C23009F09FC08091B100887F83608093AE
:10094000B10089EF8093B3008FEF9FEFDC018093BC
:10095000FC019093FD01A093FE01B093FF018091F3
:100960007000826080937000D5CF8BE0809300018F
:10097000ECEBF1E0C491CF3F69F2C13021F150F0CE
:10098000C23009F43EC0C7FDC5CF61E08BE00E94D4
:10099000F902CECF14BC15BC84B5826084BD85B588
:1009A000816085BDEBE8F1E0E491F0E0EE0FFF1F20
:1009B000E459FE4F85919491EFE9F1E0E491E093E1
:1009C000A701C0E0AECF109280001092810080910C
:1009D0008100886080938100809181008160809394
:1009E0008100EBE8F1E0E491F0E0EE0FFF1FE45945
:1009F000FE4F85919491EFE9F1E0E491E093A60137
:100A000090CF1092B0001092B1008091B00082603F
:100A10008093B0008091B10081608093B100EBE8D9
:100A2000F1E0E491F0E0EE0FFF1FE459FE4F8591F5
:100A300094919093FA018093F901EFE9F1E0E49148
:100A4000E093FB016ECF85B5887F836085BD8CE721
:100A500087BD8FEF9FEFDC018093AC019093AD01D8
:100A6000A093AE01B093AF0180916E00826080933D
:100A70006E0050CFC130E9F480918100887F8160A1
:100A8000809381008FE39FE1909389008093880099
:100A90008FEF9FEFDC018093A8019093A901A093B1
:100AA000AA01B093AB0180916F00826080936F00C8
:100AB00031CFC23021F0C1112DCF8FE3C9CF8FE3E9
:100AC00041CF8F929F92AF92BF92CF92DF92EF92DF
:100AD000FF920F931F93CF93DF93CDB7DEB7C05430
:100AE000D1400FB6F894DEBF0FBECDBF2FB7F8943C
:100AF0008091720290917302A0917402B09175027C
:100B00002FBF40912A0350912B0360912C037091C9
:100B10002D038C019D01041B150B260B370BB9010E
:100B2000A801403D574061057105C0F480912E0336
:100B300090912F03C05CDE4F0FB6F894DEBF0FBE5E
:100B4000CDBFDF91CF911F910F91FF90EF90DF907C
:100B5000CF90BF90AF909F908F90089580932A037D
:100B600090932B03A0932C03B0932D0380911F032C
:100B7000882309F4BEC01092260310922503109218
:100B80002403109223031092220361E0809130032A
:100B90000E9494026AEF70E080E090E00E945A03A5
:100BA00061E0809130030E94F90260E0809130039F
:100BB0000E94940264E170E080E090E00E945A0399
:100BC000F89461E0809130030E9494028BE990E0F8
:100BD0000197F1F762E0809130030E94F90283E20D
:100BE00090E00197F1F780E00E946002672B682B8C
:100BF000692B41F483E090E090932F0380932E03C0
:100C0000789498CF81E00E946002672B682B692B53
:100C100019F484E090E0F0CF8E010F5F1F4F6E015A
:100C20002FEBC21A2EEFD20A780180E00E946002F8
:100C3000D7016D937D938D939C93139781E00E94D0
:100C40006002F7016483758386839783F8E0EF0E73
:100C5000F11CCE14DF0449F730E020E0D801CD903C
:100C6000DD90ED90FC90139714964D915D916D91F0
:100C70007C911797C114D104E104F10429F04115C6
:100C800051056105710519F482E090E0B5CFF901D5
:100C900093E0F595E7959A95E1F7E15EFC4F838146
:100CA000880FC416D506E606F706D0F083832F5FBB
:100CB0003F4F085F1F4F2832310581F68091220394
:100CC00090912303890F90912403890F909125031C
:100CD000890F90912603891729F081E090E08CCF4D
:100CE0008160E4CF10922F0310922E0390E080E0F9
:100CF00087CF80912003909121032091270331E039
:100D0000309371022093700210926F0210926E0263
:100D1000DC01ED91FC910190F081E02D60E00995FE
:100D200000916E0211E0013208F09CC01091700237
:100D30000E9435036B017C018091480281116CC0D7
:100D400082E08093480281E0809347028FEF809396
:100D500046021092450200934402AEE4B2E0E4E29F
:100D6000F2E080E00813F8C0109223028091230281
:100D7000110F182B1093230280912202813009F069
:100D8000EFC0109222020E9435036B017C0180911A
:100D900023028093BB0080914A0290914B02A09164
:100DA0004C02B0914D02892B8A2B8B2BA1F00E9413
:100DB000350300914A0210914B0220914C02309170
:100DC0004D026C197D098E099F0906171707280720
:100DD000390708F442C08091BC0083FDD8CF85EC70
:100DE0008093BC000E9435036B017C018091480216
:100DF000823009F4B7C08091460210E08F3F91F134
:100E00008091460212E0803269F18091460214E03E
:100E1000803341F513E026C080914A0290914B0245
:100E2000A0914C02B0914D02892B8A2B8B2B09F497
:100E300083CF0E94350380904A0290904B02A0908D
:100E40004C02B0904D026C197D098E099F098616DF
:100E50009706A806B90608F06FCF809149020E9454
:100E60008C0315E010926F0210926E0210927102C4
:100E700085E090E01111EDC0009127030E94350339
:100E80006B017C018091480281118EC081E08093CA
:100E90004802809347029FEF9093460210924502CA
:100EA00094E0909344028093230280912302000FE8
:100EB000082B0093230280912202813009F0CEC0DA
:100EC000109222020E9435036B017C018091230263
:100ED0008093BB0080914A0290914B02A0914C02FA
:100EE000B0914D02892B8A2B8B2BA1F00E943503E8
:100EF00080904A0290904B02A0904C02B0904D021C
:100F00006C197D098E099F0986169706A806B906F1
:100F100008F46BC08091BC0083FDD8CF85EC809332
:100F2000BC000E9435036B017C0180914802813036
:100F300009F496C080914502853008F0B3C08091D5
:100F40004502A4E2B2E0E2E0F2E0181709F451C071
:100F50009D9191931F5FF9CF9D9191938F5F02CFE8
:100F600085EE3ECF80914A0290914B02A0914C02B7
:100F7000B0914D02892B8A2B8B2B09F437CF0E941D
:100F8000350300914A0210914B0220914C0230919E
:100F90004D026C197D098E099F090617170728074E
:100FA000390708F023CF59CF80914A0290914B0224
:100FB000A0914C02B0914D02892B8A2B8B2B09F406
:100FC00061CF0E94350380904A0290904B02A0901E
:100FD0004C02B0904D026C197D098E099F0986164E
:100FE0009706A806B90608F04DCF809149020E94E5
:100FF0008C03109201021093000202E213E087E2D8
:10100000E82E83E0F82E8091200390912103DC01EB
:10101000ED91FC910284F385E02D0995F80181930F
:101020008F01EE16FF0679F761E070E080E090E056
:101030000E945A038091200390912103DC01ED91DD
:10104000FC910084F185E02D0995892B69F182E0FE
:1010500090E090932F0380932E036CCD85EE5FCFAD
:1010600080914A0290914B02A0914C02B0914D02A6
:10107000892B8A2B8B2B09F458CF0E943503809043
:101080004A0290904B02A0904C02B0904D026C1915
:101090007D098E099F0986169706A806B90608F0ED
:1010A00044CFA3CF85E04DCF8091220390912303BD
:1010B000890F90912403890F90912503890F9091B6
:1010C0002603891307C010922F0310922E0390E07D
:1010D00080E030CD81E090E0BCCFCF93DF93EC0196
:1010E000A881B981EB01E881F9811097F1F030977F
:1010F000B1F4EC018C819D81892BC9F08C9190E039
:101100000BC0DB0114968D919C91892B81F080811D
:1011100090E0919581959109DF91CF910895BF015C
:10112000CD01DF91CF910C94DF19309751F790E00A
:1011300080E0F2CF0F931F93CF93DF93EC01888170
:101140009981009759F02A813B812617370730F0A3
:1011500081E0DF91CF911F910F9108958B016F5F17
:101160007F4F0E941919009759F0998388831B8338
:101170000A832C813D81232B59F7FC011082E8CF93
:1011800080E0E7CFEF92FF920F931F93CF93DF930F
:101190006115710541F480E0DF91CF911F910F91AE
:1011A000FF90EF90089541155105B1F07B01EC01DE
:1011B0000C811D81040F151FB8010E949A08882315
:1011C00051F3288139818C819D81B701820F931F52
:1011D0000E94E8191D830C8381E0DECFCF93DF935B
:1011E00000D0CDB7DEB769831A8241E050E0BE017E
:1011F0006F5F7F4F0E94C2080F900F90DF91CF91D9
:101200000895CF93DF93EC0188819981009711F0C5
:101210000E949018198218821D821C821B821A82D9
:10122000DF91CF910895CF93DF93EC01FB01019003
:101230000020E9F73197AF01461B570B0E94C20807
:10124000811103C0CE010E940109CE01DF91CF912F
:101250000895CF93DF93EC01FB01448155816081B8
:1012600071810E94C208811103C0CE010E94010950
:10127000CE01DF91CF910895EF92FF920F931F93CC
:10128000CF93DF93EC017B018A01BA010E949A0897
:1012900081110BC0CE010E940109CE01DF91CF91D7
:1012A0001F910F91FF90EF9008951D830C83B7015C
:1012B000888199810E94E819F0CFFB0101900020FC
:1012C000E9F73197AF01461B570B0C943C09EF929D
:1012D000FF920F931F93CF93DF93CDB7DEB7A19704
:1012E0000FB6F894DEBF0FBECDBF7C01CB01BA01B3
:1012F000F7011182108213821282158214828E01EC
:101300000F5F1F4F22E044E00E948612009789F091
:10131000BC01C7010E945D09A1960FB6F894DEBF1B
:101320000FBECDBFDF91CF911F910F91FF90EF9036
:101330000895C7010E940109EFCFCF93DF93EC011D
:10134000FB018617970749F060817181611571056E
:1013500041F0448155810E943C09CE01DF91CF913B
:1013600008950E940109F9CFFC01118210821382B5
:101370001282158214820C949D09CF93DF93EC01A5
:101380000E94B409CE01DF91CF910895EF92FF92B0
:101390000F931F93CF93DF93EC017B011982188287
:1013A0001B821A821D821C8288E090E00E94F41742
:1013B0008C01B7010E94B409F70186819781F80179
:1013C000978386831D830C83DF91CF911F910F91AB
:1013D000FF90EF900895FC01118210821382128217
:1013E00015821482FB0101900020E9F73197AF01CB
:1013F000461B570B0C943C09FC018081918100979E
:1014000011F00C9490180895AF92BF92CF92DF9292
:10141000EF92FF920F931F93CF93DF93CDB7DEB779
:101420002E970FB6F894DEBF0FBECDBF8C016B01B7
:101430008091360390913703D80112969C938E9336
:101440001197D8011196ED91FC91809138039091FC
:1014500039038E179F0779F1A0903D03B0903E03AA
:10146000E480F580B701CE0101960E94B409F7012E
:101470008681978198878F83BE016F5F7F4FCE01F2
:101480000996F5010995B601CE0109960E946D08ED
:101490007C01CE0109960E94FC09CE0101960E94B2
:1014A000FC09F7FE08C0D8011196ED91FC91129746
:1014B00082819381C2CFC8012E960FB6F894DEBF09
:1014C0000FBECDBFDF91CF911F910F91FF90EF9095
:1014D000DF90CF90BF90AF900895EF92FF920F935F
:1014E0001F93CF93DF93CDB7DEB7AA970FB6F894CB
:1014F000DEBF0FBECDBF7C018B01CE0188960E945E
:10150000040AE9A5FAA5D70113968D919C91E817D5
:10151000F90739F064817581C8010E946D0897FF51
:101520006BC0B801CE0141960E94B409188E1F8A83
:1015300000913D0310913E03BE016F5E7F4FCE01CF
:1015400001960E94B4098F89988D98878F83BE0178
:101550006F5F7F4FCE010996F8010995BE01675F65
:101560007F4FCE0185960E94040ACE0109960E9403
:10157000FC09CE0101960E94FC09EEA1FFA1809119
:101580003803909139038E179F0709F06DC0809141
:101590003A0390913B03892B09F040C086E090E02C
:1015A0000E94F4178C01BE016F5E7F4F0E94C60936
:1015B0001093370300933603E0913803F091390319
:1015C00011830083D80111961C921E921396FC93EE
:1015D000EE93129781E090E090933B0380933A035F
:1015E000E0913803F0913903008111811AA709A70E
:1015F000CE0141960E94FC09E9A5FAA58481958156
:101600000696AA960FB6F894DEBF0FBECDBFDF9147
:10161000CF911F910F91FF90EF90089586E090E099
:101620000E94F4178C01BE016F5E7F4F0E94C609B5
:10163000E0913803F091390380819181D8011196AE
:101640009C938E931396FC93EE931297A081B18195
:1016500013961C930E9312971183008380913A0383
:1016600090913B030196B8CFE0903D03F0903E038C
:1016700004811581B801CE0109960E94B409F801D0
:1016800086819781988B8F87BE01675F7F4FCE01E0
:101690004F96F701099500913D0310913E03BE015D
:1016A0006F5E7F4FCE0101960E94B4098F89988D9D
:1016B00098878F83BE016F5F7F4FCE014996F801F7
:1016C0000995BE01615E7F4FCE0149960E946D086B
:1016D0008C01CE0149960E94FC09CE0101960E9420
:1016E000FC09CE014F960E94FC09CE0109960E948A
:1016F000FC09EEA0FFA017FF2BC086E090E00E943F
:10170000F4178C01BE016F5E7F4F0E94C609D7019E
:101710008D919C911197F80191838083F382E282ED
:10172000892B89F41093370300933603F701118353
:10173000008380913A0390913B03019690933B0381
:1017400080933A0353CFED91FC9113830283EECF44
:1017500087014CCF0F931F93CF93DF9300D000D01E
:1017600000D0CDB7DEB78C0160E573E0CE01019605
:101770000E94B409B801CE0101960E9429096BE2CA
:1017800071E00E941309BC0180E593E00E949D096D
:10179000CE0101960E94FC0926960FB6F894DEBF92
:1017A0000FBECDBFDF91CF911F910F910895CF92C2
:1017B000DF92EF92FF921F93CF93DF93CDB7DEB707
:1017C00062970FB6F894DEBF0FBECDBF6DE271E039
:1017D000CE0101960E94EB09CE0101960E94AA0B50
:1017E000CE0101960E94FC0982E00E94370261E569
:1017F00071E0892B11F06EE571E0CE0101960E9437
:10180000EB09CE0101960E94AA0BCE0101960E941F
:10181000FC090E946105892B09F473C060E070E047
:1018200080EC9FE7AB01BC01CE0107960E946709DF
:101830006AE671E0CE0101960E94EB09BE01695F84
:101840007F4FCE0101960E9429096CE571E00E944C
:101850001309BC01CE010D960E94B409CE010D966C
:101860000E94AA0BCE010D960E94FC09CE010196A2
:101870000E94FC09CE0107960E94FC090E946105A6
:10188000892B09F460C060E070E080EC9FE7AB0159
:10189000BC01CE0107960E94670967E771E0CE019F
:1018A00001960E94EB09BE01695F7F4FCE01019650
:1018B0000E9429096CE571E00E941309BC01CE0168
:1018C0000D960E94B409CE010D960E94AA0BCE017E
:1018D0000D960E94FC09CE0101960E94FC09CE01E2
:1018E00007960E94FC0962960FB6F894DEBF0FBE01
:1018F000CDBFDF91CF911F91FF90EF90DF90CF9000
:10190000089510912503612F6F7770E090E080E0DB
:101910000E94FE1520E030E040E251E40E947C1776
:101920006B017C016091240370E090E080E00E94F4
:1019300000169B01AC01C701B6010E94101717FFEA
:1019400071CF90586FCF6091230370E090E080E0FA
:101950000E94FE1520E030E040E251E40E947C1736
:101960006B017C016091220370E090E080E00E94B6
:1019700000169B01AC01C701B6010E94101787CF6A
:1019800085ED8093BC0080914A0290914B02A0911A
:101990004C02B0914D020796A11DB11D23E0B695F2
:1019A000A795979587952A95D1F72091BC0024FD9E
:1019B00003C010924802089540914A0250914B0290
:1019C00060914C0270914D02452B462B472B69F3D9
:1019D0000097A105B10541F025E32A95F1F7000034
:1019E0000197A109B109E1CF809149020C948C03C0
:1019F000CF93C1E086E792E00E946901892B09F448
:101A0000F7C080913F0390914003892B09F054C0A7
:101A10002FB7F8948091720290917302A091740292
:101A2000B09175022FBF8093560390935703A093F4
:101A30005803B093590366E771E084E493E00E9491
:101A40005D0986E792E00E944701682F80913F037D
:101A5000909140039C012F5F3F4F309340032093B0
:101A60003F038330910508F0BDC051E0663609F4AC
:101A700050E02430310519F441E0653609F440E0C6
:101A8000511103C0442309F45EC010924003109228
:101A90003F03109242031092410366E771E084E431
:101AA00093E00E945D0966E771E08AE493E00E949A
:101AB0005D09109243039ECF809156039091570386
:101AC000A0915803B0915903845D9E4FAF4FBF4F13
:101AD0002FB7F89440917202509173026091740292
:101AE000709175022FBF84179507A607B70708F0F6
:101AF000A8CF66E771E08AE493E00E945D09109246
:101B0000400310923F03109242031092410366E794
:101B100071E084E493E00E945D09109243032FB7C3
:101B2000F8948091720290917302A0917402B09126
:101B300075022FBF8093560390935703A0935803C9
:101B4000B09359037ECF0497029720F51092430378
:101B50008AE493E00E94EE0880913F039091400355
:101B6000069709F047CF40E150E070E060E08091D7
:101B70004A0390914B030E94A4126A5F7F4F7093B7
:101B800042036093410366E771E08AE493E00E94B8
:101B90005D0930CF2730310508F42CCF8091410307
:101BA000909142032817390738F41092430384E4D4
:101BB00093E00E94EE081ECF9093400380933F0372
:101BC000892B09F417CF84E493E00E94EE08109269
:101BD000400310923F031092420310924103C093BE
:101BE000430308CF2430310509F0ADCF50E044CF96
:101BF000CF9108950E94750181110C94F80C0895FD
:101C00001F920F920FB60F9211242F933F934F9371
:101C10005F936F937F938F939F93AF93BF93EF9354
:101C2000FF938091FC019091FD01A091FE01B09184
:101C3000FF01892B8A2B8B2BD1F19091FB01E09135
:101C4000F901F091FA018081892780838091FC015C
:101C50009091FD01A091FE01B091FF0118161906A7
:101C60001A061B069CF48091FC019091FD01A09145
:101C7000FE01B091FF010197A109B1098093FC0118
:101C80009093FD01A093FE01B093FF01FF91EF91AE
:101C9000BF91AF919F918F917F916F915F914F9184
:101CA0003F912F910F900FBE0F901F90189580912C
:101CB00000010E94C202EACF1F920F920FB60F924C
:101CC00011242F933F934F935F936F937F938F9341
:101CD0009F93AF93BF93EF93FF9386E792E00E94A9
:101CE0007F01FF91EF91BF91AF919F918F917F9174
:101CF0006F915F914F913F912F910F900FBE0F9079
:101D00001F9018951F920F920FB60F9211242F93C8
:101D10008F939F93EF93FF93E0918602F091870258
:101D20008081E0918C02F0918D0282FD1BC0908138
:101D300080918F028F5F8F7320919002821741F004
:101D4000E0918F02F0E0EA58FD4F958F80938F026B
:101D5000FF91EF919F918F912F910F900FBE0F9058
:101D60001F9018958081F4CF1F920F920FB60F929B
:101D700011242F933F938F939F93AF93BF938091A1
:101D8000720290917302A0917402B0917502309129
:101D9000F40123E0230F2D3758F50196A11DB11D45
:101DA0002093F4018093720290937302A0937402C3
:101DB000B09375028091F5019091F601A091F70121
:101DC000B091F8010196A11DB11D8093F50190938A
:101DD000F601A093F701B093F801BF91AF919F91E5
:101DE0008F913F912F910F900FBE0F901F901895DC
:101DF00026E8230F0296A11DB11DD2CF1F920F928C
:101E00000FB60F9211242F933F934F935F936F93CD
:101E10007F938F939F93AF93BF93EF93FF938091A3
:101E2000B900887F803609F44AC0F0F5883209F499
:101E3000A5C018F5803109F499C0B8F4882309F4D5
:101E4000F5C0883009F492C0FF91EF91BF91AF9136
:101E50009F918F917F916F915F914F913F912F91C2
:101E60000F900FBE0F901F901895883109F486C00F
:101E7000803251F78093460214C0803409F49BC02D
:101E800040F48033B9F38833F9F68093460285EC49
:101E9000AEC0803509F483C0883509F494C0883415
:101EA00099F60E94C00CD0CF883909F48AC038F561
:101EB000883729F050F4883611F0803729F683E00E
:101EC000809348021092F30155C0883809F479C014
:101ED000803919F0803809F0B7CF8091F301803252
:101EE00008F06FC0E091F30181E08E0F8093F30161
:101EF0008091BB00F0E0ED52FE4F80833BC0803B01
:101F000039F0D0F4803A09F477C0883A09F09CCFD0
:101F100084E0809348021092D2011092D101F0E047
:101F2000E0E009958091D10181110FC081E080939B
:101F3000D1011092B10109C0803C09F4A8CF883CBE
:101F400009F4A5CF883B09F07FCFE091D20181E071
:101F50008E0F8093D201F0E0EF54FE4F808180938A
:101F6000BB009091D2018091D10129C080912302C0
:101F70008093BB0085EC8093BC0066CF90914502B6
:101F800080914402981758F5E091450281E08E0F48
:101F900080934502F0E0EC5DFD4F8081E9CFE09158
:101FA000450281E08E0F809345028091BB00F0E0F6
:101FB000EC5DFD4F8083909145028091440298171B
:101FC000C8F285E8D8CFE091450281E08E0F80937A
:101FD00045028091BB00F0E0EC5DFD4F8083809175
:101FE000470281115ECF81E08093220284EA8093D0
:101FF000BC001092480228CF85EC8093BC00109260
:1020000048028091F301803230F4E091F301F0E076
:10201000ED52FE4F10826091F30170E083ED91E08C
:10202000F0E0E0E009951092F3010ECF1092460225
:1020300038CFCF93DF93E6E7F2E01382128288EE87
:1020400093E0A0E0B0E084839583A683B7832BE080
:1020500031E03183208325EC30E03587248724EC80
:1020600030E03787268720EC30E0318B208B21EC65
:1020700030E0338B228B22EC30E0358B248B26EC46
:1020800030E0378B268B118E128E138E148EE3E187
:10209000F3E01382128284839583A683B7838DE154
:1020A00091E091838083C5E3D3E01E821D8286E0A8
:1020B00090E00E94F417FC011182108213821282B8
:1020C000158214829A8389839C838B838DEB99E09C
:1020D0009987888766E771E084E493E00E94EB09C2
:1020E00066E771E08AE493E00E94EB0966E771E03D
:1020F00080E593E00E94EB09EFE1F3E08CE5808757
:1021000082E1818783E1828713861486158616868D
:1021100089E090E0908B878781E080831282118232
:1021200084E0818B80E89EE3A0E0B0E0828B938B1B
:10213000A48BB58BDF91CF910895CF93DF93CDB76B
:10214000DEB765970FB6F894DEBF0FBECDBF7894AB
:1021500084B5826084BD84B5816084BD85B58260AC
:1021600085BD85B5816085BD80916E00816080935D
:102170006E001092810080918100826080938100C6
:1021800080918100816080938100809180008160D6
:10219000809380008091B10084608093B100809131
:1021A000B00081608093B00080917A008460809359
:1021B0007A0080917A00826080937A0080917A0020
:1021C000816080937A0080917A00806880937A00A1
:1021D0001092C10061E871E0CE0101960E94EB0906
:1021E000BE016F5F7F4F85E393E00E946D0A2BE78E
:1021F00034E0DC012D933C93CE0101960E94FC0952
:1022000067E871E0CE0101960E94EB09BE016F5FA5
:102210007F4F85E393E00E946D0A2EEE32E0FC01D1
:1022200031832083CE0101960E94FC0987ED9BE05B
:1022300090935B0380935A036FEF70E084E493E024
:102240000E949A0866E771E08AE493E00E945D09C3
:1022500066E771E084E493E00E945D0966E771E05F
:1022600080E593E00E945D091092430310924203BF
:10227000109241031092400310923F0310925603B4
:10228000109257031092580310925903E09186025E
:10229000F091870282E08083E0918202F0918302D4
:1022A0001082E0918402F09185028FEC808310927D
:1022B0008E02E0918A02F0918B0286E08083E091A9
:1022C0008802F0918902808180618083E091880298
:1022D000F0918902808188608083E0918802F0918A
:1022E0008902808180688083E0918802F091890270
:1022F00080818F7D808360E084E00E94F90260E04D
:1023000082E00E94F90261E08BE00E94F90261E044
:1023100085E00E94F90261E083E00E94F9028BE906
:10232000C82E81E0D82E93E0E92E8E010D5E1F4F5E
:102330008091430310924303882309F46CC064E442
:1023400073E0CE0101960E94B4098D819E81892B94
:1023500051F06FE871E089819A810E94DF19FF24B2
:10236000F394892B09F0F12CCE0101960E94FC090F
:10237000FF2009F458C0E0915A03F0915B030995DE
:1023800060E573E0CE010D960E94B4098A898F93AF
:1023900089898F93DF92CF921F92EF921F930F93B1
:1023A0000E94EF19B801CE0107960E94EB0960EA7E
:1023B00071E0CE0101960E94EB09BE01695F7F4F7B
:1023C000CE0101960E942909BE01635F7F4F0E94E2
:1023D0002909DC0114964D915C9115976D917C91C2
:1023E00086E792E00E940B01CE0101960E94FC0953
:1023F000CE0107960E94FC09CE010D960E94FC09B1
:1024000066E771E080E593E00E945D090FB6F894FD
:10241000DEBF0FBECDBF0E947501882309F488CFAF
:102420000E94F80C85CF64E473E0CE0101960E940F
:10243000B409BE016F5F7F4F85E393E00E946D0A90
:10244000DC01ED91FC910995CE0101960E94FC09F9
:10245000E2CFCF93DF9380E593E00E94FC098AE40A
:1024600093E00E94FC0984E493E00E94FC09E0915F
:102470003603F091370380913A0390913B03892B07
:1024800071F10280F381E02DF0933703E09336037E
:102490000190F081E02DC481D581209731F0CE01EB
:1024A0000E94FC09CE010E949018E0913603F09141
:1024B000370380819181009711F00E949018E0917C
:1024C0003603F09137031182108280913A03909184
:1024D0003B03019790933B0380933A03C8CFC48199
:1024E000D581209731F0CE010E94FC09CE010E94D7
:1024F00090188091360390913703009721F0DF9177
:10250000CF910C949018DF91CF910895EF920F9393
:102510001F93CF93DF93E80134E047FD34E1042EAD
:10252000000C550B57FF03C0519541955109E32EFF
:10253000022F242FAE010E94C413CE01DF91CF9150
:102540001F910F91EF900895B0E0A0E0EAEAF2E168
:102550000C94CA165C016B017A016115710519F0C2
:10256000FB0191838083E114F10451F0C7010297CC
:10257000839730F040E030E020E090E072C05E01F0
:10258000E5012196F5011081812F90E00E94BB1397
:10259000892BA9F71D3201F52196F501118101E082
:1025A000E114F10409F4DAC0F0E1EF16F10409F0E6
:1025B00082C0103359F488818F7D883509F076C048
:1025C000198122960260F0E1EF2EF12C812C912CE2
:1025D000A12C88E0B82E8CC01B3221F4E501229694
:1025E000F501118100E0DCCFEAE0EE16F10409F418
:1025F000BBC0F0E1EF16F10409F06DC0E7CF78E061
:10260000E72EF12C812C912CA12C60E1B62E70C00C
:102610003FE9310F3A3128F439EA332E80C021E006
:102620009AC0302F3170C114D10431F0222309F146
:102630002197F601D183C08327FF21C060E070E0BD
:1026400080E090E8311104C06FEF7FEF8FEF9FE7DC
:1026500022E230E030935D0320935C03462F372F56
:10266000282F642F732F822FCDB7DEB7E1E10C94B2
:10267000E61601FF04C02297F601D183C0833323FD
:1026800041F090958095709561957F4F8F4F9F4F4A
:10269000E5CF97FFE3CF82E290E090935D038093D4
:1026A0005C036FEF7FEF8FEF9FE7D8CF10E3E1146C
:1026B000F10409F4A4CF28E0E216F10409F4A2CF52
:1026C0000CF092CF812C912CA12CE0E4BE2E82E064
:1026D000E816F10469F060E070E080E090E89701AE
:1026E0000F2C000C440B550B0E949C1649015A01FB
:1026F00020E060E070E0CB0127010F2C000C6608A1
:102700007708FE0150ED352E310E39E0331540F4D7
:102710003FEB310F3A3108F07BCF49EC342E310ECC
:102720003E141F040CF07DCF27FD15C086169706BA
:10273000A806B90678F0A30192010E948C16630DD9
:10274000711D811D911D61307105810520E8920781
:1027500008F465CF2FEF21961081D3CF103309F401
:102760002ACF2AE0E22EF12C9CEC892E982CA82C62
:102770009CE0B92EBDCF91110C94FB15803219F05D
:1027800089508550C8F70895A9E0B0E0EAECF3E17C
:102790000C94CF166A01F22EB02E102FFBE3AF2E51
:1027A000A01608F41BE31F5F012F27E0AE014F5F67
:1027B0005F4F0E942315BC018981982F9970913039
:1027C00009F43FC09BE2E1FC04C09E2D9170E0FC47
:1027D0003AC05E2D5071E82FE87083FF46C084E058
:1027E000911101C083E0EF2DE81B8F1508F0E0E0A8
:1027F000D6018E2F20E2552351F1992329F0D601DD
:102800009C93C60101966C0196012D5F3F4FE2FE3D
:1028100024C08EE4D6018C9391E411969C93119779
:1028200012968C93D9018E2F90E281111BC0E20F7A
:10283000F32FF11D10828EEF9FEF2996ECE00C94A0
:10284000EB169DE2C6CF90E2C4CF2D93815081114B
:10285000FCCFCE0ED11CE0E0D0CF8EE6D6018C931B
:1028600091E6DBCF9D938150E0CF482F447082FFEB
:102870003DC084E0911101C083E08F1510F4EF2D6D
:10288000E81BD6018E2F20E2552309F1992329F068
:10289000D6019C93C60101966C0196012D5F3F4FB6
:1028A000E2FE1BC089E4D6018C938EE411968C93D2
:1028B000119786E412968C93D9018E2F90E288238B
:1028C00009F4B5CF9D938150FACF2D93815081119A
:1028D000FCCFCE0ED11CE0E0D9CF89E6D6018C9397
:1028E0008EE611968C93119786E6E4CF9B0177FFD5
:1028F00002C030E020E0A1E0B0E0911102C0B0E001
:10290000A0E0F9013196AE0FBF1F8B2C912CBB209C
:1029100009F461C05401EFEFAE1ABE0AAA0DBB1D47
:10292000FA161B0619F014F04F2D4A1B511188C0DE
:10293000E3FC59C07601A42FB0E2A1114FC0C40E30
:10294000D11C992309F45BC040E0D6011196F60131
:1029500090836D01552309F448C0012F060F9A8119
:10296000582F507184FF03C0913309F401501016A1
:102970000CF047C0093008F008E0EEE2FE2E5B01E3
:10298000A01AB10885019194819491082F3F3207D4
:1029900029F4D601FC92F60131966F016217730794
:1029A00094F1021713077CF5DB01A21BB30BAA24D9
:1029B000A394B12CAC0EBD1EAA0DBB1D11968C911B
:1029C00021503109D601119628153905F4F0F60188
:1029D00080836D01DBCFB12CA12CA0CFF701B19387
:1029E0007F01A150AACF9111B0CFD601942F50E30F
:1029F00002C05D9391509111FCCFC40ED11C40E0F8
:102A0000ACCF01E0BACF80E3DBCF6217730731F4BC
:102A1000963388F4953311F4552369F0F6018083D9
:102A2000FD01842F90E2811108C0A40FB11D1C92FA
:102A300090E080E002CF81E3F1CF91938150F3CF1A
:102A4000911183CF8ACF283008F027E03327DA01AD
:102A5000990F311D87FD916000966105710539F46C
:102A600032602E5F3D9330E32A95E1F708959F3F52
:102A700030F080387105610509F03C5F3C5F3D93A3
:102A8000913008F08068911DDF93CF931F930F93CF
:102A9000FF92EF92192F987F9695E92F969596952C
:102AA000E90FFF27EE53FF4F99273327EE24FF242A
:102AB000A701E70105900894079428F4360FE71E54
:102AC000F81E491F511D660F771F881F991F069416
:102AD000A1F70590079428F4E70EF81E491F561F2A
:102AE000C11D770F881F991F661F0694A1F70590D7
:102AF000079428F4F80E491F561FC71FD11D880FD1
:102B0000991F661F771F0694A1F70590079420F47C
:102B1000490F561FC71FD81F990F661F771F881FA1
:102B20000694A9F784911095177041F0D695C79532
:102B300057954795F794E7941A95C1F7E8E6F0E0C2
:102B400068941590159135916591959105907FE266
:102B50007395E118F10A430B560BC90BD009C0F766
:102B6000E10CF11E431F561FC91FD01D7EF47033A8
:102B700011F48A95E6CFE894015030F0080F0AF47A
:102B80000027021708F4202F2395022F7A3328F00C
:102B900079E37D932A95E9F710C07D932A9589F60C
:102BA000069497956795379517951794E118F10A4C
:102BB000430B560BC90BD00998F023957E91739562
:102BC0007A3308F070E37C932013B8F77E9170613C
:102BD0007D9330F0839571E37D9370E32A95E1F75F
:102BE0001124EF90FF900F911F91CF91DF919927C2
:102BF00087FD90950895992788270895E89409C03E
:102C000097FB3EF490958095709561957F4F8F4F1F
:102C10009F4F9923A9F0F92F96E9BB279395F69535
:102C2000879577956795B795F111F8CFFAF4BB0FB3
:102C300011F460FF1BC06F5F7F4F8F4F9F4F16C017
:102C4000882311F096E911C0772321F09EE8872FA1
:102C5000762F05C0662371F096E8862F70E060E05D
:102C60002AF09A95660F771F881FDAF7880F9695D6
:102C7000879597F9089597F99F6780E870E060E07D
:102C800008959FEF80EC089500240A941616170605
:102C900018060906089500240A941216130614064D
:102CA00005060895092E0394000C11F4882352F0B0
:102CB000BB0F40F4BF2B11F460FF04C06F5F7F4F68
:102CC0008F4F9F4F089557FD9058440F551F59F04F
:102CD0005F3F71F04795880F97FB991F61F09F3F09
:102CE00079F087950895121613061406551FF2CF32
:102CF0004695F1DF08C0161617061806991FF1CF82
:102D000086957105610508940895E894BB276627A8
:102D10007727CB0197F90895DB018F939F930E944A
:102D2000BE16BF91AF91A29F800D911DA39F900DE4
:102D3000B29F900D11240895A1E21A2EAA1BBB1B6D
:102D4000FD010DC0AA1FBB1FEE1FFF1FA217B30777
:102D5000E407F50720F0A21BB30BE40BF50B661F8D
:102D6000771F881F991F1A9469F760957095809551
:102D700090959B01AC01BD01CF0108950E94001701
:102D8000A59F900DB49F900DA49F800D911D1124BF
:102D900008952F923F924F925F926F927F928F92FF
:102DA0009F92AF92BF92CF92DF92EF92FF920F93DA
:102DB0001F93CF93DF93CDB7DEB7CA1BDB0B0FB6E4
:102DC000F894DEBF0FBECDBF09942A8839884888A1
:102DD0005F846E847D848C849B84AA84B984C88437
:102DE000DF80EE80FD800C811B81AA81B981CE0F2E
:102DF000D11D0FB6F894DEBF0FBECDBFED01089513
:102E0000A29FB001B39FC001A39F700D811D11242B
:102E1000911DB29F700D811D1124911D0895505870
:102E2000BB27AA270E9427170C9452160E9444160B
:102E300038F00E944B1620F039F49F3F19F426F425
:102E40000C9441160EF4E095E7FB0C943B16E92F29
:102E50000E94631658F3BA17620773078407950731
:102E600020F079F4A6F50C9485160EF4E0950B2E5F
:102E7000BA2FA02D0B01B90190010C01CA01A001CC
:102E80001124FF27591B99F0593F50F4503E68F127
:102E90001A16F040A22F232F342F4427585FF3CF68
:102EA000469537952795A795F0405395C9F77EF439
:102EB0001F16BA0B620B730B840BBAF09150A1F082
:102EC000FF0FBB1F661F771F881FC2F70EC0BA0F08
:102ED000621F731F841F48F4879577956795B79590
:102EE000F7959E3F08F0B0CF9395880F08F099278B
:102EF000EE0F9795879508950E9490170C9452169F
:102F00000E944B1658F00E94441640F029F45F3F8F
:102F100029F00C943B1651110C9486160C94411612
:102F20000E94631668F39923B1F3552391F3951B1F
:102F3000550BBB27AA2762177307840738F09F5FDA
:102F40005F4F220F331F441FAA1FA9F335D00E2E47
:102F50003AF0E0E832D091505040E695001CCAF7B4
:102F60002BD0FE2F29D0660F771F881FBB1F261777
:102F700037074807AB07B0E809F0BB0B802DBF014E
:102F8000FF2793585F4F3AF09E3F510578F00C941D
:102F90003B160C9486165F3FE4F3983ED4F3869577
:102FA00077956795B795F7959F5FC9F7880F911D3E
:102FB0009695879597F90895E1E0660F771F881F2A
:102FC000BB1F621773078407BA0720F0621B730BDD
:102FD000840BBA0BEE1F88F7E0950895EE0FFF1FE4
:102FE0000590F491E02D09940F931F93CF93DF93F5
:102FF0008230910510F482E090E0E0916003F0915E
:10300000610330E020E0B0E0A0E0309799F42115B2
:10301000310509F44AC0281B390B24303105D8F595
:103020008A819B816115710589F1FB0193838283FC
:10303000FE0111C040815181028113814817590757
:10304000E0F04817590799F4109761F012960C9325
:10305000129713961C933296CF01DF91CF911F9157
:103060000F9108950093600310936103F4CF21152D
:10307000310551F04217530738F0A901DB019A01DD
:10308000BD01DF01F801C1CFEF01F9CF90936103DA
:1030900080936003CDCFFE01E20FF31F81939193E4
:1030A0002250310939832883D7CF20915E03309194
:1030B0005F03232B41F420910301309104013093ED
:1030C0005F0320935E0320910101309102012115DD
:1030D000310541F42DB73EB74091050150910601ED
:1030E000241B350BE0915E03F0915F03E217F307B9
:1030F000A0F42E1B3F0B2817390778F0AC014E5F68
:103100005F4F2417350748F04E0F5F1F50935F0342
:1031100040935E03819391939FCFF0E0E0E09CCFDA
:10312000CF93DF930097E9F0FC013297138212826C
:10313000A0916003B0916103ED0130E020E01097B1
:10314000A1F420813181820F931F20915E03309181
:103150005F032817390709F061C0F0935F03E0931C
:103160005E03DF91CF910895EA01CE17DF07E8F5FE
:103170004A815B819E0141155105B1F7E901FB834D
:10318000EA8349915991C40FD51FEC17FD0761F4EB
:10319000808191810296840F951FE901998388832C
:1031A000828193819B838A83F0E0E0E012968D9187
:1031B0009C9113970097B9F52D913C911197CD01F2
:1031C0000296820F931F20915E0330915F032817B0
:1031D000390739F6309751F5109261031092600368
:1031E000B0935F03A0935E03BCCFD383C2834081BF
:1031F0005181840F951FC817D90761F44E5F5F4F47
:1032000088819981480F591F518340838A819B810E
:10321000938382832115310509F0B0CFF0936103C8
:10322000E09360039ECFFD01DC01C0CF13821282C8
:10323000D7CFB0E0A0E0EFE1F9E10C94CB168C0120
:10324000009751F4CB010E94F4178C01C801CDB74F
:10325000DEB7E0E10C94E716FC01E60FF71F9C01D6
:1032600022503109E217F30708F49DC0D901CD912E
:10327000DC911197C617D70798F0C530D10530F308
:10328000CE0104978617970708F3C61BD70B229722
:10329000C193D1936D937C93CF010E949018D6CFA8
:1032A0005B01AC1ABD0A4C018C0E9D1EA0916003FF
:1032B000B0916103512C412CF12CE12C109731F588
:1032C00080915E0390915F038815990509F05CC0B9
:1032D0004616570608F058C08091010190910201EE
:1032E000009741F48DB79EB74091050150910601BA
:1032F000841B950BE817F90708F055C0F0935F039E
:10330000E0935E03F90171836083A0CF8D919C915E
:10331000119712966C90129713967C901397A8159C
:10332000B90559F56C0142E0C40ED11CCA14DB0486
:1033300020F1AC014A195B09DA011296159780F069
:103340006282738251834083D9016D937C93E1142F
:10335000F10471F0D7011396FC93EE93129776CF98
:1033600022968C0F9D1FF90191838083F301EFCF8B
:10337000F0936103E093600369CF4816590608F49F
:103380002C017D01D3019ACFCB010E94F4177C015F
:10339000009749F0AE01B8010E94D619C8010E94F9
:1033A0009018870153CF10E000E050CFFB01DC0103
:1033B00002C001900D9241505040D8F70895FB0192
:1033C000DC018D91019080190110D9F3990B0895BA
:1033D000FB01DC0101900D920020E1F70895AEE0C1
:1033E000B0E0E5EFF9E10C94D7160D891E898F89BD
:1033F000988D26E02C831A83098397FF02C080E012
:1034000090E801979E838D83AE01455E5F4F698D85
:103410007A8DCE0101960E941F1A4D815E8157FD63
:103420000AC02F813885421753070CF49A01020F06
:10343000131FF80110822E96E4E00C94F316ABE013
:10344000B0E0E5E2FAE10C94C9167C013B018A0187
:10345000FC0117821682838181FFC8C1CE010196CB
:103460005C01F7019381F30193FD859193FF8191B5
:103470003F01882309F453C1853239F493FD8591C6
:1034800093FF81913F01853229F4B70190E00E94BA
:103490000F1CE7CF912C212C312CFFE1F31538F0D4
:1034A0008B3211F190F4803209F1833229F137FC2B
:1034B0003CC020ED280F2A3050F536FE20C08AE0AF
:1034C000989E200D1124922E06C08D3291F08033EB
:1034D00071F7689430F8F30193FD859193FF819122
:1034E0003F018111DACF21C0689431F8689432F835
:1034F000F2CF689433F8EFCF689434F8ECCFEAE079
:103500002E9E200D1124222E689435F8E4CF8E32A1
:1035100029F436FC04C1689436F8DDCF8C3619F4F2
:10352000689437F8D8CF8836B1F2982F9F7D95549C
:103530009330E0F08336A1F18337C1F1833509F090
:1035400063C02801F2E04F0E511CF801C080D18009
:10355000692D70E036FC02C06FEF7FEFC6010E945C
:10356000F91B4C01689437F882010AC00C5F1F4FA9
:10357000FFE3F98388248394912C6501E89437F85C
:1035800033FE2DC0522C8114910471F5552009F49D
:1035900068CFB70180E290E00E940F1C5A94F6CFEA
:1035A000F801808189830E5F1F4FE4CF2801F2E08C
:1035B0004F0E511CF801C080D180692D70E036FC9F
:1035C00002C06FEF7FEFC6010E94041C4C01820114
:1035D000D5CFB70180E290E00E940F1C2A942814F6
:1035E000190409F0B0F7CECFF60137FC859137FE0C
:1035F00081916F01B70190E00E940F1C51105A9405
:10360000F1E08F1A9108BFCF843619F0893609F09E
:1036100077C0F80137FE6BC0608171818281938130
:103620000C5F1F4FF32DFF763F2E97FF09C090953B
:103630008095709561957F4F8F4F9F4F689437F8B5
:103640002AE030E0A5010E943F1CC82ECA188C2C2D
:10365000432C36FE0CC0E89440F8C91440F434FE04
:1036600005C032FC03C0F32DFE7E4F2E892C44FE94
:1036700095C0FE01EC0DF11D8081803309F087C0FB
:10368000242D297E422E842D8870582E43FC95C00F
:1036900040FE8FC09C2C821418F42C0C922C98188D
:1036A00044FE91C0B70180E390E00E940F1C42FEEF
:1036B00009C088E790E041FE02C088E590E0B701CC
:1036C0000E940F1CC91408F48AC0CA94D12C9FEF21
:1036D000C91AD90ACA0CDB1CF60182916F01B70125
:1036E00090E00E940F1CAC14BD04B1F74FCF608175
:1036F0007181072E000C880B990B0E5F1F4F92CF24
:10370000D32CE894D4F82AE030E0853739F1232D22
:10371000297FD22E8F3601F148F48835A9F0F701C0
:10372000868197812B96E2E10C94E516803749F06B
:103730008837A9F7D4FE02C06894D2F820E130E0BF
:103740000DC06894D4F8F6CF34FE03C0822F866093
:10375000D82E20E132E002C028E030E0F801D7FEA8
:103760000FC060817181828193810C5F1F4FA50121
:103770000E943F1CC82ECA183D2CE89437F867CF2A
:103780006081718190E080E00E5F1F4FF0CF42FCBE
:1037900002C0839478CF8394839475CF842D8678E8
:1037A00009F471CFF6CFB70180E290E00E940F1CC0
:1037B00083948214C0F3512C73CF522C5818821466
:1037C00008F46ECFF8CF842D867809F47BCF8BE296
:1037D00041FE80E247FC8DE2B70190E071CFB70176
:1037E00080E390E00E940F1C9A946CCF8FEF9FEFC4
:1037F00099CFFC010590615070400110D8F7809579
:1038000090958E0F9F1F0895FC01615070400190AC
:103810000110D8F7809590958E0F9F1F08950F93F4
:103820001F93CF93DF93182F092FEB018B8181FD1D
:1038300009C01FEF0FEF812F902FDF91CF911F91C4
:103840000F91089582FF14C02E813F818C819D814C
:10385000281739073CF4E881F981CF010196998353
:10386000888310838E819F8101969F838E83E3CF0F
:10387000E885F985812F0995892BA1F3DACFFA0123
:10388000AA27283051F1203181F1E8946F936E7F9F
:103890006E5F7F4F8F4F9F4FAF4FB1E03ED0B4E090
:1038A0003CD0670F781F891F9A1FA11D680F791FD1
:1038B0008A1F911DA11D6A0F711D811D911DA11DE2
:1038C00020D009F468943F912AE0269F11243019F2
:1038D000305D3193DEF6CF010895462F4770405D8D
:1038E0004193B3E00FD0C9F7F6CF462F4F70405D3C
:1038F0004A3318F0495D31FD4052419302D0A9F797
:10390000EACFB4E0A6959795879577956795BA9590
:10391000C9F700976105710508959B01AC010A2E56
:1039200006945795479537952795BA95C9F7620F2D
:10393000731F841F951FA01D089510E0C0EED0E0F6
:1039400004C0FE010E94EE172196C13ED107C9F7BF
:04395000F894FFCF19
:10395400FF00006203800000000000A1010B013899
:1039640001EE01690147015B010000000049041CEC
:10397400047804F20315040204F3033B006465763F
:1039840069636528736D6F6B65416E6454656D7012
:10399400657261747572654465746563746F7229C8
:1039A40000736D6F6B652866616C73652900736DB8
:1039B4006F6B652874727565290074656D70657226
:1039C4006174757265280068756D69646974792815
:1039D40000616C657274007374616E64627900676F
:1039E40065745065726365707473002530325800D5
:0639F40066666665000036
:00000001FF
